:020000040800F2
:10000000000002201D270008DD0B0008DF0B0008A0
:10001000E10B0008E30B0008E50B000800000000FE
:10002000000000000000000000000000E70B0008D6
:10003000E90B000800000000EB0B0008ED0B0008C6
:100040006D2700086D2700086D2700086D27000840
:100050006D2700086D2700086D2700086D27000830
:100060006D2700086D2700086D2700086D27000820
:100070006D2700086D2700086D2700086D27000810
:100080006D2700086D2700086D2700086D27000800
:100090006D2700086D2700086D2700086D270008F0
:1000A0006D2700086D2700086D2700086D270008E0
:1000B0006D270008F50B00086D2700086D27000864
:1000C0006D2700086D2700086D2700086D270008C0
:1000D0006D2700086D2700086D2700086D270008B0
:1000E0006D2700086D2700086D2700086D270008A0
:1000F0006D2700086D2700086D2700086D27000890
:100100006D2700086D270008050C00086D27000802
:100110006D270008150C00086D2700086D270008E2
:100120006D2700086D2700086D2700086D2700085F
:100130006D27000800000000000000006D27000887
:100140006D2700086D2700086D2700086D2700083F
:100150006D2700086D2700086D2700086D2700082F
:100160006D2700086D2700086D2700086D2700081F
:100170006D2700086D270008000000000000000047
:080180006D2700086D2700083F
:100190000348044B834202D0034B03B11847704716
:1001A0007000002070000020000000000548064B91
:1001B0001B1AD90F01EBA301491002D0034B03B165
:1001C00018477047700000207000002000000000F9
:1001D00010B5064C237843B9FFF7DAFF044B13B18F
:1001E0000448AFF300800123237010BD700000208D
:1001F00000000000D436000808B5044B1BB10449C8
:100200000448AFF30080BDE80840CFE700000000DD
:1002100074000020D4360008000000000000000038
:1002200001F0FF01102A2BDB10F0070F08D010F8A7
:10023000013B013A8B422DD010F0070F42B3F6D1AB
:10024000F0B441EA012141EA014122F007047FF0C4
:1002500000070023F0E80256083C85EA010586EA1B
:10026000010685FA47F5A3FA87F586FA47F6A5FA57
:1002700087F68EB9EED1F0BC01F0FF0102F0070263
:1002800032B110F8013B013A83EA010313B1F8D10E
:100290000020704701387047002D06BF35460338EF
:1002A000073815F0010F07D1013015F4807F02BF28
:1002B000013015F4C03F0130F0BC0138704700BF79
:1002C00053B94AB9002908BF00281CBF4FF0FF31BD
:1002D0004FF0FF3000F06AB9ADF1080C6DE904CEC3
:1002E00000F006F8DDF804E0DDE9022304B0704711
:1002F0002DE9F047089D0C46002B4ED194468C45C5
:100300008646B2FA82F262D94AB1C2F12003914024
:1003100020FA03F30CFA02FC194300FA02FE4FEA3A
:100320001C471FFA8CF6B1FBF7F44FEA1E4307FB9C
:10033000141143EA014304FB06F199420AD91CEB6C
:10034000030304F1FF3080F01281994240F20F81E3
:10035000023C6344591A1FFA8EF3B1FBF7F007FB16
:10036000101143EA014300FB06F69E420AD91CEB3A
:10037000030300F1FF3180F0FC809E4240F2F980DF
:10038000634402389B1B40EA044000211DB1D34066
:100390000022C5E90032BDE8F0878B4205D90DB1D6
:1003A000C5E9000100210846F5E7B3FA83F1002909
:1003B00046D1A34202D39042C0F0F080861A64EB8B
:1003C00003030120002DE6D0C5E90063E3E7002A1E
:1003D00040F09080A1EB0C044FEA1C481FFA8CF708
:1003E0000121B4FBF8F64FEA1E4308FB164443EA2A
:1003F000044307FB06F0984208D91CEB030306F1FF
:10040000FF3402D2984200F2CD8026461C1A1FFA11
:100410008EF3B4FBF8F008FB104443EA044300FBFE
:1004200007F79F4208D91CEB030300F1FF3402D207
:100430009F4200F2B0802046DB1B40EA0640A5E761
:10044000C1F120068B4022FA06F71F4320FA06FC72
:1004500004FA01F343EA0C03F44000FA01F8380C03
:100460004FEA1349B4FBF0FE1FFA87FC00FB1E4461
:1004700049EA04440EFB0CF9A14502FA01F20AD93B
:100480003C190EF1FF3A80F08480A14540F2818052
:10049000AEF1020E3C44A4EB09041FFA83F9B4FB4D
:1004A000F0F300FB134449EA044403FB0CFCA445AD
:1004B00007D93C1903F1FF3067D2A44565D9023B47
:1004C0003C4443EA0E40A0FB0293A4EB0C049C4284
:1004D000CE469C4651D34ED055B1B8EB0E0364EBDB
:1004E0000C0404FA06F6CB401E43CC40C5E9006478
:1004F000002150E7C2F1200320FA03F10CFA02FCBC
:1005000024FA03F394400C434FEA1C4800FA02FE1D
:100510001FFA8CF7B3FBF8F008FB1031230C43EA09
:10052000014300FB07F1994208D91CEB030300F1DA
:10053000FF362CD299422AD9023863445B1AA4B2FE
:10054000B3FBF8F108FB113344EA034401FB07F362
:10055000A34208D91CEB040401F1FF3613D2A342D5
:1005600011D902396444E41A41EA004139E70446EA
:10057000F0E6084606E7C845AED2B9EB020E63EBDB
:10058000070C0138A8E73146EDE7034699E7304606
:10059000D4E7D6467FE7634402384DE70646234654
:1005A00008460FE7023E634430E700BF704700BFD4
:1005B00070B58AB0002405940694079408940994B1
:1005C0000094324B1A6B42F004021A631A6B02F069
:1005D00004020092009A01941A6B42F080021A639E
:1005E0001A6B02F080020192019A02941A6B42F097
:1005F00002021A631A6B02F002020292029A039438
:100600001A6B42F001021A631A6B02F001020392A4
:10061000039A04941A6B42F008021A631B6B03F0EE
:1006200008030493049B1A4D224642F20F01284608
:1006300001F0F5FA4FF4005305930126069607944E
:10064000089405A9284601F0EDF90F2305930696B5
:100650000794089605A9284601F0E4F94FF47C7345
:10066000059306940226079605A9284601F0DAF9B3
:100670004FF480730593069607940894099405A98E
:10068000044801F0CFF90AB070BD00BF0038024045
:100690000008024000000240074B03EB80035B5C54
:1006A000DBB2022B06D8044A02EB8002535C013312
:1006B000DBB25354704700BFA401002038B5054693
:1006C0000C460B4B03EB80035B5CDBB2022B05D8C3
:1006D000074B03EB850300221A5538BD054901EB92
:1006E0008001431C621C095D034802F06DF8EFE7CE
:1006F000A4010020903700080037000810B5044618
:1007000010212D4801F084FA012838D0214600201C
:10071000FFF7D4FF2021284801F07AFA012833D0CE
:1007200021460120FFF7CAFF4021234801F070FA5B
:1007300001282DD021460220FFF7C0FF80211E484E
:1007400001F066FA012828D021460320FFF7B6FF02
:100750004FF48071184801F05BFA012822D021463D
:100760000420FFF7ABFF4FF40071134801F050FA7B
:1007700001281CD021460520FFF7A0FF10BD21460F
:100780000020FFF789FFC5E72146FFF785FFCBE78C
:1007900021460220FFF780FFD0E721460320FFF724
:1007A0007BFFD5E721460420FFF776FFDBE72146F4
:1007B0000520FFF771FFE1E70008024008B50022BD
:1007C0000F211F4801F02BFA1E4B1B7803F0030387
:1007D000032B2CD8DFE803F0021019220122114666
:1007E000174801F01CFA0020FFF788FF154A13781C
:1007F0000133DBB2137008BD01220221104801F061
:100800000EFA0120FFF77AFFF0E7012204210C48DD
:1008100001F005FA0220FFF771FFE7E70122082146
:10082000074801F0FCF90320FFF768FFDEE7064800
:1008300002F03EF84FF4FA7001F028FBD6E700BF53
:1008400000080240BC0100202037000810B5044613
:100850000268084B9A4204D02268074B9A4203D0A0
:1008600010BDFFF7ABFFF7E74FF40051034801F06D
:10087000DCF9F5E700040040000C004000080240ED
:1008800000210AE0074A02EB81020020D054013324
:10089000DBB2042BF6D90131C9B2062901D80023F5
:1008A000F7E77047A401002010B51446012804D0D2
:1008B00002280AD04FF0FF3010BD4FF0FF3392B244
:1008C000064801F058FC2046F6E74FF0FF3392B29D
:1008D000024801F050FC2046EEE700BF8C000020EB
:1008E00072B6FEE708B50A480A4B03604FF4165388
:1008F000436000238360C36003610C224261836113
:10090000C36101F009FC00B908BDFFF7E9FF00BFB2
:100910008C0000200048004008B50A480A4B0360DC
:100920004FF4E133436000238360C36003610C2212
:1009300042618361C36101F0EFFB00B908BDFFF7BD
:10094000CFFF00BFD00000200050004000B587B0AE
:100950000023029303930493059300930193144897
:10096000144A026040F28F62426083604FF4FA7270
:10097000C2600361836100F0C7FB90B94FF48053FC
:10098000029302A90A4800F0F8FB60B90023009323
:1009900001936946064800F06FFC30B907B05DF876
:1009A00004FBFFF79DFFFFF79BFFFFF799FF00BFD9
:1009B0005C0100200004004000B587B000230293D2
:1009C000039304930593009301931448144A02601F
:1009D00040F28F62426083604CF25032C260036129
:1009E000836100F091FB90B94FF48053029302A908
:1009F0000A4800F0C2FB60B90023009301936946E6
:100A0000064800F039FC30B907B05DF804FBFFF789
:100A100067FFFFF765FFFFF763FF00BF14010020CA
:100A2000000C004000B595B03022002108A801F06C
:100A3000C3FE002303930493059306930793019346
:100A4000234A116C41F080511164126C02F0805203
:100A50000192019A02931F4B1A6842F480421A6075
:100A60001B6803F480430293029B012308934FF415
:100A70008033099302220E924FF480030F930423D4
:100A80001093A82111911292139308A800F03CFC36
:100A9000D0B90F23039302230493002305934FF44B
:100AA000A05306934FF480530793052103A800F049
:100AB000E3FE58B94FF0C0624FF48001002000F00F
:100AC0001FFE15B05DF804FBFFF70AFFFFF708FFF4
:100AD000003802400070004010B588B0364B06ACBC
:100AE00093E8030084E80300344A92E8030004908A
:100AF000ADF81410090C8DF816100DF1040C083324
:100B000093E80700ACE803008CF8002001F092F9AC
:100B1000FFF788FFFFF74CFDFFF7E4FEFFF7FCFE51
:100B2000FFF714FFFFF748FF254800F083F9FFF7B0
:100B3000A7FE642308222146224801F01CFB4FF443
:100B40007A7001F0A3F92049204801F03DFE6420AD
:100B500001F09CF91E491F4801F036FE4FF4FA607F
:100B600001F094F926E003F120026A44002102F822
:100B70001C1C0133092BF6DD072204A9114801F0E2
:100B8000D8FB104801F0C4FD2128FAD04FF47A7345
:100B9000092201A90B4801F05AFB4FF4FA7001F049
:100BA00075F99DF804100C4801F00EFE4FF47A70B0
:100BB00001F06CF90023DDE7EC3600088837000807
:100BC0005C010020D00000203837000840370008C2
:100BD0004C3700085437000870370008FEE7FEE77E
:100BE000FEE7FEE7FEE770477047704708B501F083
:100BF0003BF908BD08B5024800F064F908BD00BF24
:100C00005C01002008B5024800F05CF908BD00BF97
:100C10001401002008B5024801F03CFC08BD00BFEB
:100C2000D000002082B0002100910B4B5A6C42F49E
:100C300080425A645A6C02F480420092009A0191F8
:100C40001A6C42F080521A641B6C03F080530193BB
:100C5000019B02B0704700BF0038024000B583B06E
:100C60000368184A934205D0174A934216D003B03E
:100C70005DF804FB00210091144B1A6C42F0020253
:100C80001A641B6C03F002030093009B0A461D20AC
:100C900001F078F81D2001F085F8E8E700210191C6
:100CA0000A4B1A6C42F008021A641B6C03F008032A
:100CB0000193019B0A46322001F064F8322001F0D2
:100CC00071F8D4E700040040000C004000380240F6
:100CD000F0B58BB00023059306930793089309930F
:100CE0000368364A934204D0354A934241D00BB050
:100CF000F0BD00240094334B1A6C42F480121A6445
:100D00001A6C02F480120092009A01941A6B42F05D
:100D100004021A631A6B02F004020192019A02940F
:100D20001A6B42F008021A631B6B03F0080302936C
:100D3000029B4FF4805305930227069703260896DB
:100D40000825099505A9204800F06CFE04230593A9
:100D5000069707940896099505A91C4800F062FEBD
:100D600022462146352001F00DF8352001F01AF811
:100D7000BDE700210391134B1A6C42F480221A64E0
:100D80001A6C02F480220392039A04911A6B42F0C7
:100D900002021A631B6B03F002030493049B4FF4DB
:100DA00040630593022306930323089307230993C3
:100DB00005A9074800F036FE99E700BF0050004043
:100DC000004800400038024000080240000C024089
:100DD0000004024010B4036A046A24F001040462AF
:100DE000846924F0F00C4CEA021223F00A030B434E
:100DF000826103625DF8044B704710B4036A23F00C
:100E0000100303628469036A24F4704C4CEA0232D2
:100E100023F0A00343EA0113826103625DF8044BEF
:100E20007047836823F070030B4343F0070383602C
:100E30007047000090F83D30DBB2012B37D1022320
:100E400080F83D300268D36843F00103D360036843
:100E5000194A934220D0B3F1804F1DD0A2F57C42B5
:100E6000934219D002F58062934215D002F5806258
:100E7000934211D002F5784293420DD002F57052A0
:100E8000934209D0A2F59432934205D01A6842F0F9
:100E900001021A60002070479A6802F00702062AD1
:100EA00007D01A6842F001021A6000207047012042
:100EB00070470020704700BF000001407047704736
:100EC0007047704710B5044603681A6912F0020FA4
:100ED00011D0DA6812F0020F0DD06FF002021A6121
:100EE0000123037703689B6913F0030F70D0FFF7AA
:100EF000E6FF0023237723681A6912F0040F12D04B
:100F0000DA6812F0040F0ED06FF004021A610223A7
:100F1000237723689B6913F4407F5FD02046FFF757
:100F2000CEFF0023237723681A6912F0080F12D02E
:100F3000DA6812F0080F0ED06FF008021A6104236D
:100F400023772368DB6913F0030F4ED02046FFF7A9
:100F5000B6FF0023237723681A6912F0100F12D00E
:100F6000DA6812F0100F0ED06FF010021A61082329
:100F700023772368DB6913F4407F3DD02046FFF7D9
:100F80009EFF0023237723681A6912F0010F03D014
:100F9000DA6812F0010F36D123681A6912F0800F57
:100FA00003D0DA6812F0800F34D123681A6912F086
:100FB000400F03D0DA6812F0400F32D123681A696B
:100FC00012F0200F03D0DA6812F0200F30D110BDDC
:100FD000FFF774FF2046FFF773FF8AE72046FFF70D
:100FE0006DFF2046FFF76CFF9BE72046FFF766FF8B
:100FF0002046FFF765FFACE72046FFF75FFF20467E
:10100000FFF75EFFBDE76FF001021A612046FFF7B0
:101010001DFCC1E76FF080021A61204600F073F9F1
:10102000C3E76FF040021A612046FFF74AFFC5E7A9
:101030006FF020021A61204600F064F9C7E7000053
:101040000368304A904212D0B0F1804F0FD0A2F521
:101050007C4290420BD002F58062904207D002F5AC
:101060008062904203D002F57842904203D123F08F
:1010700070034A681343234A90422AD0B0F1804F4C
:1010800027D0A2F57C42904223D002F580629042A4
:101090001FD002F5806290421BD002F57842904248
:1010A00017D002F57052904213D002F58062904240
:1010B0000FD002F5806290420BD0A2F59832904298
:1010C00007D002F58062904203D002F58062904220
:1010D00003D123F44073CA68134323F080034A69A1
:1010E000134303608B68C3620B688362054B9842AD
:1010F00003D003F58063984201D10B690363012398
:10110000436170470000014040B310B5044690F8B9
:101110003D30F3B1022384F83D30214651F8040BF1
:10112000FFF78EFF012384F8463084F83E3084F8C0
:101130003F3084F8403084F8413084F8423084F8FD
:10114000433084F8443084F8453084F83D30002042
:1011500010BD80F83C30FFF781FDDBE701207047D0
:1011600010B4846824F47F4C42EA03220A4342EA22
:101170000C0282605DF8044B704790F83C30012B04
:1011800078D010B50446012380F83C30022380F863
:101190003D300268936823F47F4323F07703936024
:1011A0000B68602B4CD029D8402B54D00CD9502B35
:1011B00022D1CA6849680068FFF70CFE50212068F8
:1011C000FFF72FFE002005E0202B0DD009D9302B92
:1011D0000AD00120012384F83D30002384F83C30FC
:1011E00010BD0BB1102B05D119462068FFF719FE71
:1011F0000020EFE70120EDE70120EBE7B3F5805F8A
:1012000034D0B3F5005F0CD1CB684A6889680068B8
:10121000FFF7A6FF2268936843F4804393600020A1
:10122000D8E7702B24D1CB684A6889680068FFF73B
:1012300097FF2268936843F0770393600020C9E723
:10124000CA6849680068FFF7D8FD60212068FFF789
:10125000E8FD0020BEE7CA6849680068FFF7BAFDEC
:1012600040212068FFF7DDFD0020B3E70020B1E753
:101270000120AFE70220704790F83C20012A3DD0C2
:1012800010B40346012280F83C20022280F83D2061
:1012900002685068946820F0700C086840EA0C00FE
:1012A00050601A68164882421AD0B2F1804F17D0A7
:1012B000A0F57C40824213D000F5806082420FD0BE
:1012C00000F5806082420BD000F57840824207D062
:1012D00000F57050824203D0A0F59430824204D1D0
:1012E00024F08004496821439160012283F83D2065
:1012F000002083F83C005DF8044B704702207047E3
:101300000000014070477047002800F0E08170B590
:1013100082B00446036813F0010F3BD09F4B9B68DB
:1013200003F00C03042B2CD09C4B9B6803F00C03A4
:10133000082B21D06368B3F5803F4FD0B3F5A02FC1
:1013400052D0964B1A6822F480321A601A6822F43E
:1013500080221A606368002B50D000F091FD054692
:101360008E4B1B6813F4003F14D100F089FD401B25
:101370006428F5D90320B1E1884B5B6813F4800F32
:10138000D8D0864B1B6813F4003F03D06368002B52
:1013900000F09F81236813F0020F54D07F4B9B68AD
:1013A00013F00C0F3ED07D4B9B6803F00C03082B11
:1013B00033D0E368002B68D0794B01221A6000F02B
:1013C0005FFD0546754B1B6813F0020F54D100F00A
:1013D00057FD401B0228F5D903207FE16F4A1368AF
:1013E00043F480331360B5E76C4B1A6842F48022F3
:1013F0001A601A6842F480321A60ABE700F040FDD0
:101400000546664B1B6813F4003FC3D000F038FD5F
:10141000401B6428F5D9032060E1604B5B6813F43E
:10142000800FC6D15D4B1B6813F0020F03D0E36839
:10143000012B40F05081594A136823F0F8032169C9
:1014400043EAC1031360236813F0080F42D06369B5
:101450006BB3534B0122C3F8802E00F011FD0546FB
:101460004E4B5B6F13F0020F34D100F009FD401BAF
:101470000228F5D9032031E1484A136823F0F80324
:10148000216943EAC1031360DDE7454B00221A607E
:1014900000F0F6FC0546414B1B6813F0020FD2D05A
:1014A00000F0EEFC401B0228F5D9032016E13C4B6E
:1014B0000022C3F8802E00F0E3FC0546374B5B6F3B
:1014C00013F0020F06D000F0DBFC401B0228F5D918
:1014D000032003E1236813F0040F77D02F4B1B6C1C
:1014E00013F0805F33D1002301932C4B1A6C42F030
:1014F00080521A641B6C03F080530193019B0125F9
:10150000284B1B6813F4807F23D0A368012B34D0B1
:10151000052B38D0214B1A6F22F001021A671A6F7F
:1015200022F004021A67A368002B3DD000F0A8FC4B
:1015300006461A4B1B6F13F0020F46D100F0A0FCB9
:10154000801B41F288339842F3D90320C6E000257E
:10155000D6E7144A136843F48073136000F090FCDC
:101560000646104B1B6813F4807FCED100F088FC38
:10157000801B0228F5D90320B0E0084A136F43F01E
:1015800001031367CFE7054B1A6F42F004021A6795
:101590001A6F42F001021A67C5E700BF0038024027
:1015A000000047420070004000F06AFC0646524BC3
:1015B0001B6F13F0020F08D000F062FC801B41F299
:1015C00088339842F3D9032088E0EDB9A369002B52
:1015D00000F08380484A926802F00C02082A51D039
:1015E000022B17D0454B00221A6600F049FC044636
:1015F000414B1B6813F0007F42D000F041FC001B00
:101600000228F5D9032069E03B4A136C23F080538C
:101610001364DBE7394B00221A6600F031FC054603
:10162000354B1B6813F0007F06D000F029FC401BEF
:101630000228F5D9032051E0E369226A1343626A64
:1016400043EA8213A26A5208013A43EA0243E26A79
:1016500043EA0263284A5360284B01221A6600F0CD
:101660000FFC0446244B1B6813F0007F06D100F0EA
:1016700007FC001B0228F5D903202FE000202DE0F5
:1016800000202BE0012B2BD01B4B5B6803F4800167
:10169000E269914226D103F03F02216A8A4223D1B6
:1016A000616A47F6C0721A40B2EB811F1ED103F483
:1016B0004031A26A5208013AB1EB024F18D103F04F
:1016C0007063E26AB3EB026F14D1002006E00120E0
:1016D0007047012002E0012000E0002002B070BD50
:1016E0000120FBE70120F9E70120F7E70120F5E7FA
:1016F0000120F3E70120F1E70038024000004742F3
:1017000070B588B00C46154600BB00230193204EEF
:10171000326B42F001023263326B02F0010201923D
:10172000019A4FF4807203920222049203220692DD
:101730000593079303A9174800F074F9B36823F0E1
:10174000EC6325431D43B56008B070BD00230293D0
:101750000F4E326B42F004023263326B02F004022D
:101760000292029A4FF40072039202220492032220
:1017700006920593079303A9074800F053F9B3684D
:1017800023F0784344EAC5041C43B460DCE700BF9F
:1017900000380240000002400008024008B5334B08
:1017A0009B6803F00C03042B5BD0082B5BD12F4B01
:1017B0005A6802F03F025B6813F4800F2CD02B4B69
:1017C0005868C0F388104FEA401CBCEB000C6EEB6D
:1017D0000E0E4FEA8E1343EA9C634FEA8C11B1EB75
:1017E0000C0163EB0E03DB0043EA5173C90011EBFC
:1017F000000C43F10003590200234FEA4C2041EA58
:10180000DC51FEF75DFD194B5B68C3F30143013307
:101810005B00B0FBF3F027E0144B5868C0F388106E
:101820004FEA401CBCEB000C6EEB0E0E4FEA8E1321
:1018300043EA9C634FEA8C11B1EB0C0163EB0E039E
:10184000DB0043EA5173C90011EB000C43F10003C4
:10185000990200234FEA8C2041EA9C51FEF730FDAB
:10186000D1E7034800E0034808BD00BF003802404C
:1018700000127A000024F400002800F09B8070B56C
:101880000D4604464F4B1B6803F007038B4208D2FA
:10189000CBB24C4A1370136803F007038B4240F03D
:1018A0008B80236813F0020F17D013F0040F04D0BD
:1018B000454A936843F4E0539360236813F0080F9C
:1018C00004D0414A936843F4604393603E4A93686E
:1018D00023F0F003A1680B439360236813F0010F1A
:1018E00032D06368012B21D09A1E012A25D9364AAD
:1018F000126812F0020F61D033498A6822F00302A5
:1019000013438B6000F0BCFA06462F4B9B6803F034
:101910000C036268B3EB820F16D000F0B1FA801BA3
:1019200041F288339842F0D9032042E0264A1268F7
:1019300012F4003FE0D101203BE0234A126812F08C
:10194000007FD9D1012034E01E4B1B6803F0070350
:10195000AB4207D9EAB21B4B1A701B6803F00703AE
:10196000AB422DD1236813F0040F06D0164A9368BA
:1019700023F4E053E1680B439360236813F0080FEE
:1019800007D0114A936823F46043216943EAC103F5
:101990009360FFF703FF0C4B9B68C3F303130B4AE1
:1019A000D35CD8400A4B18600A4B186800F01CFA48
:1019B000002070BD012070470120FAE70120F8E700
:1019C0000120F6E7003C024000380240B037000832
:1019D0000800002004000020014B1868704700BF79
:1019E0000800002008B5FFF7F7FF044B9B68C3F31E
:1019F0008223034AD35CD84008BD00BF00380240B0
:101A0000A837000808B5FFF7E7FF044B9B68C3F34E
:101A10004233034AD35CD84008BD00BF00380240BF
:101A2000A837000800230F2B00F2E98070B582B0C0
:101A300065E085684FEA430E032404FA0EF425EAB4
:101A40000405CC6804FA0EF42C438460446824EA4C
:101A500002044A68C2F300129A40224342605CE0EA
:101A6000DC08083450F8242003F00705AD004FF0DF
:101A70000F0E0EFA05FE22EA0E0E0A69AA4042EA8D
:101A80000E0240F824205CE0072200E0002202FA67
:101A90000EF22A4302345A4D45F82420594A9468DC
:101AA0006FEA0C0224EA0C054E6816F4801F01D080
:101AB0004CEA0405534CA560E46802EA04054E684C
:101AC00016F4001F01D04CEA04054E4CE560646832
:101AD00002EA04054E6816F4003F01D04CEA040502
:101AE000484C6560246822404D6815F4803F01D061
:101AF0004CEA0402434C226001330F2B7DD80122B3
:101B00009A400C6804EA020C32EA0404F4D14C68EE
:101B100004F00304013C012C8BD94A6802F0030253
:101B2000032A09D0C4685D000322AA4024EA020403
:101B30008A68AA402243C2604A6802F00302022A6D
:101B40008ED004684FEA430E032202FA0EF224EA12
:101B500002044A6802F0030202FA0EF22243026013
:101B60004A6812F4403FC7D000220192264A546CC2
:101B700044F480445464526C02F480420192019A0D
:101B80009C08A51C1E4A52F8255003F0030E4FEA8C
:101B90008E0E0F2202FA0EF225EA02051B4A90422F
:101BA0003FF474AF02F5806290421AD002F5806271
:101BB000904218D002F58062904216D002F5806201
:101BC000904214D002F58062904212D002F58062F9
:101BD000904210D002F5806290423FF455AF082247
:101BE00055E7012253E7022251E703224FE704227F
:101BF0004DE705224BE7062249E702B070BD70476A
:101C000000380140003C0140003802400000024022
:101C10000369194201D001207047002070470AB1C2
:101C200081617047090481617047436901EA0302D9
:101C300021EA030141EA02418161704770B504461F
:101C4000866D00F01DF994F83530DBB2022B06D01A
:101C500080236365002384F83430012070BD05467D
:101C60002268136823F0160313602268536923F077
:101C700080035361236CE3B12268136823F00803E7
:101C800013602268136823F00103136023681B6844
:101C900013F0010F11D000F0F3F8431B052BF5D919
:101CA00020236365032084F83500002384F8343052
:101CB000D4E7A36C002BDFD1E3E7E26D3F23934031
:101CC000B360012384F83530002084F83400C5E780
:101CD00090F83530DBB2022B03D08023436501201E
:101CE0007047052380F835300268136823F001033C
:101CF0001360002070470000002808DB0901C9B20A
:101D000000F1604000F5614080F80013704700F07A
:101D10000F000901C9B2014B1954704714ED00E0DE
:101D200000B500F00700C0F1070CBCF1040F28BF9C
:101D30004FF0040C031D062B0FD9C31E4FF0FF3EBE
:101D40000EFA0CF021EA000199400EFA03FE22EA95
:101D50000E0241EA02005DF804FB0023EEE70000FA
:101D6000074AD36823F4E0631B041B0C000200F451
:101D7000E060034343F0BF6343F40033D360704734
:101D800000ED00E010B50446054BD868C0F3022012
:101D9000FFF7C6FF01462046FFF7AEFF10BD00BFAC
:101DA00000ED00E0002807DB00F01F0240090123DE
:101DB0009340024A42F82030704700BF00E100E043
:101DC0000138B0F1807F0BD24FF0E0235861054A13
:101DD000F02182F823100020986107221A617047D1
:101DE0000120704700ED00E010B504460E4B1A7854
:101DF0004FF47A73B3FBF2F30C4A1068B0FBF3F0C4
:101E0000FFF7DEFF68B90F2C01D901200AE000229C
:101E100021464FF0FF30FFF7B5FF054B1C60002057
:101E200000E0012010BD00BF0000002008000020DD
:101E30000400002008B50B4B1A6842F400721A60C7
:101E40001A6842F480621A601A6842F480721A605A
:101E50000320FFF785FF0F20FFF7C6FFFEF7E2FE26
:101E6000002008BD003C0240034A1168034B1B7868
:101E70000B441360704700BFC00100200000002029
:101E8000014B1868704700BFC001002038B50446F8
:101E9000FFF7F6FF0546B4F1FF3F02D0044B1B7875
:101EA0001C44FFF7EDFF401BA042FAD338BD00BF32
:101EB00000000020034AD2F8883043F47003C2F8CF
:101EC0008830704700ED00E0026802F10C0353E82F
:101ED000003F23F490730C3242E800310029F3D123
:101EE000026802F1140353E8003F23F001031432A7
:101EF00042E800310029F3D1036B012B05D02023E8
:101F000080F83E30002303637047026802F10C033F
:101F100053E8003F23F010030C3242E8003100295F
:101F2000F3D1ECE790F83D30DBB2212B01D0022059
:101F300070478368B3F5805F17D0036A5A1C02624A
:101F40001A7803685A60C38C9BB2013B9BB2C3846E
:101F50004BB90268D36823F08003D3600268D3686A
:101F600043F04003D360002070470369002BE4D1A5
:101F7000036A1B880268C3F308035360036A0233D1
:101F80000362E0E710B504460268136923F4405386
:101F9000C1680B431361836802691A4343691A439A
:101FA000C3691A430168CB6823F4164323F00C037A
:101FB0001343CB600268536923F4407381690B4378
:101FC00053610368314A934206D002F5806293421E
:101FD00002D0FFF707FD01E0FFF714FDE369B3F559
:101FE000004F29D00021031849411B1841F100017D
:101FF000C90041EA5371DB00181863684FEA830295
:102000004FEA937341F10001FEF75AF9204AA2FB0F
:1020100000314909642303FB11031B013233A2FB86
:1020200003235B0903F0F00202EB011203F00F033C
:10203000216813448B6010BD0023021843EB030199
:10204000121841F10001C90041EA5271D200101882
:1020500041F10001626892185B41FEF731F90C4AC8
:10206000A2FB00314909642303FB1103DB00323377
:10207000A2FB03235B095A0002F4F87202EB01127F
:1020800003F00703216813448B60D4E7001001407C
:102090001F85EB512DE9F84305460F461646994634
:1020A000DDF820802B681C6837EA04040CBF01248B
:1020B0000024B4422DD1B8F1FF3FF3D0B8F1000FA6
:1020C00005D0FFF7DDFEA0EB09004045EAD92A68FC
:1020D00002F10C0353E8003F23F4D0730C3242E8C2
:1020E00000310029F3D12A6802F1140353E8003FBC
:1020F00023F00103143242E800310029F3D12023F8
:1021000085F83D3085F83E30002385F83C300320CB
:1021100000E00020BDE8F88358B310B5044690F8FD
:102120003D300BB3242384F83D302268D36823F478
:102130000053D3602046FFF725FF2268136923F47C
:10214000904313612268536923F02A035361226884
:10215000D36843F40053D36000202064202384F824
:102160003D3084F83E3010BD80F83C30FEF7B0FDC5
:10217000D8E7012070472DE9F04182B01E4690F863
:102180003D30DBB2202B54D104460D469046002949
:1021900053D0002A53D090F83C30012B51D001236A
:1021A00080F83C3000230364212380F83D30FFF7A2
:1021B00067FE0746A4F82480A4F82680A368B3F538
:1021C000805F05D04FF00008002384F83C3012E017
:1021D000236913B14FF00008F6E7A8460025F3E79E
:1021E00038F8023B2268C3F308035360E28C92B2D2
:1021F000013A92B2E284E38C9BB273B100963B4603
:10220000002280212046FFF745FFE0B9002DE7D0EE
:1022100015F8012B23685A60E8E700963B46002238
:1022200040212046FFF736FF78B9202384F83D305F
:1022300000E0022002B0BDE8F0810120FAE70120B1
:10224000F8E70220F6E70320F4E70320F2E72DE9A0
:10225000F04182B01E4690F83E30DBB2202B5CD1BC
:1022600004460D46904600295BD0002A5BD090F8CA
:102270003C30012B59D0012380F83C30002303640B
:10228000222280F83E200363FFF7FAFD0746A4F8F8
:102290002C80A4F82E80A368B3F5805F05D04FF0A2
:1022A0000008002384F83C3017E0236913B14FF095
:1022B0000008F6E7A8460025F3E723685B68C3F348
:1022C000080328F8023B03E023685B682B700135A4
:1022D000E28D92B2013A92B2E285E38D9BB2BBB13C
:1022E00000963B46002220212046FFF7D3FEF0B99E
:1022F000002DE2D0A368B3F5805FE5D013B9236960
:10230000002BE1D023685B6803F07F032B70DEE7CE
:10231000202384F83E30002000E0022002B0BDE817
:10232000F0810120FAE70120F8E70220F6E7032018
:10233000F4E790F83D30DBB2202B19D1D1B1DAB1FE
:1023400090F83C30012B19D0012380F83C30016219
:102350008284C28400230364212280F83D2080F817
:102360003C300168CA6842F08002CA601846704773
:1023700002207047012070470120704702207047FB
:10238000704708B50168CA6822F04002CA6020227E
:1023900080F83D20FFF7F4FF002008BD704770472C
:1023A00008B5806B0023C385C384FFF7F8FF08BD21
:1023B000704790F83E30DBB2222B67D18368B3F5CB
:1023C000805F4DD0826AB3F5805F04D0002B54D17A
:1023D0000369002B51D103685B681370836A013372
:1023E0008362C38D9BB2013B9BB2C385002B4FD14F
:1023F00000B583B00268D36823F02003D36002687D
:10240000D36823F48073D3600268536923F0010317
:102410005361202380F83E30036B012B33D100231E
:102420000363026802F10C0353E8003F23F010033A
:102430000C3242E800310029F3D103681A6812F027
:10244000100F06D0002201921A6801925B68019376
:10245000019B818DFFF7ACFF002003B05DF804FB0A
:102460000269002AAED1826A03685B68C3F308037D
:102470001380836A02338362B3E703685B6803F007
:102480007F031370AAE7FFF789FFE5E70220704793
:102490000020704710B582B0044602681368D06807
:1024A000516913F00F0F09D113F0200F0CD010F069
:1024B000200F09D02046FFF77CFF16E011F0010144
:1024C00015D110F4907F12D1216B012979D013F02E
:1024D000800F03D010F0800F40F0108113F0400FF8
:1024E00003D010F0400F40F00D8102B010BD13F08A
:1024F000010F06D010F4807F03D0226C42F001025D
:10250000226413F0040F04D019B1226C42F00202CD
:10251000226413F0020F04D019B1226C42F00402BD
:10252000226413F0080F07D010F0200F00D119B16A
:10253000226C42F008022264226C002AD5D013F0EB
:10254000200F02D010F0200F29D123685B6903F01F
:102550004003226C12F0080F00D163B32046FFF74E
:10256000B3FC23685B6913F0400F20D0226802F1AE
:10257000140353E8003F23F04003143242E80031D3
:102580000029F3D1A36B73B1604A1A65A06BFFF702
:102590009FFB0028A9D0A06B036D9847A5E72046B4
:1025A000FFF707FFD1E72046FFF7F9FE9DE720463A
:1025B000FFF7F5FE99E72046FFF7F1FE00232364BD
:1025C00093E713F0100F82D010F0100F3FF47FAF9D
:1025D000002301931368019353680193019B53698E
:1025E00013F0400F50D0A26B13685B689BB2002BB6
:1025F0003FF47BAFA18D99427FF677AFE385D36936
:10260000B3F5807F37D0226802F10C0353E8003F16
:1026100023F480730C3242E800310029F3D12268A0
:1026200002F1140353E8003F23F00103143242E89F
:1026300000310029F3D1226802F1140353E8003F6E
:1026400023F04003143242E800310029F3D1202363
:1026500084F83E3000232363226802F10C0353E820
:10266000003F23F010030C3242E800310029F3D17F
:10267000A06BFFF7E3FAA18DE38D9BB2C91A89B273
:102680002046FFF795FE30E7A18DE38D9BB2C91A76
:1026900089B2E38D9BB2002B3FF427AF00293FF4B2
:1026A00024AF226802F10C0353E8003F23F4907337
:1026B0000C3242E800300028F3D1226802F1140302
:1026C00053E8003F23F00103143242E800300028B1
:1026D000F3D1202384F83E3000232363226802F1E3
:1026E0000C0353E8003F23F010030C3242E80030A3
:1026F0000028F3D12046FFF75BFEF6E62046FFF701
:1027000011FCF2E62046FFF73CFEEEE6A1230008AE
:1027100090F83D3090F83E0018437047DFF834D011
:102720000D480E490E4A002302E0D458C450043329
:10273000C4188C42F9D30B4A0B4C002301E0136000
:102740000432A242FBD3FFF7B5FB00F011F8FEF70D
:10275000C3F9704700000220000000207000002034
:102760006838000870000020D4010020FEE7000057
:1027700070B50D4D0D4C641BA4100026A64209D166
:102780000B4D0C4C00F0A6FF641BA4100026A642C3
:1027900005D170BD55F8043B98470136EEE755F872
:1027A000043B98470136F2E76038000860380008BB
:1027B000603800086438000802440346934200D1A0
:1027C000704703F8011BF9E70FB40A4B13B51C68F7
:1027D00024B1A36913B9204600F022FA05AB049A8C
:1027E000A1680193204600F0DDFB02B0BDE8104077
:1027F00004B070470C00002070B50E46054618B1B5
:1028000083690BB900F00CFAAB69AC6813B92846C0
:1028100000F006FA234B9C4217D16C68A3891B0772
:102820001DD52369DBB1013EA36816F8011F013BEA
:10283000A360E9B9002B2EDA22460A21284600F0CF
:102840003FF8013011D00A2011E0174B9C4201D112
:10285000AC68E3E7154B9C4208BFEC68DEE7214615
:10286000284600F07FF80028DDD04FF0FF3070BD23
:10287000002B04DAA2699A4206DC0A2904D02368F4
:102880005A1C22601970CFE72246284600F018F83B
:102890000130C9D1E9E723680A205A1C2260187068
:1028A000E5E700BFE437000804380008C437000833
:1028B000024B01461868FFF79FBF00BF0C000020C5
:1028C000F8B50E461446054618B183690BB900F0F9
:1028D000A7F9214B9C422BD16C68A369A360A38903
:1028E0001A072FD523696BB323692068C01A63695F
:1028F000F6B28342374604DC2146284600F026F92A
:1029000030BBA368013BA36023685A1C22601E7081
:1029100063690130834204D0A389DB0706D50A2E00
:1029200004D12146284600F011F988B93846F8BD8F
:102930000A4B9C4201D1AC68CFE7094B9C4208BFCF
:10294000EC68CAE72146284600F00CF80028CBD0F6
:102950004FF0FF37EAE700BFE4370008043800080B
:10296000C4370008324B70B51D6806460C4625B1C9
:10297000AB6913B9284600F053F92E4B9C420FD196
:102980006C68A389B4F90C2019072CD4DD0611D486
:102990000923336042F04003A3814FF0FF303EE053
:1029A000254B9C4201D1AC68EBE7244B9C4208BF0D
:1029B000EC68E6E7580712D5616B41B104F14403B6
:1029C000994202D0304600F01DFA00236363A389C8
:1029D00023F02403A3810023636023692360A38978
:1029E00043F00803A38123694BB9A38903F420733F
:1029F000B3F5007F03D02146304600F0C3F9A0892B
:102A0000B4F90C2010F001030AD00023A36063691D
:102A10005B42A361236943B910F08000BAD170BD55
:102A2000810758BF6369A360F4E70020F7E700BFA0
:102A30000C000020E437000804380008C437000800
:102A40008A892DE9F041054610070C4658D44B6899
:102A5000002B05DC0B6C002B02DC0020BDE8F081B4
:102A6000E66A002EF9D0002312F480522F68216A02
:102A70002B6032D0606DA3895A0705D56368C01AF0
:102A8000636B0BB1236CC01A00230246E66A216A0D
:102A90002846B047431CA38906D129681D292BD895
:102AA000294A0A41D60727D400226260D904226944
:102AB000226004D5421C01D12B6803B96065616BAB
:102AC0002F600029C9D004F14403994202D028465E
:102AD00000F098F900206063C0E701232846B04762
:102AE000411CC8D12B68002BC5D01D2B01D0162B43
:102AF00001D12F60B1E7A38943F04003A381ADE783
:102B00000F69002FA9D093070E6808BF4B690F60AB
:102B100018BF0023A6EB07088B60B8F1000F9CDDFF
:102B2000216AA66A43463A462846B047002806DC92
:102B3000A38943F04003A3814FF0FF308EE70744A1
:102B4000A8EB0008E9E700BFFEFFBFDF38B50B695F
:102B500005460C46DBB118B183690BB900F060F88B
:102B60000C4B9C4209D16C68B4F90C307BB1214606
:102B70002846BDE83840FFF763BF074B9C4201D1B0
:102B8000AC68F1E7054B9C4208BFEC68ECE700201D
:102B900038BD00BFE437000804380008C437000817
:102BA000002310B50446C0E90033C0E90433836054
:102BB00081814366C2818361194608225C30FFF738
:102BC000FBFD054B6362054BA362054BE362054BBE
:102BD0002462236310BD00BF0D3500082F350008A7
:102BE000673500088B350008014900F085B800BF43
:102BF0004D2B000870B568234D1E5D430E4605F150
:102C0000740100F04BF9044640B10021C0E9001600
:102C10000C30A06005F16802FFF7CEFD204670BDC4
:102C2000836910B5044633BBC0E912330365124B08
:102C3000124A1B688262984204BF0123836100F03C
:102C40001FF86060204600F01BF8A060204600F0EE
:102C500017F80022E06004216068FFF7A1FFA06878
:102C600001220921FFF79CFFE06802221221FFF7F1
:102C700097FF0123A36110BDC0370008E92B0008AE
:102C8000F8B51B4B1E68B369074613B93046FFF70A
:102C9000C7FF4836D6E90134013B03D53368DBB1C1
:102CA0003668F7E7B4F90C50A5B9124B6566C4E96C
:102CB0000055C4E90335C4E90555A5600822294635
:102CC00004F15C00FFF778FDC4E90D55C4E9125525
:102CD0002046F8BD6834DFE704213846FFF78AFF55
:102CE000044630600028DBD10C233B60F0E700BFD6
:102CF000C03700080100FFFF2DE9F843064688466B
:102D000000F148040027D4E90195B9F1010905D57E
:102D10002468002CF7D13846BDE8F883AB89012B35
:102D200007D9B5F90E30013303D029463046C047E4
:102D300007436835E9E770B50C46B1F90E10002974
:102D400096B015461E460DDAA38913F0800F4FF09A
:102D500000010CBF4FF480634023002031602B60E2
:102D600016B070BD6A4600F037FC0028ECDB019914
:102D700001F47041A1F50053594259414FF4806369
:102D8000EBE700008B8973B59D0706460C4607D517
:102D900004F14703236023610123636102B070BD26
:102DA00001AB6A46FFF7C7FF00990546304600F0C1
:102DB00075F848B9B4F90C309A05EFD423F0030341
:102DC00043F00203A381E3E70D4BB362A3892060C4
:102DD00043F08003A381009B6361019B20615BB191
:102DE000B4F90E10304600F009FC28B1A38923F095
:102DF000030343F00103A381A3891D43A581CDE70C
:102E0000E92B000837B5002944D051F8043C019063
:102E1000002BA1F10404B8BFE41800F011FC1E4A15
:102E20000198136833B96360146003B0BDE83040A3
:102E300000F007BCA34208D9256861198B4201BF85
:102E400019685B6849192160EDE71A465B680BB1A8
:102E5000A342FAD911685518A5420BD12468214420
:102E60005418A3421160E0D11C685B6853600C44A5
:102E70001460DAE702D90C230360D6E725686119EC
:102E80008B4204BF19685B68636004BF4919216005
:102E90005460CAE703B030BDC4010020F8B5CD1CB2
:102EA00025F0030508350C2D38BF0C25002D0646EE
:102EB00001DBA94203D90C2333600020F8BD00F0E8
:102EC000BFFB21490A6814469CB9204F3B6823B9CF
:102ED0002146304600F00AFB38602946304600F0B3
:102EE00005FB431C23D10C233360304600F0A9FBC3
:102EF000E3E723685B1B17D40B2B03D923601C4427
:102F0000256004E06368A2420CBF0B60536030464A
:102F100000F097FB04F10B00231D20F00700C21AFC
:102F2000CCD01B1AA350C9E722466468CCE7C41C66
:102F300024F00304A042E3D0211A304600F0D6FA70
:102F40000130DDD1CFE700BFC4010020C80100205F
:102F50009368013B002B10B4936008DA9469A34294
:102F600001DB0A2903D15DF8044BFFF7A9BC136804
:102F7000581C1060197008465DF8044B7047F8B58E
:102F800006460F461446D518AC4201D1002007E092
:102F900014F8011B3A463046FFF7DAFF431CF3D121
:102FA000F8BD00002DE9F04F0D469DB0144698463F
:102FB000064618B183690BB9FFF732FE7B4B9D4281
:102FC00061D17568AB891B0767D52B69002B64D06D
:102FD0000023099320238DF82930CDF80C8030236D
:102FE000DFF8CC818DF82A304FF0010923469A464C
:102FF00013F8012B0AB1252AF9D1BAEB040B0BD037
:103000005B46224629463046FFF7B9FF013000F003
:10301000BF80099A5A4409929AF80030002B00F0B8
:10302000B78000234FF0FF32CDE905230AF1010AF2
:10303000049307938DF853301A935446052214F8DD
:10304000011B5B48FDF7ECF8049A002830D1D0064C
:1030500044BF20238DF85330110744BF2B238DF834
:1030600053309AF800302A2B2AD0079A5446002071
:103070004FF00A0C214611F8013B303B092B62D975
:1030800058B3079229E04B4B9D4201D1B56899E7AF
:10309000494B9D4208BFF56894E729463046FFF743
:1030A00061FC002894D04FF0FF301DB0BDE8F08FD8
:1030B000A0EB080309FA03F313430493A246BCE709
:1030C000039B191D1B680391002BBBBF5B4242F0A1
:1030D000020207930793B8BF049223782E2B0CD1DA
:1030E00063782A2B34D1039B1A1D1B680392002B93
:1030F000B8BF4FF0FF3302340593DFF8CCA021783E
:1031000003225046FDF78CF838B1049BA0EB0A006F
:103110004022824013430134049314F8011B2748D2
:103120008DF828100622FDF77BF8002835D0244BB7
:103130001BBB039B073323F0070308330393099B4F
:103140003B44099352E70CFB02320C46012091E705
:1031500000230134059319464FF00A0C204610F85D
:10316000012B303A092A03D9002BC6D00591C4E7B8
:103170000CFB012104460123F0E703AB00932A4630
:10318000104B04A93046AFF30080421C0746D6D14D
:10319000AB895B0687D4099887E703AB00932A467F
:1031A000084B04A9304600F07FF8EEE7E43700084A
:1031B0002438000804380008C43700082E380008F6
:1031C000000000007F2F00082A3800082DE9F04792
:1031D000164699468A680B69DDF820809342B8BF8D
:1031E0001346336091F8432007460C460AB1013379
:1031F00033602368990642BF336802333360256821
:1032000015F0060506D104F1190AE36832689B1A25
:10321000AB4226DC94F84320131E226818BF01231A
:1032200092062BD404F1430249463846C047013088
:103230001ED02368226903F00603042B02BFE56851
:103240003368ED1AA3680CBF25EAE57500259342A3
:10325000C4BF9B1AED1800261A34B5421AD10020BB
:1032600008E00123524649463846C047013003D1A1
:103270004FF0FF30BDE8F0870135C6E7E1185A1C72
:10328000302081F84300224494F8451082F843101E
:103290000233C7E70123224649463846C04701307A
:1032A000E6D00136D9E700002DE9FF470F7E0C9DDF
:1032B000782F914680460C469A4601F1430207D882
:1032C000622F0AD8002F00F0D480582F00F0C08061
:1032D00004F1420584F842703AE0A7F16303152B2C
:1032E000F6D801A151F823F0413300085533000806
:1032F000D1320008D1320008D1320008D1320008A2
:1033000055330008D1320008D1320008D13200080C
:10331000D132000859340008813300081334000802
:10332000D1320008D13200087B340008D1320008C5
:1033300081330008D1320008D13200081B34000864
:103340002B681A1D1B682A6004F1420584F842307C
:1033500001239FE020682B68070603F10401296020
:1033600001D51E6803E04606FBD5B3F90060002EC8
:1033700003DA2D23764284F843305A480A2312E0B8
:103380002B682068191D2960050601D51E6802E01A
:103390004106FBD51E8853486F2F0CBF08230A2314
:1033A000002184F843106568A560002DA2BF216844
:1033B00021F0040121600EB9002D4BD01546B6FB5B
:1033C000F3F103FB1167C75D05F8017D3746BB428A
:1033D0000E46F4D9082B0BD12368DE0708D52369E4
:1033E00061689942DEBF302305F8013C05F1FF35E5
:1033F000521B2261CDF800A04B4603AA214640464D
:10340000FFF7E4FE01304AD14FF0FF3004B0BDE8D1
:10341000F087236843F0200323603348782784F83B
:103420004570236829681F0651F8046B02D45F06B3
:1034300048BFB6B2DF0748BF43F02003296048BF4A
:1034400023601EB9236823F0200323601023A7E71D
:103450002448E4E71546BDE72B6826686169181D16
:10346000286035061B6801D5196002E07006FBD59F
:103470001980002323611546BCE72B681A1D2A60BA
:103480001D68626800212846FCF7CAFE08B1401B8F
:10349000606063682361002384F84330AAE72369EE
:1034A0002A4649464046D0470130ADD023689B07A5
:1034B00013D4E068039B9842B8BF1846A6E70123DF
:1034C000324649464046D04701309DD00135E36839
:1034D00003995B1AAB42F2DCEBE7002504F1190615
:1034E000F5E700BF353800084638000838B5064D06
:1034F0000023044608462B6000F0DEF8431C02D18E
:103500002B6803B1236038BDCC01002010B50C46F8
:10351000B1F90E1000F096F80028ABBF636DA389D7
:103520001B1823F48053ACBF6365A38110BD2DE944
:10353000F0411F468B89DB0505460C46164605D52E
:10354000B1F90E100223002200F068F8A389B4F943
:103550000E1023F48053A38132463B462846BDE833
:10356000F04100F017B810B50C46B1F90E1000F09C
:1035700055F8431CA38915BF606523F4805343F4B9
:103580008053A38118BFA38110BDB1F90E1000F0C4
:1035900013B8000038B5074D04460846114600220E
:1035A0002A601A46FDF780F9431C02D12B6803B14B
:1035B000236038BDCC01002038B5064D00230446F9
:1035C00008462B6000F050F8431C02D12B6803B171
:1035D000236038BDCC01002038B5074D00230446D8
:1035E000084611462B6000F047F8431C02D12B68B7
:1035F00003B1236038BD00BFCC01002038B5064DB3
:103600000023044608462B6000F03EF8431C02D11C
:103610002B6803B1236038BDCC01002038B5074DBD
:1036200004460846114600222A601A4600F034F883
:10363000431C02D12B6803B1236038BDCC010020AC
:103640007047704738B5074D0446084611460022BA
:103650002A601A4600F028F8431C02D12B6803B1F7
:10366000236038BDCC010020024B58221A604FF075
:10367000FF307047CC010020024B58221A604FF0F7
:10368000FF307047CC010020024B58221A60002006
:10369000704700BFCC010020024B58221A604FF047
:1036A000FF307047CC010020024B58221A604FF0C7
:1036B000FF307047CC010020044A05491368002BF5
:1036C00008BF0B461844106018467047D001002010
:1036D000D8010020F8B500BFF8BC08BC9E46704772
:0C36E000F8B500BFF8BC08BC9E4670475F
:1036EC005AA50582510300BE000000000000000036
:1036FC00000000005075736865642027256327203F
:10370C0028436F6C3A25752C20526F773A25752912
:10371C000A00000057726F6E6720436F756E7465F8
:10372C00722070696E732120000000004B65795087
:10373C006164000048656C6C6F2C202573210A00B5
:10374C005553415254330000466F72206D657373AC
:10375C0061676573207765207573696E672C20250A
:10376C00730A00004D61792062652057452072650F
:10377C00616465642C2025752E0A00005AA504830B
:10378C005103010023393633303835322A3734317E
:10379C0052715544514C65646362616400000000D1
:1037AC0001020304000000000000000001020304F9
:1037BC0006070809100000200000000000000000AF
:1037CC0000000000000000000000000000000000ED
:1037DC0000000000000000000000000000000000DD
:1037EC0000000000000000000000000000000000CD
:1037FC0000000000000000000000000000000000BD
:10380C0000000000000000000000000000000000AC
:10381C000000000000000000232D302B2000686CFD
:10382C004C006566674546470030313233343536D7
:10383C003738394142434445460030313233343510
:0C384C003637383961626364656600003D
:0838580098CAFF7F0100000087
:04386000F901000862
:04386400D101000886
:1038680001000000100000000024F40010000020F7
:1038780000000000E437000804380008C4370008D6
:103888000000000000000000000000000000000030
:103898000000000000000000000000000000000020
:1038A8000000000000000000000000000000000010
:1038B8000000000000000000000000000000000000
:1038C80000000000000000000000000000000000F0
:040000050800271DAB
:00000001FF
