:020000040800F2
:1000000000000220C1260008BD0C0008BF0C00083B
:10001000C10C0008C30C0008C50C0008000000005B
:10002000000000000000000000000000C70C0008F5
:10003000C90C000800000000CB0C0008CD0C000823
:1000400011270008112700081127000811270008B0
:1000500011270008112700081127000811270008A0
:100060001127000811270008112700081127000890
:100070001127000811270008112700081127000880
:100080001127000811270008112700081127000870
:100090001127000811270008112700081127000860
:1000A0001127000811270008112700081127000850
:1000B00011270008D50C0008112700081127000897
:1000C0001127000811270008112700081127000830
:1000D0001127000811270008112700081127000820
:1000E0001127000811270008112700081127000810
:1000F0001127000811270008112700081127000800
:100100001127000811270008E50C00081127000836
:1001100011270008F50C0008112700081127000816
:1001200011270008112700081127000811270008CF
:10013000112700080000000000000000112700083F
:1001400011270008112700081127000811270008AF
:10015000112700081127000811270008112700089F
:10016000112700081127000811270008112700088F
:1001700011270008112700080000000000000000FF
:080180001127000811270008F7
:100190000348044B834202D0034B03B11847704716
:1001A0006800002068000020000000000548064BA1
:1001B0001B1AD90F01EBA301491002D0034B03B165
:1001C0001847704768000020680000200000000009
:1001D00010B5064C237843B9FFF7DAFF044B13B18F
:1001E0000448AFF300800123237010BD6800002095
:1001F000000000007C36000808B5044B1BB1044920
:100200000448AFF30080BDE80840CFE700000000DD
:100210006C0000207C360008000000000000000098
:1002200001F0FF01102A2BDB10F0070F08D010F8A7
:10023000013B013A8B422DD010F0070F42B3F6D1AB
:10024000F0B441EA012141EA014122F007047FF0C4
:1002500000070023F0E80256083C85EA010586EA1B
:10026000010685FA47F5A3FA87F586FA47F6A5FA57
:1002700087F68EB9EED1F0BC01F0FF0102F0070263
:1002800032B110F8013B013A83EA010313B1F8D10E
:100290000020704701387047002D06BF35460338EF
:1002A000073815F0010F07D1013015F4807F02BF28
:1002B000013015F4C03F0130F0BC0138704700BF79
:1002C00053B94AB9002908BF00281CBF4FF0FF31BD
:1002D0004FF0FF3000F06AB9ADF1080C6DE904CEC3
:1002E00000F006F8DDF804E0DDE9022304B0704711
:1002F0002DE9F047089D0E4604460F46002B4AD1D3
:1003000094468C45B2FA82F260D942B1C2F1200320
:10031000974020FA03F30CFA02FC1F4394404FEA83
:100320001C4E1FFA8CF6B7FBFEF1230C0EFB117767
:1003300043EA074301FB06F098420AD91CEB03038A
:1003400001F1FF3780F01581984240F212810239A5
:1003500063441B1AA4B2B3FBFEF00EFB103344EA55
:10036000034400FB06F6A6420AD91CEB040400F184
:10037000FF3380F00081A64240F2FD8064440238E1
:1003800040EA0140A41B00211DB1D4400023C5E96F
:100390000043BDE8F0878B4205D90DB1C5E90001E6
:1003A00000210846F5E7B3FA83F1002946D1B342AC
:1003B00002D3824200F2F580841A66EB0302012028
:1003C0001746002DE5D0C5E90047E2E7002A40F0D6
:1003D0009380A1EB0C034FEA1C471FFA8CFE01210E
:1003E000B3FBF7F607FB1630230C43EA00430EFB82
:1003F00006F0984208D91CEB030306F1FF3802D23D
:10040000984200F2D08046461B1AA4B2B3FBF7F024
:1004100007FB103344EA03440EFB00FEA64508D94F
:100420001CEB040400F1FF3302D2A64500F2B680B3
:100430001846A4EB0E0440EA0640A5E7C1F12007E8
:100440008B4022FA07FC4CEA030C06FA01FE20FA64
:1004500007F426FA07F344EA0E0400FA01F84FEA1B
:100460001C404FEA1449B3FBF0FE1FFA8CF600FB68
:100470001E3349EA03430EFB06F9994502FA01F2DD
:100480000BD91CEB03030EF1FF3A80F085809945F0
:1004900040F28280AEF1020E6344A3EB0909A4B2DC
:1004A000B9FBF0F300FB139944EA094403FB06F699
:1004B000A64208D91CEB040403F1FF3068D2A6421F
:1004C00066D9023B644443EA0E40A41BA0FB02E64B
:1004D000B4427346B14652D34FD05DB1B8EB03027C
:1004E00064EB090404FA07F722FA01F31F43CC4036
:1004F000C5E9007400214CE7C2F1200120FA01F3A4
:100500000CFA02FC26FA01F1964033434FEA1C47ED
:100510001FFA8CFEB1FBF7F007FB1016190C41EA2D
:10052000064100FB0EF68E4204FA02F408D91CEBD9
:10053000010100F1FF382DD28E422BD902386144DF
:10054000891B9BB2B1FBF7F607FB161143EA014387
:1005500006FB0EF1994208D91CEB030306F1FF38A4
:1005600014D2994212D9023E63445B1A46EA004112
:1005700036E73946EDE6184602E7F045ADD2BEEB68
:10058000020366EB0C060138B146A6E74646ECE7E7
:10059000034698E74046D3E7D6467EE764440238F0
:1005A00047E708460DE7023E63442DE7704700BF6A
:1005B00070B58AB0002405940694079408940994B1
:1005C0000094324B1A6B42F004021A631A6B02F069
:1005D00004020092009A01941A6B42F080021A639E
:1005E0001A6B02F080020192019A02941A6B42F097
:1005F00002021A631A6B02F002020292029A039438
:100600001A6B42F001021A631A6B02F001020392A4
:10061000039A04941A6B42F008021A631B6B03F0EE
:1006200008030493049B1A4D224642F20F01284608
:1006300001F065FB4FF400530593012606960794DD
:10064000089405A9284601F05DFA0F230593069644
:100650000794089605A9284601F054FA4FF47C73D4
:10066000059306940226079605A9284601F04AFA42
:100670004FF480730593069607940894099405A98E
:10068000044801F03FFA0AB070BD00BF00380240D4
:100690000008024000000240074B03EB80035B5C54
:1006A000DBB2022B06D8044A02EB8002535C013312
:1006B000DBB25354704700BF9C01002038B505469B
:1006C0000C460E4B03EB80035B5CDBB2022B05D8C0
:1006D0000A4B03EB850300221A5538BD084B03EB88
:1006E0008003595C074B1970074B00221A70431C9A
:1006F000621C064802F0D0F8EAE700BF9C01002027
:100700001437000802000020010000209C36000879
:1007100010B5044610212D4801F0EAFA012838D01E
:1007200021460020FFF7CAFF2021284801F0E0FA07
:10073000012833D021460120FFF7C0FF4021234884
:1007400001F0D6FA01282DD021460220FFF7B6FF8E
:1007500080211E4801F0CCFA012828D02146032030
:10076000FFF7ACFF4FF48071184801F0C1FA01287F
:1007700022D021460420FFF7A1FF4FF40071134857
:1007800001F0B6FA01281CD021460520FFF796FF9C
:1007900010BD21460020FFF77FFFC5E72146FFF788
:1007A0007BFFCBE721460220FFF776FFD0E721460B
:1007B0000320FFF771FFD5E721460420FFF76CFF08
:1007C000DBE721460520FFF767FFE1E7000802406D
:1007D00008B500220F211F4801F091FA1E4B1B782B
:1007E00003F00303032B2CD8DFE803F002101922D7
:1007F00001221146174801F082FA0020FFF788FF16
:10080000154A13780133DBB2137008BD01220221AF
:10081000104801F074FA0120FFF77AFFF0E7012297
:1008200004210C4801F06BFA0220FFF771FFE7E7A3
:1008300001220821074801F062FA0320FFF768FF50
:10084000DEE7064802F090F84FF4FA7001F08EFBF4
:10085000D6E700BF00080240B4010020BC36000803
:1008600010B504460268084B9A4204D02268074B30
:100870009A4203D010BDFFF7ABFFF7E74FF40051EA
:10088000034801F042FAF5E700040040000C004084
:100890000008024000210AE0074A02EB8102002022
:1008A000D0540133DBB2042BF6D90131C9B2062989
:1008B00001D80023F7E770479C01002010B51446CB
:1008C000012804D002280AD04FF0FF3006E04FF094
:1008D000FF3392B2064801F0BEFC204610BD4FF037
:1008E000FF3392B2024801F0B6FC2046F6E700BFA3
:1008F0008400002072B6FEE708B50A480A4B036080
:100900004FF41653436000238360C36003610C22DD
:1009100042618361C36101F06FFC00B908BDFFF75C
:10092000E9FF00BF840000200048004008B50A48E5
:100930000A4B03604FF4E133436000238360C360DC
:1009400003610C2242618361C36101F055FC00B96F
:1009500008BDFFF7CFFF00BFC800002000500040D7
:1009600000B587B00023029303930493059300938B
:1009700001931448144A026040F28F62426083601F
:100980004FF4FA72C2600361836100F02DFC90B9EC
:100990004FF48053029302A90A4800F05EFC60B94C
:1009A0000023009301936946064800F0D5FC30B956
:1009B00007B05DF804FBFFF79DFFFFF79BFFFFF714
:1009C00099FF00BF540100200004004000B587B02B
:1009D0000023029303930493059300930193144817
:1009E000144A026040F28F62426083604CF25032DF
:1009F000C2600361836100F0F7FB90B94FF480534C
:100A0000029302A90A4800F028FC60B90023009371
:100A100001936946064800F09FFC30B907B05DF8C5
:100A200004FBFFF767FFFFF765FFFFF763FF00BFFA
:100A30000C010020000C004000B595B030220021D0
:100A400008A802F071F8002303930493059306931A
:100A500007930193234A116C41F080511164126C89
:100A600002F080520192019A02931F4B1A6842F4DD
:100A700080421A601B6803F480430293029B0123A7
:100A800008934FF48033099302220E924FF48003AF
:100A90000F9304231093A82111911292139308A885
:100AA00000F0A2FCD0B90F23039302230493002388
:100AB00005934FF4A05306934FF4805307930521F9
:100AC00003A800F049FF58B94FF0C0624FF480010D
:100AD000002000F085FE15B05DF804FBFFF70AFF6B
:100AE000FFF708FF003802400070004070B588B082
:100AF000674B06AC93E8030084E80300654B93E87A
:100B000003000490ADF81410090C8DF816100023A2
:100B1000019302938DF80C3001F0FCF9FFF78CFF84
:100B2000FFF746FDFFF7E8FEFFF700FFFFF718FFAE
:100B3000FFF74CFF584800F0EDF9FFF7ABFE6423D8
:100B400008222146554801F086FB4FF47A7001F0E7
:100B50000DFA5349534801F09FFE642001F006FA54
:100B60005149524801F098FE4FF4FA6001F0FEF945
:100B700026E002238DF81F304D4B01221A70474C9E
:100B80003223082206A9204601F065FB03238DF8D5
:100B90001D3000258DF81F503223082206A920465B
:100BA00001F059FB04238DF81D308DF81F503223BE
:100BB000082206A9204601F04EFB3E4B01221A7086
:100BC0003C4B1B78002BFBD13B4B1B78632B11D08C
:100BD000642B36D0612BF0D101238DF81D30344BBE
:100BE0001B78002BC5D001238DF81F30304B00221D
:100BF0001A70C4E701232E4A13708DF81D300025AA
:100C00008DF81F50254C3223082206A9204601F0FA
:100C100022FB03238DF81D3002238DF81F30322371
:100C2000082206A9204601F016FB04238DF81D308A
:100C30008DF81F503223082206A9204601F00BFB35
:100C4000BBE701251A4B1D708DF81D5000268DF84D
:100C50001F60124C3223082206A9204601F0FBFA3D
:100C600003238DF81D308DF81F603223082206A95A
:100C7000204601F0F0FA04238DF81D308DF81F5046
:100C80003223082206A9204601F0E5FA95E700BFC5
:100C9000943600080C37000854010020C8000020DA
:100CA000D4360008DC360008E8360008F0360008C4
:100CB000000000200100002002000020FEE7FEE707
:100CC000FEE7FEE7FEE770477047704708B501F0A2
:100CD0003BF908BD08B5024800F064F908BD00BF43
:100CE0005401002008B5024800F05CF908BD00BFBF
:100CF0000C01002008B5024801F0A4FB08BD00BFAC
:100D0000C800002082B0002100910B4B5A6C42F4C5
:100D100080425A645A6C02F480420092009A019117
:100D20001A6C42F080521A641B6C03F080530193DA
:100D3000019B02B0704700BF0038024000B583B08D
:100D40000368184A934205D0174A934216D003B05D
:100D50005DF804FB00210091144B1A6C42F0020272
:100D60001A641B6C03F002030093009B0A461D20CB
:100D700001F078F81D2001F085F8E8E700210191E5
:100D80000A4B1A6C42F008021A641B6C03F0080349
:100D90000193019B0A46322001F064F8322001F0F1
:100DA00071F8D4E700040040000C00400038024015
:100DB000F0B58BB00023059306930793089309932E
:100DC0000368364A934204D0354A934241D00BB06F
:100DD000F0BD00240094334B1A6C42F480121A6464
:100DE0001A6C02F480120092009A01941A6B42F07D
:100DF00004021A631A6B02F004020192019A02942F
:100E00001A6B42F008021A631B6B03F0080302938B
:100E1000029B4FF4805305930227069703260896FA
:100E20000825099505A9204800F06CFE04230593C8
:100E3000069707940896099505A91C4800F062FEDC
:100E400022462146352001F00DF8352001F01AF830
:100E5000BDE700210391134B1A6C42F480221A64FF
:100E60001A6C02F480220392039A04911A6B42F0E6
:100E700002021A631B6B03F002030493049B4FF4FA
:100E800040630593022306930323089307230993E2
:100E900005A9074800F036FE99E700BF0050004062
:100EA000004800400038024000080240000C0240A8
:100EB0000004024010B4036A046A24F001040462CE
:100EC000846924F0F00C4CEA021223F00A030B436D
:100ED000826103625DF8044B704710B4036A23F02B
:100EE000100303628469036A24F4704C4CEA0232F2
:100EF00023F0A00343EA0113826103625DF8044B0F
:100F00007047836823F070030B4343F0070383604B
:100F10007047000090F83D30DBB2012B37D102233F
:100F200080F83D300268D36843F00103D360036862
:100F3000194A934220D0B3F1804F1DD0A2F57C42D4
:100F4000934219D002F58062934215D002F5806277
:100F5000934211D002F5784293420DD002F57052BF
:100F6000934209D0A2F59432934205D01A6842F018
:100F700001021A60002070479A6802F00702062AF0
:100F800007D01A6842F001021A6000207047012061
:100F900070470020704700BF000001407047704755
:100FA0007047704710B5044603681A6912F0020FC3
:100FB00011D0DA6812F0020F0DD06FF002021A6140
:100FC0000123037703689B6913F0030F70D0FFF7C9
:100FD000E6FF0023237723681A6912F0040F12D06A
:100FE000DA6812F0040F0ED06FF004021A610223C7
:100FF000237723689B6913F4407F5FD02046FFF777
:10100000CEFF0023237723681A6912F0080F12D04D
:10101000DA6812F0080F0ED06FF008021A6104238C
:1010200023772368DB6913F0030F4ED02046FFF7C8
:10103000B6FF0023237723681A6912F0100F12D02D
:10104000DA6812F0100F0ED06FF010021A61082348
:1010500023772368DB6913F4407F3DD02046FFF7F8
:101060009EFF0023237723681A6912F0010F03D033
:10107000DA6812F0010F36D123681A6912F0800F76
:1010800003D0DA6812F0800F34D123681A6912F0A5
:10109000400F03D0DA6812F0400F32D123681A698A
:1010A00012F0200F03D0DA6812F0200F30D110BDFB
:1010B000FFF774FF2046FFF773FF8AE72046FFF72C
:1010C0006DFF2046FFF76CFF9BE72046FFF766FFAA
:1010D0002046FFF765FFACE72046FFF75FFF20469D
:1010E000FFF75EFFBDE76FF001021A612046FFF7D0
:1010F000B7FBC1E76FF080021A61204600F073F978
:10110000C3E76FF040021A612046FFF74AFFC5E7C8
:101110006FF020021A61204600F064F9C7E7000072
:101120000368304A904212D0B0F1804F0FD0A2F540
:101130007C4290420BD002F58062904207D002F5CB
:101140008062904203D002F57842904203D123F0AE
:1011500070034A681343234A90422AD0B0F1804F6B
:1011600027D0A2F57C42904223D002F580629042C3
:101170001FD002F5806290421BD002F57842904267
:1011800017D002F57052904213D002F5806290425F
:101190000FD002F5806290420BD0A2F598329042B7
:1011A00007D002F58062904203D002F5806290423F
:1011B00003D123F44073CA68134323F080034A69C0
:1011C000134303608B68C3620B688362054B9842CC
:1011D00003D003F58063984201D10B6903630123B7
:1011E000436170470000014040B310B5044690F8D9
:1011F0003D30F3B1022384F83D30214651F8040B11
:10120000FFF78EFF012384F8463084F83E3084F8DF
:101210003F3084F8403084F8413084F8423084F81C
:10122000433084F8443084F8453084F83D30002061
:1012300010BD80F83C30FFF781FDDBE701207047EF
:1012400010B4846824F47F4C42EA03220A4342EA41
:101250000C0282605DF8044B704790F83C30012B23
:1012600078D010B50446012380F83C30022380F882
:101270003D300268936823F47F4323F07703936043
:101280000B68602B4CD023D8402B54D011D8202B86
:1012900003D00AD80BB1102B05D119462068FFF7EF
:1012A00030FE002028E0012026E0302BF5D0012080
:1012B00022E0502B0AD1CA6849680068FFF7FAFD9E
:1012C00050212068FFF71DFE002015E0012013E0EB
:1012D000B3F5805F3AD0B3F5005F14D0702B37D1EF
:1012E000CB684A6889680068FFF7AAFF226893689C
:1012F00043F0770393600020012384F83D300023FE
:1013000084F83C3010BDCB684A6889680068FFF7F4
:1013100097FF2268936843F4804393600020EBE7D3
:10132000CA6849680068FFF7D8FD60212068FFF7A8
:10133000E8FD0020E0E7CA6849680068FFF7BAFDE9
:1013400040212068FFF7DDFD0020D5E70020D3E72E
:101350000120D1E70220704790F83C20012A3DD0BF
:1013600010B40346012280F83C20022280F83D2080
:1013700002685068946820F0700C086840EA0C001D
:1013800050601A68164882421AD0B2F1804F17D0C6
:10139000A0F57C40824213D000F5806082420FD0DD
:1013A00000F5806082420BD000F57840824207D081
:1013B00000F57050824203D0A0F59430824204D1EF
:1013C00024F08004496821439160012283F83D2084
:1013D000002083F83C005DF8044B70470220704702
:1013E0000000014070477047002800F0E08170B5B0
:1013F00082B00446036813F0010F3BD09F4B9B68FB
:1014000003F00C03042B2CD09C4B9B6803F00C03C3
:10141000082B21D06368B3F5803F4FD0B3F5A02FE0
:1014200052D0964B1A6822F480321A601A6822F45D
:1014300080221A606368002B50D000F091FD0546B1
:101440008E4B1B6813F4003F14D100F089FD401B44
:101450006428F5D90320B1E1884B5B6813F4800F51
:10146000D8D0864B1B6813F4003F03D06368002B71
:1014700000F09F81236813F0020F54D07F4B9B68CC
:1014800013F00C0F3ED07D4B9B6803F00C03082B30
:1014900033D0E368002B68D0794B01221A6000F04A
:1014A0005FFD0546754B1B6813F0020F54D100F029
:1014B00057FD401B0228F5D903207FE16F4A1368CE
:1014C00043F480331360B5E76C4B1A6842F4802212
:1014D0001A601A6842F480321A60ABE700F040FDEF
:1014E0000546664B1B6813F4003FC3D000F038FD7F
:1014F000401B6428F5D9032060E1604B5B6813F45E
:10150000800FC6D15D4B1B6813F0020F03D0E36858
:10151000012B40F05081594A136823F0F8032169E8
:1015200043EAC1031360236813F0080F42D06369D4
:101530006BB3534B0122C3F8802E00F011FD05461A
:101540004E4B5B6F13F0020F34D100F009FD401BCE
:101550000228F5D9032031E1484A136823F0F80343
:10156000216943EAC1031360DDE7454B00221A609D
:1015700000F0F6FC0546414B1B6813F0020FD2D079
:1015800000F0EEFC401B0228F5D9032016E13C4B8D
:101590000022C3F8802E00F0E3FC0546374B5B6F5A
:1015A00013F0020F06D000F0DBFC401B0228F5D937
:1015B000032003E1236813F0040F77D02F4B1B6C3B
:1015C00013F0805F33D1002301932C4B1A6C42F04F
:1015D00080521A641B6C03F080530193019B012518
:1015E000284B1B6813F4807F23D0A368012B34D0D1
:1015F000052B38D0214B1A6F22F001021A671A6F9F
:1016000022F004021A67A368002B3DD000F0A8FC6A
:1016100006461A4B1B6F13F0020F46D100F0A0FCD8
:10162000801B41F288339842F3D90320C6E000259D
:10163000D6E7144A136843F48073136000F090FCFB
:101640000646104B1B6813F4807FCED100F088FC57
:10165000801B0228F5D90320B0E0084A136F43F03D
:1016600001031367CFE7054B1A6F42F004021A67B4
:101670001A6F42F001021A67C5E700BF0038024046
:10168000000047420070004000F06AFC0646524BE2
:101690001B6F13F0020F08D000F062FC801B41F2B8
:1016A00088339842F3D9032088E0EDB9A369002B71
:1016B00000F08380484A926802F00C02082A51D058
:1016C000022B17D0454B00221A6600F049FC044655
:1016D000414B1B6813F0007F42D000F041FC001B1F
:1016E0000228F5D9032069E03B4A136C23F08053AC
:1016F0001364DBE7394B00221A6600F031FC054623
:10170000354B1B6813F0007F06D000F029FC401B0E
:101710000228F5D9032051E0E369226A1343626A83
:1017200043EA8213A26A5208013A43EA0243E26A98
:1017300043EA0263284A5360284B01221A6600F0EC
:101740000FFC0446244B1B6813F0007F06D100F009
:1017500007FC001B0228F5D903202FE000202DE014
:1017600000202BE0012B2BD01B4B5B6803F4800186
:10177000E269914226D103F03F02216A8A4223D1D5
:10178000616A47F6C0721A40B2EB811F1ED103F4A2
:101790004031A26A5208013AB1EB024F18D103F06E
:1017A0007063E26AB3EB026F14D1002006E00120FF
:1017B0007047012002E0012000E0002002B070BD6F
:1017C0000120FBE70120F9E70120F7E70120F5E719
:1017D0000120F3E70120F1E7003802400000474212
:1017E00070B588B00C46154600BB00230193204E0F
:1017F000326B42F001023263326B02F0010201925D
:10180000019A4FF4807203920222049203220692FC
:101810000593079303A9174800F074F9B36823F000
:10182000EC6325431D43B56008B070BD00230293EF
:101830000F4E326B42F004023263326B02F004024C
:101840000292029A4FF4007203920222049203223F
:1018500006920593079303A9074800F053F9B3686C
:1018600023F0784344EAC5041C43B460DCE700BFBE
:1018700000380240000002400008024008B5334B27
:101880009B6803F00C03042B5BD0082B5BD12F4B20
:101890005A6802F03F025B6813F4800F2CD02B4B88
:1018A0005868C0F388104FEA401CBCEB000C6EEB8C
:1018B0000E0E4FEA8E1343EA9C634FEA8C11B1EB94
:1018C0000C0163EB0E03DB0043EA5173C90011EB1B
:1018D000000C43F10003590200234FEA4C2041EA77
:1018E000DC51FEF7EDFC194B5B68C3F30143013398
:1018F0005B00B0FBF3F008BD144B5868C0F38810D0
:101900004FEA401CBCEB000C6EEB0E0E4FEA8E1340
:1019100043EA9C634FEA8C11B1EB0C0163EB0E03BD
:10192000DB0043EA5173C90011EB000C43F10003E3
:10193000990200234FEA8C2041EA9C51FEF7C0FC3B
:10194000D1E70348D7E70348D5E700BF0038024096
:1019500000127A000024F400002800F09B8070B58B
:101960000D4604464F4B1B6803F007038B4208D219
:10197000CBB24C4A1370136803F007038B4240F05C
:101980008B80236813F0020F17D013F0040F04D0DC
:10199000454A936843F4E0539360236813F0080FBB
:1019A00004D0414A936843F4604393603E4A93688D
:1019B00023F0F003A1680B439360236813F0010F39
:1019C00032D06368012B21D09A1E012A25D9364ACC
:1019D000126812F0020F61D033498A6822F00302C4
:1019E00013438B6000F0BCFA06462F4B9B6803F054
:1019F0000C036268B3EB820F16D000F0B1FA801BC3
:101A000041F288339842F0D9032042E0264A126816
:101A100012F4003FE0D101203BE0234A126812F0AB
:101A2000007FD9D1012034E01E4B1B6803F007036F
:101A3000AB4207D9EAB21B4B1A701B6803F00703CD
:101A4000AB422DD1236813F0040F06D0164A9368D9
:101A500023F4E053E1680B439360236813F0080F0D
:101A600007D0114A936823F46043216943EAC10314
:101A70009360FFF703FF0C4B9B68C3F303130B4A00
:101A8000D35CD8400A4B18600A4B186800F01CFA67
:101A9000002070BD012070470120FAE70120F8E71F
:101AA0000120F6E7003C02400038024034370008CD
:101AB0000800002004000020014B1868704700BF98
:101AC0000800002008B5FFF7F7FF044B9B68C3F33D
:101AD0008223034AD35CD84008BD00BF00380240CF
:101AE0002C37000808B5FFF7E7FF044B9B68C3F3EA
:101AF0004233034AD35CD84008BD00BF00380240DF
:101B00002C37000800230F2B00F2E98070B582B05B
:101B100065E085684FEA430E032404FA0EF425EAD3
:101B20000405CC6804FA0EF42C438460446824EA6B
:101B300002044A68C2F300129A40224342605CE009
:101B4000DC08083450F8242003F00705AD004FF0FE
:101B50000F0E0EFA05FE22EA0E0E0A69AA4042EAAC
:101B60000E0240F824205CE0072200E0002202FA86
:101B70000EF22A4302345A4D45F82420594A9468FB
:101B80006FEA0C0224EA0C054E6816F4801F01D09F
:101B90004CEA0405534CA560E46802EA04054E686B
:101BA00016F4001F01D04CEA04054E4CE560646851
:101BB00002EA04054E6816F4003F01D04CEA040521
:101BC000484C6560246822404D6815F4803F01D080
:101BD0004CEA0402434C226001330F2B7DD80122D2
:101BE0009A400C6804EA020C32EA0404F4D14C680E
:101BF00004F00304013C012C8BD94A6802F0030273
:101C0000032A09D0C4685D000322AA4024EA020422
:101C10008A68AA402243C2604A6802F00302022A8C
:101C20008ED004684FEA430E032202FA0EF224EA31
:101C300002044A6802F0030202FA0EF22243026032
:101C40004A6812F4403FC7D000220192264A546CE1
:101C500044F480445464526C02F480420192019A2C
:101C60009C08A51C1E4A52F8255003F0030E4FEAAB
:101C70008E0E0F2202FA0EF225EA02051B4A90424E
:101C80003FF474AF02F5806290421AD002F5806290
:101C9000904218D002F58062904216D002F5806220
:101CA000904214D002F58062904212D002F5806218
:101CB000904210D002F5806290423FF455AF082266
:101CC00055E7012253E7022251E703224FE704229E
:101CD0004DE705224BE7062249E702B070BD704789
:101CE00000380140003C0140003802400000024042
:101CF0000369194201D001207047002070470AB1E2
:101D000081617047090481617047436901EA0302F8
:101D100021EA030141EA02418161704770B504463E
:101D2000866D00F01DF994F83530DBB2022B06D039
:101D300080236365002384F83430012070BD05469C
:101D40002268136823F0160313602268536923F096
:101D500080035361236CE3B12268136823F0080306
:101D600013602268136823F00103136023681B6863
:101D700013F0010F11D000F0F3F8431B052BF5D938
:101D800020236365032084F83500002384F8343071
:101D9000D4E7A36C002BDFD1E3E7E26D3F23934050
:101DA000B360012384F83530002084F83400C5E79F
:101DB00090F83530DBB2022B03D08023436501203D
:101DC0007047052380F835300268136823F001035B
:101DD0001360002070470000002808DB0901C9B229
:101DE00000F1604000F5614080F80013704700F09A
:101DF0000F000901C9B2014B1954704714ED00E0FE
:101E000000B500F00700C0F1070CBCF1040F28BFBB
:101E10004FF0040C031D062B0FD9C31E4FF0FF3EDD
:101E20000EFA0CF021EA000199400EFA03FE22EAB4
:101E30000E0241EA02005DF804FB0023EEE7000019
:101E4000074AD36823F4E0631B041B0C000200F470
:101E5000E060034343F0BF6343F40033D360704753
:101E600000ED00E010B50446054BD868C0F3022031
:101E7000FFF7C6FF01462046FFF7AEFF10BD00BFCB
:101E800000ED00E0002807DB00F01F0240090123FD
:101E90009340024A42F82030704700BF00E100E062
:101EA0000138B0F1807F0BD24FF0E0235861054A32
:101EB000F02182F823100020986107221A617047F0
:101EC0000120704700ED00E010B504460E4B1A7873
:101ED0004FF47A73B3FBF2F30C4A1068B0FBF3F0E3
:101EE000FFF7DEFF68B90F2C01D901200AE00022BC
:101EF00021464FF0FF30FFF7B5FF054B1C60002077
:101F000000E0012010BD00BF0300002008000020F9
:101F10000400002008B50B4B1A6842F400721A60E6
:101F20001A6842F480621A601A6842F480721A6079
:101F30000320FFF785FF0F20FFF7C6FFFEF7E2FE45
:101F4000002008BD003C0240034A1168034B1B7887
:101F50000B441360704700BFB8010020030000204D
:101F6000014B1868704700BFB801002038B504461F
:101F7000FFF7F6FF0546B4F1FF3F02D0044B1B7894
:101F80001C44FFF7EDFF401BA042FAD338BD00BF51
:101F900003000020034AD2F8883043F47003C2F8EB
:101FA0008830704700ED00E0026802F10C0353E84E
:101FB000003F23F490730C3242E800310029F3D142
:101FC000026802F1140353E8003F23F001031432C6
:101FD00042E800310029F3D1036B012B05D0202307
:101FE00080F83E30002303637047026802F10C035F
:101FF00053E8003F23F010030C3242E8003100297F
:10200000F3D1ECE790F83D30DBB2212B01D0022078
:1020100070478368B3F5805F17D0036A5A1C026269
:102020001A7803685A60C38C9BB2013B9BB2C3848D
:102030004BB90268D36823F08003D3600268D36889
:1020400043F04003D360002070470369002BE4D1C4
:10205000036A1B880268C3F308035360036A0233F0
:102060000362E0E710B504460268136923F44053A5
:10207000C1680B431361836802691A4343691A43B9
:10208000C3691A430168CB6823F4164323F00C0399
:102090001343CB600268536923F4407381690B4397
:1020A00053610368314A934206D002F5806293423D
:1020B00002D0FFF707FD01E0FFF714FDE369B3F578
:1020C000004F29D00021031849411B1841F100019C
:1020D000C90041EA5371DB00181863684FEA8302B4
:1020E0004FEA937341F10001FEF7EAF8204AA2FBA0
:1020F00000314909642303FB11031B013233A2FBA6
:1021000003235B0903F0F00202EB011203F00F035B
:10211000216813448B6010BD0023021843EB0301B8
:10212000121841F10001C90041EA5271D2001018A1
:1021300041F10001626892185B41FEF7C1F80C4A58
:10214000A2FB00314909642303FB1103DB00323396
:10215000A2FB03235B095A0002F4F87202EB01129E
:1021600003F00703216813448B60D4E7001001409B
:102170001F85EB512DE9F84305460F461646994653
:10218000DDF820802B681C6837EA04040CBF0124AA
:102190000024B4422DD1B8F1FF3FF3D0B8F1000FC5
:1021A00005D0FFF7DDFEA0EB09004045EAD92A681B
:1021B00002F10C0353E8003F23F4D0730C3242E8E1
:1021C00000310029F3D12A6802F1140353E8003FDB
:1021D00023F00103143242E800310029F3D1202317
:1021E00085F83D3085F83E30002385F83C300320EB
:1021F00000E00020BDE8F88358B310B5044690F81D
:102200003D300BB3242384F83D302268D36823F497
:102210000053D3602046FFF725FF2268136923F49B
:10222000904313612268536923F02A0353612268A3
:10223000D36843F40053D36000202064202384F843
:102240003D3084F83E3010BD80F83C30FEF7B0FDE4
:10225000D8E7012070472DE9F04182B01E4690F882
:102260003D30DBB2202B54D104460D469046002968
:1022700053D0002A53D090F83C30012B51D0012389
:1022800080F83C3000230364212380F83D30FFF7C1
:1022900067FE0746A4F82480A4F82680A368B3F557
:1022A000805F05D04FF00008002384F83C3012E036
:1022B000236913B14FF00008F6E7A8460025F3E7BD
:1022C00038F8023B2268C3F308035360E28C92B2F1
:1022D000013A92B2E284E38C9BB273B100963B4622
:1022E000002280212046FFF745FFE0B9002DE7D00E
:1022F00015F8012B23685A60E8E700963B46002258
:1023000040212046FFF736FF78B9202384F83D307E
:1023100000E0022002B0BDE8F0810120FAE70120D0
:10232000F8E70220F6E70320F4E70320F2E770471E
:1023300008B50168CA6822F04002CA60202280F80D
:102340003D20FFF7F4FF002008BD7047704708B537
:10235000806B0023C385C384FFF7F8FF08BD704777
:1023600090F83E30DBB2222B67D18368B3F5805FF3
:102370004DD0826AB3F5805F04D0002B54D103693D
:10238000002B51D103685B681370836A0133836249
:10239000C38D9BB2013B9BB2C385002B4FD100B5CF
:1023A00083B00268D36823F02003D3600268D36847
:1023B00023F48073D3600268536923F001035361EF
:1023C000202380F83E30036B012B33D100230363BD
:1023D000026802F10C0353E8003F23F010030C32B3
:1023E00042E800310029F3D103681A6812F0100F97
:1023F00006D0002201921A6801925B680193019B4A
:10240000818DFFF7ACFF002003B05DF804FB02698B
:10241000002AAED1826A03685B68C3F308031380A5
:10242000836A02338362B3E703685B6803F07F0368
:102430001370AAE7FFF789FFE5E702207047002045
:102440007047000010B582B0044602681368D06877
:10245000516913F00F0F09D113F0200F0CD010F0B9
:10246000200F09D02046FFF77BFF16E011F0010195
:1024700015D110F4907F12D1216B012979D013F07E
:10248000800F03D010F0800F40F0108113F0400F48
:1024900003D010F0400F40F00D8102B010BD13F0DA
:1024A000010F06D010F4807F03D0226C42F00102AD
:1024B000226413F0040F04D019B1226C42F002021E
:1024C000226413F0020F04D019B1226C42F004020E
:1024D000226413F0080F07D010F0200F00D119B1BB
:1024E000226C42F008022264226C002AD5D013F03C
:1024F000200F02D010F0200F29D123685B6903F070
:102500004003226C12F0080F00D163B32046FFF79E
:102510004BFD23685B6913F0400F20D0226802F165
:10252000140353E8003F23F04003143242E8003123
:102530000029F3D1A36B73B1604A1A65A06BFFF752
:1025400037FC0028A9D0A06B036D9847A5E720466B
:10255000FFF706FFD1E72046FFF7F8FE9DE720468C
:10256000FFF7F4FE99E72046FFF7F0FE002323640F
:1025700093E713F0100F82D010F0100F3FF47FAFED
:10258000002301931368019353680193019B5369DE
:1025900013F0400F50D0A26B13685B689BB2002B06
:1025A0003FF47BAFA18D99427FF677AFE385D36986
:1025B000B3F5807F37D0226802F10C0353E8003F67
:1025C00023F480730C3242E800310029F3D12268F1
:1025D00002F1140353E8003F23F00103143242E8F0
:1025E00000310029F3D1226802F1140353E8003FBF
:1025F00023F04003143242E800310029F3D12023B4
:1026000084F83E3000232363226802F10C0353E870
:10261000003F23F010030C3242E800310029F3D1CF
:10262000A06BFFF77BFBA18DE38D9BB2C91A89B22A
:102630002046FFF794FE30E7A18DE38D9BB2C91AC7
:1026400089B2E38D9BB2002B3FF427AF00293FF402
:1026500024AF226802F10C0353E8003F23F4907387
:102660000C3242E800300028F3D1226802F1140352
:1026700053E8003F23F00103143242E80030002801
:10268000F3D1202384F83E3000232363226802F133
:102690000C0353E8003F23F010030C3242E80030F3
:1026A0000028F3D12046FFF75AFEF6E62046FFF752
:1026B000A9FCF2E62046FFF73BFEEEE64F230008BA
:1026C000DFF834D00D480E490E4A002302E0D458FA
:1026D000C4500433C4188C42F9D30B4A0B4C00236A
:1026E00001E013600432A242FBD3FFF753FC00F079
:1026F00069FAFEF7FBF97047000002200000002095
:102700006800002088370008680000200C030020C3
:10271000FEE70000002310B50446C0E90033C0E91D
:102720000433836081814366C28183611946082234
:102730005C3000F0F9F90D4B63620D4BA3620D4B59
:10274000E3620D4B23630D4B24629C4206D003F1E0
:102750006802944202D0D0339C4205D104F1580063
:10276000BDE8104000F052BA10BD00BF7929000842
:102770009B290008D3290008F7290008BC01002084
:10278000024A0349034800F069B800BF0C0000206A
:10279000993400081C00002041680C4B994210B588
:1027A000044601D000F078FEA168094B994202D09E
:1027B000204600F071FEE168064B994204D02046A5
:1027C000BDE8104000F068BE10BD00BFBC01002095
:1027D000240200208C02002010B50B4B0B4C0C4A3D
:1027E0001A60204600220421FFF794FF04F16800DC
:1027F00001220921FFF78EFF04F1D0000222BDE87B
:1028000010401221FFF786BFF4020020BC01002017
:1028100081270008014800F0FAB900BFFD0200203E
:10282000014800F0F5B900BFFD02002010B50446D4
:10283000FFF7F0FF236A1BB1BDE81040FFF7F0BFC0
:10284000044B2362044B1B68002BF5D1FFF7C4FF38
:10285000F2E700BF99270008F40200202DE9F843B1
:102860000746884614460026D4E90195B9F10109C6
:1028700005D52468002CF7D13046BDE8F883AB8934
:10288000012B07D9B5F90E30013303D0294638465C
:10289000C04706436835E9E70FB407B5064904ABFE
:1028A000086853F8042B8168019300F0CDFA03B057
:1028B0005DF804EB04B0704718000020036A70B59F
:1028C000846805460E460BB9FFF7B0FF636EDB0761
:1028D00005D4A389980502D4A06D00F098F9A389C6
:1028E000190702D52369002B35D12146284600F06F
:1028F000C5F880B34FF0FF35636EDA0705D4A389BE
:102900009B0502D4A06D00F083F9284670BD002B12
:1029100004DAA2699A4217DC0A2915D023685A1CE6
:1029200022601970A36816F8011F013BA3600029FB
:10293000EDD1002B11DA22460A21284600F05FF87B
:102940000130D7D00A25D7E72246284600F057F8AD
:102950000130E7D1CEE7013EE4E723685A1C22604C
:102960000A221A70EEE70000024B01461868FFF7D2
:10297000A5BF00BF1800002010B50C46B1F90E101D
:1029800000F0FCF80028ABBF636DA3891B1823F48B
:102990008053ACBF6365A38110BD2DE9F0411F4694
:1029A0008B89DB0505460C46164605D5B1F90E1098
:1029B0000223002200F0D0F8A389B4F90E1023F40A
:1029C0008053A38132463B462846BDE8F04100F0E3
:1029D000E7B810B50C46B1F90E1000F0BDF8431C75
:1029E000A38915BF606523F4805343F48053A3810A
:1029F00018BFA38110BDB1F90E1000F09DB8F8B555
:102A00000E461446054618B1036A0BB9FFF70EFFD0
:102A1000A369A360A3891A0701D5236943B9214695
:102A2000284600F02BF818B14FF0FF373846F8BDB4
:102A300023682269981A6369F6B28342374605DC37
:102A40002146284600F028FD0028EDD1A368013B6F
:102A5000A36023685A1C22601E706269431C9A425C
:102A600004D0A389DB07E1D50A2EDFD12146284611
:102A700000F012FD0028D9D0D6E7000038B5294B68
:102A8000054618680C4618B1036A0BB9FFF7CEFE6D
:102A9000B4F90C30190722D4DA0607D409222A60C7
:102AA00043F04003A3814FF0FF3033E0580712D5C5
:102AB000616B41B104F14403994202D0284600F011
:102AC000A9F800236363A38923F02403A3810023CF
:102AD000636023692360A38943F00803A38123690A
:102AE0004BB9A38903F42073B3F5007F03D02146CB
:102AF000284600F01FFDB4F90C3013F001020AD093
:102B00000022A26062695242A261226942B913F0B6
:102B10008000C5D138BD990758BF6269A260F4E74B
:102B20000020F7E71800002002440346934200D13A
:102B3000704703F8011BF9E738B5064D002304463A
:102B400008462B6000F064FD431C02D12B6803B1E2
:102B5000236038BDF802002038B5074D044608460A
:102B6000114600222A601A4600F06AFD431C02D179
:102B70002B6803B1236038BDF802002038B5074D3B
:102B800004460846114600222A601A4600F060FDFD
:102B9000431C02D12B6803B1236038BDF80200202A
:102BA00038B5074D04460846114600222A601A46E9
:102BB000FDF784FE431C02D12B6803B1236038BDAE
:102BC000F802002070B50D4D0D4C641BA4100026BA
:102BD000A64209D10B4D0C4C00F050FD641BA41013
:102BE0000026A64205D170BD55F8043B9847013632
:102BF000EEE755F8043B98470136F2E780370008C6
:102C00008037000880370008843700087047704715
:102C10007047000038B50546002941D051F8043C02
:102C20000C1F002BB8BFE41800F0D8F81D4A136839
:102C300033B9636014602846BDE8384000F0D4B86A
:102C4000A34208D9206821188B4201BF19685B682C
:102C500009182160EDE71A465B680BB1A342FAD967
:102C600011685018A0420BD12068014450188342CB
:102C70001160E0D118685B68536008441060DAE7BF
:102C800002D90C232B60D6E7206821188B4204BFA1
:102C900019685B68636004BF091821605460CAE763
:102CA00038BD00BF0403002070B50F4E0C463168DC
:102CB000054611B900F09CFC30602146284600F022
:102CC00097FC431C03D14FF0FF34204670BDC41C59
:102CD00024F00304A042F8D0211A284600F088FC12
:102CE0000130F2D1EFE700BF000300202DE9F041F1
:102CF000CD1C25F0030508350C2D38BF0C25002D03
:102D0000064601DBA94204D90C2333600020BDE84C
:102D1000F081314F00F062F83B681C4644BB294605
:102D20003046FFF7C1FF431C044650D13C682146A2
:102D3000002941D1002C44D02368304604EB03081D
:102D400000F056FC80453CD121686D1A294630467A
:102D5000FFF7AAFF013034D023682B4423603B687F
:102D6000002B36D05A68A24229D100225A600EE0C8
:102D70002268521B1DD40B2A16D96119A342256063
:102D800018BF5960636808BF396062514B603046B4
:102D900000F02AF804F10B00231D20F00700C21AEE
:102DA000B5D01B1AA350B2E7A3426268DED13A60E5
:102DB000EDE723466468B1E70C464968B8E7134677
:102DC000CEE70C233360304600F00EF89EE7056036
:102DD000DDE75B60FFDE00BF040300200148FFF772
:102DE00016BF00BFFC0200200148FFF711BF00BF63
:102DF000FC0200209368013B002B10B4936008DABA
:102E00009469A34201DB0A2903D15DF8044BFFF763
:102E1000F6BD1368581C1060197008465DF8044B25
:102E20007047F8B506460F461446D518AC4201D196
:102E3000002007E014F8011B3A463046FFF7DAFF9E
:102E4000431CF3D1F8BD00002DE9F04F0D469DB0B5
:102E500014469846064618B1036A0BB9FFF7E6FC1C
:102E60006B6ED90705D4AB899A0502D4A86DFFF71C
:102E7000CEFEAB891B0701D52B699BB9294630468D
:102E8000FFF7FCFD70B16B6EDC0704D54FF0FF302F
:102E90001DB0BDE8F08FAB899805F7D4A86DFFF79A
:102EA000B7FEF3E70023099320238DF82930CDF8EE
:102EB0000C803023DFF8AC818DF82A304FF0010907
:102EC00023469A4613F8012B0AB1252AF9D1BAEB09
:102ED000040B0BD05B46224629463046FFF7A1FF84
:102EE000013000F0A780099A5A4409929AF80030FC
:102EF000002B00F09F8000234FF0FF32CDE9052327
:102F00000AF1010A049307938DF853301A9354463B
:102F1000052214F8011B5348FDF782F9049AD8B929
:102F2000D10644BF20238DF85330130744BF2B2311
:102F30008DF853309AF800302A2B15D0079A544652
:102F400000204FF00A0C214611F8013B303B092BC1
:102F50004BD9B0B1079214E0A0EB080309FA03F3D0
:102F600013430493A246D2E7039B191D1B680391E8
:102F7000002BBBBF5B4242F0020207930793B8BF2E
:102F8000049223782E2B0AD163782A2B32D1039B0B
:102F90001A1D1B68039243EAE37302340593DFF8BA
:102FA000D4A0217803225046FDF73AF938B1049BAA
:102FB000A0EB0A004022824013430134049314F82A
:102FC000011B29488DF828100622FDF729F9002851
:102FD0003FD0264B1BBB039B073323F0070308336B
:102FE0000393099B3B4409936AE70CFB02320C46AE
:102FF0000120A8E700230134059319464FF00A0C7D
:10300000204610F8012B303A092A03D9002BC6D0EC
:103010000591C4E70CFB012104460123F0E703AB53
:1030200000932A46124B04A93046AFF300800746AE
:10303000781CD6D16B6ED90705D4AB899A0502D41A
:10304000A86DFFF7E5FDAB895B063FF51FAF09985B
:103050001EE703AB00932A46054B04A9304600F057
:1030600079F8E4E7443700084E3700080000000014
:10307000232E00084A3700082DE9F04716469846E7
:103080008A680B69DDF820909342B8BF134633601D
:1030900091F8432007460C460AB101333360236898
:1030A000990642BF336802333360256815F0060580
:1030B00006D104F1190AE36832689B1AAB4226DC98
:1030C00094F843302268003B18BF012392062BD4AA
:1030D00004F1430241463846C84701301ED02368F8
:1030E000226903F00603042B02BFE5683368ED1A7A
:1030F000A3680CBF25EAE57500259342C4BF9B1A5F
:10310000ED1800261A34B5421AD1002008E0012338
:10311000524641463846C847013003D14FF0FF3090
:10312000BDE8F0870135C6E7E1185A1C302081F868
:103130004300224494F8451082F843100233C7E755
:103140000123224641463846C8470130E6D00136C1
:10315000D9E700002DE9FF470F7E0C9E782F91469E
:1031600080460C469A4601F1430207D8622F0AD8DE
:10317000002F00F0D180582F00F0B88004F14206F3
:1031800084F842703AE0A7F16303152BF6D801A149
:1031900051F823F0ED310008013200087D310008BC
:1031A0007D3100087D3100087D31000801320008C2
:1031B0007D3100087D3100087D3100087D31000837
:1031C000FF3200082B320008B93200087D310008B8
:1031D0007D310008213300087D3100082B320008C2
:1031E0007D3100087D310008C132000833681A1DA6
:1031F0001B68326004F1420684F8423001239CE0EF
:1032000033682068191D3160060601D51D6803E08A
:103210004506FBD5B3F90050002D03DA2D236D428E
:1032200084F8433058480A2311E0216833680806BF
:1032300053F8045B02D4490648BFADB26F2F524821
:10324000336014BF0A230823002184F84310666802
:10325000A660002E05DB21682E4321F004012160C9
:103260004BD01646B5FBF3F103FB1157C75D06F8CB
:10327000017D2F46BB420D46F4D9082B0BD12368A4
:10328000DF0708D5236961689942DEBF302306F85D
:10329000013C06F1FF36921B2261CDF800A04B469F
:1032A00003AA21464046FFF7E7FE01304AD14FF01E
:1032B000FF3004B0BDE8F087236843F020032360AB
:1032C0003248782784F84570236831681F0651F822
:1032D000045B02D45F0648BFADB23160D90744BF7A
:1032E00043F0200323601DB11023ADE72648E9E732
:1032F000236823F020032360F6E71646BDE7336812
:1033000025686169181D30602E061B6801D519609B
:1033100002E06806FBD51980002323611646BCE74E
:1033200033681A1D32601E68626800213046FCF75F
:1033300077FF08B1801B606063682361002384F815
:103340004330AAE72369324649464046D047013018
:10335000ADD023689B0713D4E068039B9842B8BFA5
:103360001846A6E70123324649464046D047013079
:103370009DD00135E36803995B1AAB42F2DCEBE7C1
:10338000002504F11906F5E75537000866370008EF
:10339000B1F90C202DE9F041160705460C4654D42E
:1033A0004B68002B02DC0B6C002B48DDE66A002E1C
:1033B00045D0002312F480522F68216A2B6030D050
:1033C000626DA389590705D56368D21A636B0BB187
:1033D000236CD21A0023E66A216A2846B047431CB0
:1033E000A38906D129681D292BD82A4ACA40D607A5
:1033F00027D500226260D9042269226004D5421CCC
:1034000001D12B6803B96065616B2F60B9B104F11C
:103410004403994202D02846FFF7FCFB0023636374
:103420000DE001232846B0470246501CC9D12B6845
:10343000002BC6D01D2B01D0162B1ED12F600020D3
:1034400022E043F040031BB21BE00F69002FF6D0CF
:1034500093070E6808BF4B690F6018BF0023A6EBE7
:1034600007088B60B8F1000FE9DD216AA66A4346C0
:103470003A462846B047002808DCB4F90C3043F03F
:103480004003A3814FF0FF30BDE8F0810744A8EB73
:103490000008E7E70100402038B50B6905460C46F7
:1034A00013B90025284638BD18B1036A0BB9FFF7D8
:1034B000BDF9B4F90C30002BF3D0626ED00704D400
:1034C000990502D4A06DFFF7A2FB28462146FFF71D
:1034D0005FFF636EDA070546E4D4A3899B05E1D458
:1034E000A06DFFF795FBDDE770B50C46B1F90E1046
:1034F000002996B015461E460DDAA38913F0800FF9
:103500004FF0000114BF40234FF48063002031606E
:103510002B6016B070BD6A4600F048F80028ECDB5E
:10352000019901F47041A1F50053594259414FF4FA
:103530008063EBE78B89F7B59D0706460C4607D5F8
:1035400004F14703236023610123636103B0F0BDED
:1035500001AB6A46FFF7C8FF009F05463946304673
:10356000FFF7C4FB48B9B4F90C309A05EED423F048
:10357000030343F00203A381E2E7A389206043F041
:103580008003A381019BC4E904075BB1B4F90E1069
:10359000304600F01DF828B1A38923F0030343F05F
:1035A0000103A381A3891D43A581CFE738B5074D4A
:1035B00000230446084611462B6000F031F8431CF6
:1035C00002D12B6803B1236038BD00BFF802002090
:1035D00038B5064D0023044608462B6000F028F855
:1035E000431C02D12B6803B1236038BDF8020020D0
:1035F00038B5064D0023044608462B6000F030F82D
:10360000431C02D12B6803B1236038BDF8020020AF
:10361000024B58221A604FF0FF307047F80200202A
:10362000024B58221A604FF0FF307047F80200201A
:10363000024B58221A600020704700BFF802002099
:10364000024B58221A604FF0FF307047F8020020FA
:10365000024B58221A604FF0FF307047F8020020EA
:10366000044A05491368002B08BF0B461844106034
:10367000184670470803002010030020F8B500BF6B
:10368000F8BC08BC9E467047F8B500BFF8BC08BC43
:043690009E4670479B
:103694005AA505825001000050757368656420279F
:1036A4002563272028436F6C3A25752C20526F77A9
:1036B4003A2575290A00000057726F6E6720436F20
:1036C400756E7465722070696E73212000000000AD
:1036D4004B6579506164000048656C6C6F2C202543
:1036E40073210A005553415254330000466F72202F
:1036F4006D65737361676573207765207573696E93
:10370400672C2025730A00005AA504835103010085
:1037140023393633303835322A37343152715544EF
:10372400514C65646362616400000000010203049B
:10373400000000000000000001020304060708095D
:10374400232D302B2000686C4C0065666745464786
:103754000030313233343536373839414243444509
:103764004600303132333435363738396162636478
:043774006566000086
:08377800A8CAFF7F0100000058
:04378000F901000843
:04378400D101000867
:1037880001012E01100000000024F40000000000D8
:1037980003000000BC0100201C0000200000000005
:1037A800BC010020240200208C0200200000000040
:1037B8000000000000000000000000000000000001
:1037C80000000000000000000000000000000000F1
:1037D80000000000000000000000000000000000E1
:0837E8000000000000000000D9
:04000005080026C108
:00000001FF
