:020000040800F2
:1000000000000220B14400088D0D00088F0D00088B
:10001000910D0008930D0008950D000800000000E8
:100020000000000000000000000000004141000846
:10003000970D000800000000E1410008CB3C0008DB
:100040000145000801450008014500080145000878
:100050000145000801450008014500080145000868
:100060000145000801450008014500080145000858
:100070000145000801450008014500080145000848
:100080000145000801450008014500080145000838
:100090000145000801450008014500080145000828
:1000A0000145000801450008014500080145000818
:1000B000990D0008A90D0008014500080145000838
:1000C00001450008014500080145000801450008F8
:1000D00001450008014500080145000801450008E8
:1000E00001450008014500080145000801450008D8
:1000F00001450008014500080145000801450008C8
:100100000145000801450008B90D00080145000837
:1001100001450008C90D0008014500080145000817
:100120000145000801450008014500080145000897
:100130000145000800000000000000000145000823
:100140000145000801450008014500080145000877
:100150000145000801450008014500080145000867
:100160000145000801450008014500080145000857
:1001700001450008014500080000000000000000E3
:080180000145000801450008DB
:100190000348044B834202D0034B03B11847704716
:1001A0006C0000206C000020000000000548064B99
:1001B0001B1AD90F01EBA301491002D0034B03B165
:1001C000184770476C0000206C0000200000000001
:1001D00010B5064C237843B9FFF7DAFF044B13B18F
:1001E0000448AFF300800123237010BD6C00002091
:1001F000000000008854000808B5044B1BB10449F6
:100200000448AFF30080BDE80840CFE700000000DD
:10021000700000208854000800000000000000006A
:1002200001F0FF01102A2BDB10F0070F08D010F8A7
:10023000013B013A8B422DD010F0070F42B3F6D1AB
:10024000F0B441EA012141EA014122F007047FF0C4
:1002500000070023F0E80256083C85EA010586EA1B
:10026000010685FA47F5A3FA87F586FA47F6A5FA57
:1002700087F68EB9EED1F0BC01F0FF0102F0070263
:1002800032B110F8013B013A83EA010313B1F8D10E
:100290000020704701387047002D06BF35460338EF
:1002A000073815F0010F07D1013015F4807F02BF28
:1002B000013015F4C03F0130F0BC0138704700BF79
:1002C00053B94AB9002908BF00281CBF4FF0FF31BD
:1002D0004FF0FF3000F06AB9ADF1080C6DE904CEC3
:1002E00000F006F8DDF804E0DDE9022304B0704711
:1002F0002DE9F047089D0E4604460F46002B4AD1D3
:1003000094468C45B2FA82F260D942B1C2F1200320
:10031000974020FA03F30CFA02FC1F4394404FEA83
:100320001C4E1FFA8CF6B7FBFEF1230C0EFB117767
:1003300043EA074301FB06F098420AD91CEB03038A
:1003400001F1FF3780F01581984240F212810239A5
:1003500063441B1AA4B2B3FBFEF00EFB103344EA55
:10036000034400FB06F6A6420AD91CEB040400F184
:10037000FF3380F00081A64240F2FD8064440238E1
:1003800040EA0140A41B00211DB1D4400023C5E96F
:100390000043BDE8F0878B4205D90DB1C5E90001E6
:1003A00000210846F5E7B3FA83F1002946D1B342AC
:1003B00002D3824200F2F580841A66EB0302012028
:1003C0001746002DE5D0C5E90047E2E7002A40F0D6
:1003D0009380A1EB0C034FEA1C471FFA8CFE01210E
:1003E000B3FBF7F607FB1630230C43EA00430EFB82
:1003F00006F0984208D91CEB030306F1FF3802D23D
:10040000984200F2D08046461B1AA4B2B3FBF7F024
:1004100007FB103344EA03440EFB00FEA64508D94F
:100420001CEB040400F1FF3302D2A64500F2B680B3
:100430001846A4EB0E0440EA0640A5E7C1F12007E8
:100440008B4022FA07FC4CEA030C06FA01FE20FA64
:1004500007F426FA07F344EA0E0400FA01F84FEA1B
:100460001C404FEA1449B3FBF0FE1FFA8CF600FB68
:100470001E3349EA03430EFB06F9994502FA01F2DD
:100480000BD91CEB03030EF1FF3A80F085809945F0
:1004900040F28280AEF1020E6344A3EB0909A4B2DC
:1004A000B9FBF0F300FB139944EA094403FB06F699
:1004B000A64208D91CEB040403F1FF3068D2A6421F
:1004C00066D9023B644443EA0E40A41BA0FB02E64B
:1004D000B4427346B14652D34FD05DB1B8EB03027C
:1004E00064EB090404FA07F722FA01F31F43CC4036
:1004F000C5E9007400214CE7C2F1200120FA01F3A4
:100500000CFA02FC26FA01F1964033434FEA1C47ED
:100510001FFA8CFEB1FBF7F007FB1016190C41EA2D
:10052000064100FB0EF68E4204FA02F408D91CEBD9
:10053000010100F1FF382DD28E422BD902386144DF
:10054000891B9BB2B1FBF7F607FB161143EA014387
:1005500006FB0EF1994208D91CEB030306F1FF38A4
:1005600014D2994212D9023E63445B1A46EA004112
:1005700036E73946EDE6184602E7F045ADD2BEEB68
:10058000020366EB0C060138B146A6E74646ECE7E7
:10059000034698E74046D3E7D6467EE764440238F0
:1005A00047E708460DE7023E63442DE7704700BF6A
:1005B00070B58AB0002405940694079408940994B1
:1005C0000094324B1A6B42F004021A631A6B02F069
:1005D00004020092009A01941A6B42F080021A639E
:1005E0001A6B02F080020192019A02941A6B42F097
:1005F00002021A631A6B02F002020292029A039438
:100600001A6B42F001021A631A6B02F001020392A4
:10061000039A04941A6B42F008021A631B6B03F0EE
:1006200008030493049B1A4D224642F20F01284608
:1006300001F0F3FB4FF4005305930126069607944F
:10064000089405A9284601F0EBFA0F2305930696B6
:100650000794089605A9284601F0E2FA4FF47C7346
:10066000059306940226079605A9284601F0D8FAB4
:100670004FF480730593069607940894099405A98E
:10068000044801F0CDFA0AB070BD00BF0038024046
:10069000000802400000024008B54FF40051044831
:1006A00001F0C1FB4FF4FA7003F0A8FBF5E700BFBF
:1006B0000008024008B5072807D8074B1A78074BEF
:1006C00003EBC2031B5C012B04D0054804F044F883
:1006D000002008BD0120FCE7C50100209856000855
:1006E000A854000810B50446184803F0CDFF072CA5
:1006F00028D8DFE804F0040B0F13171B1F2314483E
:1007000003F0C2FF134804F027F810BD124803F0AD
:10071000BBFFF7E7114803F0B7FFF3E7104803F01A
:10072000B3FFEFE70F4803F0AFFFEBE70E4803F02E
:10073000ABFFE7E70D4803F0A7FFE3E70C4803F042
:10074000A3FFDFE70B4803F09FFFDBE7BC54000883
:10075000C854000888550008E854000804550008EB
:10076000205500082C5500083C5500084855000845
:100770005C5500087455000810B5054C0020207029
:10078000FFF7B0FF2178034800F0DAFA10BD00BF90
:10079000C5010020D800002038B50446FFF78AFFC5
:1007A00000B938BD044D2C702046FFF79BFF297817
:1007B000024800F0C5FAF4E7C5010020D800002087
:1007C00008B50BE00E4803F0C7FF142003F016FB3A
:1007D0000C4B01221A70642003F010FB094B1B78AC
:1007E000002BF8D1084B1878A0F13003072BE9D87B
:1007F000D8B2FFF7D1FF322003F000FBE8E700BFDB
:10080000905500080000002001000020074B03EB7A
:1008100080035B5CDBB2022B06D8044A02EB800249
:10082000535C0133DBB25354704700BFAC0100206E
:100830000A4B03EB80035B5CDBB2022B08D9084B4D
:1008400003EB80035A5C074B1A70074B00221A70A7
:10085000024B03EB8000002343547047AC0100209F
:1008600080560008010000200000002010B504465A
:1008700010212D4801F0CAFA012838D02146002065
:10088000FFF7D6FF2021284801F0C0FA012833D015
:1008900021460120FFF7CCFF4021234801F0B6FAA2
:1008A00001282DD021460220FFF7C2FF80211E48DB
:1008B00001F0ACFA012828D021460320FFF7B8FF49
:1008C0004FF48071184801F0A1FA012822D0214686
:1008D0000420FFF7ADFF4FF40071134801F096FAC2
:1008E00001281CD021460520FFF7A2FF10BD21469C
:1008F0000020FFF78BFFC5E72146FFF787FFCBE717
:1009000021460220FFF782FFD0E721460320FFF7B0
:100910007DFFD5E721460420FFF778FFDBE721467E
:100920000520FFF773FFE1E70008024008B5002249
:100930000F211B4801F071FA1A4B1B7803F00303D7
:10094000032B0BD8DFE803F0021019220122114615
:10095000134801F062FA0020FFF788FF114A13786C
:100960000133DBB2137008BD012202210C4801F0F3
:1009700054FA0120FFF77AFFF0E70122042108482A
:1009800001F04BFA0220FFF771FFE7E7012208218F
:10099000034801F042FA0320FFF768FFDEE700BFDB
:1009A00000080240C401002008B5FFF7BFFF0A207D
:1009B00003F024FAF9E7000000210AE0074A02EBFD
:1009C00081020020D0540133DBB2042BF6D901316F
:1009D000C9B2062901D80023F7E77047AC0100200F
:1009E00010B51446012804D002280AD04FF0FF3079
:1009F00006E04FF0FF3392B2064801F080FC20463B
:100A000010BD4FF0FF3392B2024801F078FC20464F
:100A1000F6E700BF9400002010B504460368B3F168
:100A2000804F04D02268064B9A4203D010BD01F0DB
:100A3000DFFAF7E74FF40051024801F0F4F9F5E767
:100A4000000C00400008024072B6FEE708B50A48F4
:100A50000A4B03604FF41653436000238360C36066
:100A600003610C2242618361C36101F019FC00B98A
:100A700008BDFFF7E9FF00BF9400002000480040D8
:100A800008B50A480A4B03604FF4E1334360002382
:100A90008360C36003610C2242618361C36101F022
:100AA000FFFB00B908BDFFF7CFFF00BFD800002053
:100AB0000050004000B587B00023029303930493D5
:100AC0000593009301931448144A026040F28F6228
:100AD000426083604CF25032C2600361836100F077
:100AE000F3FB90B94FF48053029302A90A4800F037
:100AF00024FC60B90023009301936946064800F086
:100B00009BFC30B907B05DF804FBFFF79DFFFFF7D2
:100B10009BFFFFF799FF00BF640100200004004025
:100B200000B587B0002302930393049305930093C9
:100B300001931448144A026040F28F62426083605D
:100B40004FF47A72C2600361836100F0BDFB90B91B
:100B50004FF48053029302A90A4800F0EEFB60B9FB
:100B60000023009301936946064800F065FC30B904
:100B700007B05DF804FBFFF767FFFFF765FFFFF7BE
:100B800063FF00BF1C010020000C004000B595B0C1
:100B90003022002108A803F0BFFE00230393049332
:100BA0000593069307930193234A116C41F08051FA
:100BB0001164126C02F080520192019A02931F4B51
:100BC0001A6842F480421A601B6803F4804302935F
:100BD000029B012308934FF48033099302220E9263
:100BE0004FF480030F9304231093A82111911292C4
:100BF000139308A800F068FCD0B90F2303930223D5
:100C00000493002305934FF4A05306934FF48053AD
:100C10000793052103A800F00FFF58B94FF0C062F9
:100C20004FF48001002000F04BFE15B05DF804FB8E
:100C3000FFF70AFFFFF708FF00380240007000408E
:100C400030B589B02D4B06AD93E8030085E803006D
:100C50002B4B93E803000490ADF81410090C8DF8A9
:100C600016100024019402948DF80C4001F0A6F9AE
:100C7000FFF78CFFFFF79CFCFFF7E8FEFFF700FF94
:100C8000FFF718FFFFF74CFF1E4800F0B3F9FFF71E
:100C900093FE6423082229461B4801F030FB4FF4E1
:100CA0007A7001F0B7F91949194803F0EDFC642096
:100CB00001F0B0F91749184803F0E6FC4FF4FA6068
:100CC00001F0A8F9FFF758FD03F00CF8134A21468C
:100CD000134803F035F8134B1860134A21461348A4
:100CE00003F02EF8124B1860124A2146124803F006
:100CF00027F8124B186003F007F8FEE7A05400082D
:100D0000D455000864010020D80000209C5500083C
:100D1000A4550008B0550008B85500085C560008F6
:100D2000C107000890000020385600089906000806
:100D30008C00002014560008A90900088800002033
:100D400000B585B05A228DF80420A5238DF8053012
:100D500007238DF8063082238DF8073000238DF8A5
:100D600008304FF0840C8DF809C08DF80A2001225C
:100D70008DF80B208DF80C308DF80D1032230A22DF
:100D800001A901F0BCFA05B05DF804FBFEE7FEE73F
:100D9000FEE7FEE7FEE7704708B5024800F072F98B
:100DA00008BD00BF1C4B002008B5024800F06AF9DE
:100DB00008BD00BF6401002008B5024800F062F9D8
:100DC00008BD00BF1C01002008B5024801F08EFBE1
:100DD00008BD00BFD800002000B583B000220092FB
:100DE0000D4B596C41F480415964596C01F48041B8
:100DF000009100990192196C41F0805119641B6CAB
:100E000003F080530193019B0F216FF0010001F06B
:100E1000B7F803B05DF804FB0038024000B583B0BA
:100E20000368184A934205D0174A934216D003B07C
:100E30005DF804FB00220092144B196C41F0020192
:100E400019641B6C03F002030093009B05211D2015
:100E500001F096F81D2001F0A3F8E8E700220192C6
:100E60000A4B196C41F0080119641B6C03F008036C
:100E70000193019B0521322001F082F8322001F01C
:100E80008FF8D4E700040040000C00400038024016
:100E9000F0B58BB00023059306930793089309934D
:100EA0000368364A934204D0354A934241D00BB08E
:100EB000F0BD00240094334B1A6C42F480121A6483
:100EC0001A6C02F480120092009A01941A6B42F09C
:100ED00004021A631A6B02F004020192019A02944E
:100EE0001A6B42F008021A631B6B03F008030293AB
:100EF000029B4FF48053059302270697032608961A
:100F00000825099505A9204800F08AFE04230593C9
:100F1000069707940896099505A91C4800F080FEDD
:100F200022460521352001F02BF8352001F038F854
:100F3000BDE700210391134B1A6C42F480221A641E
:100F40001A6C02F480220392039A04911A6B42F005
:100F500002021A631B6B03F002030493049B4FF419
:100F60004063059302230693032308930723099301
:100F700005A9074800F054FE99E700BF0050004063
:100F8000004800400038024000080240000C0240C7
:100F90000004024010B4036A046A24F001040462ED
:100FA000846924F0F00C4CEA021223F00A030B438C
:100FB000826103625DF8044B704710B4036A23F04A
:100FC000100303628469036A24F4704C4CEA023211
:100FD00023F0A00343EA0113826103625DF8044B2E
:100FE0007047836823F070030B4343F0070383606B
:100FF0007047000090F83D30DBB2012B37D102235F
:1010000080F83D300268D36843F00103D360036881
:10101000194A934220D0B3F1804F1DD0A2F57C42F3
:10102000934219D002F58062934215D002F5806296
:10103000934211D002F5784293420DD002F57052DE
:10104000934209D0A2F59432934205D01A6842F037
:1010500001021A60002070479A6802F00702062A0F
:1010600007D01A6842F001021A6000207047012080
:1010700070470020704700BF000001407047704774
:101080007047704710B5044603681A6912F0020FE2
:1010900011D0DA6812F0020F0DD06FF002021A615F
:1010A0000123037703689B6913F0030F70D0FFF7E8
:1010B000E6FF0023237723681A6912F0040F12D089
:1010C000DA6812F0040F0ED06FF004021A610223E6
:1010D000237723689B6913F4407F5FD02046FFF796
:1010E000CEFF0023237723681A6912F0080F12D06D
:1010F000DA6812F0080F0ED06FF008021A610423AC
:1011000023772368DB6913F0030F4ED02046FFF7E7
:10111000B6FF0023237723681A6912F0100F12D04C
:10112000DA6812F0100F0ED06FF010021A61082367
:1011300023772368DB6913F4407F3DD02046FFF717
:101140009EFF0023237723681A6912F0010F03D052
:10115000DA6812F0010F36D123681A6912F0800F95
:1011600003D0DA6812F0800F34D123681A6912F0C4
:10117000400F03D0DA6812F0400F32D123681A69A9
:1011800012F0200F03D0DA6812F0200F30D110BD1A
:10119000FFF774FF2046FFF773FF8AE72046FFF74B
:1011A0006DFF2046FFF76CFF9BE72046FFF766FFC9
:1011B0002046FFF765FFACE72046FFF75FFF2046BC
:1011C000FFF75EFFBDE76FF001021A612046FFF7EF
:1011D00023FCC1E76FF080021A61204600F073F92A
:1011E000C3E76FF040021A612046FFF74AFFC5E7E8
:1011F0006FF020021A61204600F064F9C7E7000092
:101200000368304A904212D0B0F1804F0FD0A2F55F
:101210007C4290420BD002F58062904207D002F5EA
:101220008062904203D002F57842904203D123F0CD
:1012300070034A681343234A90422AD0B0F1804F8A
:1012400027D0A2F57C42904223D002F580629042E2
:101250001FD002F5806290421BD002F57842904286
:1012600017D002F57052904213D002F5806290427E
:101270000FD002F5806290420BD0A2F598329042D6
:1012800007D002F58062904203D002F5806290425E
:1012900003D123F44073CA68134323F080034A69DF
:1012A000134303608B68C3620B688362054B9842EB
:1012B00003D003F58063984201D10B6903630123D6
:1012C000436170470000014040B310B5044690F8F8
:1012D0003D30F3B1022384F83D30214651F8040B30
:1012E000FFF78EFF012384F8463084F83E3084F8FF
:1012F0003F3084F8403084F8413084F8423084F83C
:10130000433084F8443084F8453084F83D30002080
:1013100010BD80F83C30FFF781FDDBE7012070470E
:1013200010B4846824F47F4C42EA03220A4342EA60
:101330000C0282605DF8044B704790F83C30012B42
:1013400078D010B50446012380F83C30022380F8A1
:101350003D300268936823F47F4323F07703936062
:101360000B68602B4CD023D8402B54D011D8202BA5
:1013700003D00AD80BB1102B05D119462068FFF70E
:1013800030FE002028E0012026E0302BF5D001209F
:1013900022E0502B0AD1CA6849680068FFF7FAFDBD
:1013A00050212068FFF71DFE002015E0012013E00A
:1013B000B3F5805F3AD0B3F5005F14D0702B37D10E
:1013C000CB684A6889680068FFF7AAFF22689368BB
:1013D00043F0770393600020012384F83D3000231D
:1013E00084F83C3010BDCB684A6889680068FFF714
:1013F00097FF2268936843F4804393600020EBE7F3
:10140000CA6849680068FFF7D8FD60212068FFF7C7
:10141000E8FD0020E0E7CA6849680068FFF7BAFD08
:1014200040212068FFF7DDFD0020D5E70020D3E74D
:101430000120D1E70220704790F83C20012A3DD0DE
:1014400010B40346012280F83C20022280F83D209F
:1014500002685068946820F0700C086840EA0C003C
:1014600050601A68164882421AD0B2F1804F17D0E5
:10147000A0F57C40824213D000F5806082420FD0FC
:1014800000F5806082420BD000F57840824207D0A0
:1014900000F57050824203D0A0F59430824204D10E
:1014A00024F08004496821439160012283F83D20A3
:1014B000002083F83C005DF8044B70470220704721
:1014C0000000014070477047002800F0E08170B5CF
:1014D00082B00446036813F0010F3BD09F4B9B681A
:1014E00003F00C03042B2CD09C4B9B6803F00C03E3
:1014F000082B21D06368B3F5803F4FD0B3F5A02F00
:1015000052D0964B1A6822F480321A601A6822F47C
:1015100080221A606368002B50D000F075FD0546EC
:101520008E4B1B6813F4003F14D100F06DFD401B7F
:101530006428F5D90320B1E1884B5B6813F4800F70
:10154000D8D0864B1B6813F4003F03D06368002B90
:1015500000F09F81236813F0020F54D07F4B9B68EB
:1015600013F00C0F3ED07D4B9B6803F00C03082B4F
:1015700033D0E368002B68D0794B01221A6000F069
:1015800043FD0546754B1B6813F0020F54D100F064
:101590003BFD401B0228F5D903207FE16F4A136809
:1015A00043F480331360B5E76C4B1A6842F4802231
:1015B0001A601A6842F480321A60ABE700F024FD2A
:1015C0000546664B1B6813F4003FC3D000F01CFDBA
:1015D000401B6428F5D9032060E1604B5B6813F47D
:1015E000800FC6D15D4B1B6813F0020F03D0E36878
:1015F000012B40F05081594A136823F0F803216908
:1016000043EAC1031360236813F0080F42D06369F3
:101610006BB3534B0122C3F8802E00F0F5FC054656
:101620004E4B5B6F13F0020F34D100F0EDFC401B0A
:101630000228F5D9032031E1484A136823F0F80362
:10164000216943EAC1031360DDE7454B00221A60BC
:1016500000F0DAFC0546414B1B6813F0020FD2D0B4
:1016600000F0D2FC401B0228F5D9032016E13C4BC8
:101670000022C3F8802E00F0C7FC0546374B5B6F95
:1016800013F0020F06D000F0BFFC401B0228F5D972
:10169000032003E1236813F0040F77D02F4B1B6C5A
:1016A00013F0805F33D1002301932C4B1A6C42F06E
:1016B00080521A641B6C03F080530193019B012537
:1016C000284B1B6813F4807F23D0A368012B34D0F0
:1016D000052B38D0214B1A6F22F001021A671A6FBE
:1016E00022F004021A67A368002B3DD000F08CFCA6
:1016F00006461A4B1B6F13F0020F46D100F084FC14
:10170000801B41F288339842F3D90320C6E00025BC
:10171000D6E7144A136843F48073136000F074FC36
:101720000646104B1B6813F4807FCED100F06CFC92
:10173000801B0228F5D90320B0E0084A136F43F05C
:1017400001031367CFE7054B1A6F42F004021A67D3
:101750001A6F42F001021A67C5E700BF0038024065
:10176000000047420070004000F04EFC0646524B1D
:101770001B6F13F0020F08D000F046FC801B41F2F3
:1017800088339842F3D9032088E0EDB9A369002B90
:1017900000F08380484A926802F00C02082A51D077
:1017A000022B17D0454B00221A6600F02DFC044690
:1017B000414B1B6813F0007F42D000F025FC001B5A
:1017C0000228F5D9032069E03B4A136C23F08053CB
:1017D0001364DBE7394B00221A6600F015FC05465E
:1017E000354B1B6813F0007F06D000F00DFC401B4A
:1017F0000228F5D9032051E0E369226A1343626AA3
:1018000043EA8213A26A5208013A43EA0243E26AB7
:1018100043EA0263284A5360284B01221A6600F00B
:10182000F3FB0446244B1B6813F0007F06D100F045
:10183000EBFB001B0228F5D903202FE000202DE050
:1018400000202BE0012B2BD01B4B5B6803F48001A5
:10185000E269914226D103F03F02216A8A4223D1F4
:10186000616A47F6C0721A40B2EB811F1ED103F4C1
:101870004031A26A5208013AB1EB024F18D103F08D
:101880007063E26AB3EB026F14D1002006E001201E
:101890007047012002E0012000E0002002B070BD8E
:1018A0000120FBE70120F9E70120F7E70120F5E738
:1018B0000120F3E70120F1E7003802400000474231
:1018C00070B588B00C46154600BB00230193204E2E
:1018D000326B42F001023263326B02F0010201927C
:1018E000019A4FF48072039202220492032206921C
:1018F0000593079303A9174800F092F9B36823F002
:10190000EC6325431D43B56008B070BD002302930E
:101910000F4E326B42F004023263326B02F004026B
:101920000292029A4FF4007203920222049203225E
:1019300006920593079303A9074800F071F9B3686D
:1019400023F0784344EAC5041C43B460DCE700BFDD
:1019500000380240000002400008024008B5334B46
:101960009B6803F00C03042B5BD0082B5BD12F4B3F
:101970005A6802F03F025B6813F4800F2CD02B4BA7
:101980005868C0F388104FEA401CBCEB000C6EEBAB
:101990000E0E4FEA8E1343EA9C634FEA8C11B1EBB3
:1019A0000C0163EB0E03DB0043EA5173C90011EB3A
:1019B000000C43F10003590200234FEA4C2041EA96
:1019C000DC51FEF77DFC194B5B68C3F30143013327
:1019D0005B00B0FBF3F008BD144B5868C0F38810EF
:1019E0004FEA401CBCEB000C6EEB0E0E4FEA8E1360
:1019F00043EA9C634FEA8C11B1EB0C0163EB0E03DD
:101A0000DB0043EA5173C90011EB000C43F1000302
:101A1000990200234FEA8C2041EA9C51FEF750FCCA
:101A2000D1E70348D7E70348D5E700BF00380240B5
:101A300000127A000024F400002800F09B8070B5AA
:101A40000D4604464F4B1B6803F007038B4208D238
:101A5000CBB24C4A1370136803F007038B4240F07B
:101A60008B80236813F0020F17D013F0040F04D0FB
:101A7000454A936843F4E0539360236813F0080FDA
:101A800004D0414A936843F4604393603E4A9368AC
:101A900023F0F003A1680B439360236813F0010F58
:101AA00032D06368012B21D09A1E012A25D9364AEB
:101AB000126812F0020F61D033498A6822F00302E3
:101AC00013438B6000F0A0FA06462F4B9B6803F08F
:101AD0000C036268B3EB820F16D000F095FA801BFE
:101AE00041F288339842F0D9032042E0264A126836
:101AF00012F4003FE0D101203BE0234A126812F0CB
:101B0000007FD9D1012034E01E4B1B6803F007038E
:101B1000AB4207D9EAB21B4B1A701B6803F00703EC
:101B2000AB422DD1236813F0040F06D0164A9368F8
:101B300023F4E053E1680B439360236813F0080F2C
:101B400007D0114A936823F46043216943EAC10333
:101B50009360FFF703FF0C4B9B68C3F303130B4A1F
:101B6000D35CD8400A4B18600A4B186802F04EFC50
:101B7000002070BD012070470120FAE70120F8E73E
:101B80000120F6E7003C024000380240E056000821
:101B90000800002004000020014B1868704700BFB7
:101BA0000800002008B5FFF7F7FF044B9B68C3F35C
:101BB0008223034AD35CD84008BD00BF00380240EE
:101BC000D856000808B5FFF7E7FF044B9B68C3F33E
:101BD0004233034AD35CD84008BD00BF00380240FE
:101BE000D85600080F2303600B4B9A6802F00302DB
:101BF00042609A6802F0F00282609A6802F4E05251
:101C0000C2609B68DB0803F4E0530361034B1B686D
:101C100003F007030B60704700380240003C0240AD
:101C200000230F2B00F2E98070B582B065E0856873
:101C30004FEA430E032404FA0EF425EA0405CC68A7
:101C400004FA0EF42C438460446824EA02044A68CF
:101C5000C2F300129A40224342605CE0DC08083480
:101C600050F8242003F00705AD004FF00F0E0EFAD8
:101C700005FE22EA0E0E0A69AA4042EA0E0240F868
:101C800024205CE0072200E0002202FA0EF22A4340
:101C900002345A4D45F82420594A94686FEA0C02E0
:101CA00024EA0C054E6816F4801F01D04CEA0405A6
:101CB000534CA560E46802EA04054E6816F4001F60
:101CC00001D04CEA04054E4CE560646802EA040564
:101CD0004E6816F4003F01D04CEA0405484C65609C
:101CE000246822404D6815F4803F01D04CEA04027C
:101CF000434C226001330F2B7DD801229A400C689F
:101D000004EA020C32EA0404F4D14C6804F003043F
:101D1000013C012C8BD94A6802F00302032A09D046
:101D2000C4685D000322AA4024EA02048A68AA402B
:101D30002243C2604A6802F00302022A8ED004687D
:101D40004FEA430E032202FA0EF224EA02044A6822
:101D500002F0030202FA0EF2224302604A6812F411
:101D6000403FC7D000220192264A546C44F480447C
:101D70005464526C02F480420192019A9C08A51CA2
:101D80001E4A52F8255003F0030E4FEA8E0E0F2222
:101D900002FA0EF225EA02051B4A90423FF474AFA4
:101DA00002F5806290421AD002F58062904218D00B
:101DB00002F58062904216D002F58062904214D003
:101DC00002F58062904212D002F58062904210D0FB
:101DD00002F5806290423FF455AF082255E7012298
:101DE00053E7022251E703224FE704224DE7052281
:101DF0004BE7062249E702B070BD7047003801404A
:101E0000003C0140003802400000024003691942D2
:101E100001D001207047002070470AB181617047EE
:101E2000090481617047436901EA030221EA030161
:101E300041EA02418161704770B50446866D00F049
:101E4000E3F894F83530DBB2022B06D080236365CB
:101E5000002384F83430012070BD054622681368E1
:101E600023F0160313602268536923F08003536143
:101E7000236CE3B12268136823F00803136022681F
:101E8000136823F00103136023681B6813F0010F2C
:101E900011D000F0B9F8431B052BF5D92023636559
:101EA000032084F83500002384F83430D4E7A36C91
:101EB000002BDFD1E3E7E26D3F239340B3600123C2
:101EC00084F83530002084F83400C5E790F83530C8
:101ED000DBB2022B03D0802343650120704705232A
:101EE00080F835300268136823F001031360002086
:101EF00070470000002808DB0901C9B200F160400A
:101F000000F5614080F80013704700F00F000901F0
:101F1000C9B2014B1954704714ED00E000B500F050
:101F20000700C0F1070CBCF1040F28BF4FF0040CF0
:101F3000031D062B0FD9C31E4FF0FF3E0EFA0CF007
:101F400021EA000199400EFA03FE22EA0E0241EA5C
:101F500002005DF804FB0023EEE70000074AD368A7
:101F600023F4E0631B041B0C000200F4E060034355
:101F700043F0BF6343F40033D360704700ED00E0EB
:101F800010B50446054BD868C0F30220FFF7C6FF22
:101F900001462046FFF7AEFF10BD00BF00ED00E098
:101FA000002807DB00F01F02400901239340024A8A
:101FB00042F82030704700BF00E100E008B50B4B4D
:101FC0001A6842F400721A601A6842F480621A6059
:101FD0001A6842F480721A600320FFF7BFFF0F20D7
:101FE00002F014FAFEF7F8FE002008BD003C0240A3
:101FF000034A1168034B1B780B441360704700BF02
:10200000C801002002000020014B1868704700BF83
:10201000C801002038B50446FFF7F6FF0546B4F1C5
:10202000FF3F02D0044B1B781C44FFF7EDFF401B21
:10203000A042FAD338BD00BF02000020034AD2F804
:10204000883043F47003C2F88830704700ED00E038
:10205000026802F10C0353E8003F23F490730C3242
:1020600042E800310029F3D1026802F1140353E879
:10207000003F23F00103143242E800310029F3D17C
:10208000036B012B05D0202380F83E30002303632F
:102090007047026802F10C0353E8003F23F010037D
:1020A0000C3242E800310029F3D1ECE790F83D30E2
:1020B000DBB2212B01D0022070478368B3F5805F2B
:1020C00017D0036A5A1C02621A7803685A60C38CDC
:1020D0009BB2013B9BB2C3844BB90268D36823F027
:1020E0008003D3600268D36843F04003D3600020CC
:1020F00070470369002BE4D1036A1B880268C3F3AD
:1021000008035360036A02330362E0E710B5044634
:102110000268136923F44053C1680B431361836859
:1021200002691A4343691A43C3691A430168CB68B9
:1021300023F4164323F00C031343CB600268536966
:1021400023F4407381690B4353610368314A93421E
:1021500006D002F58062934202D0FFF723FD01E032
:10216000FFF730FDE369B3F5004F29D000210318D4
:1021700049411B1841F10001C90041EA5371DB00DC
:10218000181863684FEA83024FEA937341F1000124
:10219000FEF796F8204AA2FB00314909642303FBAD
:1021A00011031B013233A2FB03235B0903F0F0028E
:1021B00002EB011203F00F03216813448B6010BD82
:1021C0000023021843EB0301121841F10001C9007A
:1021D00041EA5271D200101841F100016268921870
:1021E0005B41FEF76DF80C4AA2FB003149096423FC
:1021F00003FB1103DB003233A2FB03235B095A000C
:1022000002F4F87202EB011203F007032168134491
:102210008B60D4E7001001401F85EB512DE9F84396
:1022200005460F4616469946DDF820802B681C6847
:1022300037EA04040CBF01240024B4422DD1B8F1C4
:10224000FF3FF3D0B8F1000F05D0FFF7DDFEA0EBA4
:1022500009004045EAD92A6802F10C0353E8003F1F
:1022600023F4D0730C3242E800310029F3D12A68FC
:1022700002F1140353E8003F23F00103143242E853
:1022800000310029F3D1202385F83D3085F83E3018
:10229000002385F83C30032000E00020BDE8F883EF
:1022A00058B310B5044690F83D300BB3242384F89E
:1022B0003D302268D36823F40053D3602046FFF7F3
:1022C00025FF2268136923F4904313612268536940
:1022D00023F02A0353612268D36843F40053D36088
:1022E00000202064202384F83D3084F83E3010BD67
:1022F00080F83C30FEF7CCFDD8E7012070472DE98F
:10230000F04182B01E4690F83D30DBB2202B54D114
:1023100004460D469046002953D0002A53D090F829
:102320003C30012B51D0012380F83C300023036462
:10233000212380F83D30FFF767FE0746A4F824808C
:10234000A4F82680A368B3F5805F05D04FF000089D
:10235000002384F83C3012E0236913B14FF00008E9
:10236000F6E7A8460025F3E738F8023B2268C3F3F6
:1023700008035360E28C92B2013A92B2E284E38C99
:102380009BB273B100963B46002280212046FFF7A6
:1023900045FFE0B9002DE7D015F8012B23685A60FE
:1023A000E8E700963B46002240212046FFF736FF33
:1023B00078B9202384F83D3000E0022002B0BDE867
:1023C000F0810120FAE70120F8E70220F6E7032078
:1023D000F4E70320F2E7704708B50168CA6822F005
:1023E0004002CA60202280F83D20FFF7F4FF002061
:1023F00008BD7047704708B5806B0023C385C38450
:10240000FFF7F8FF08BD704790F83E30DBB2222B93
:1024100067D18368B3F5805F4DD0826AB3F5805F82
:1024200004D0002B54D10369002B51D103685B68A1
:102430001370836A01338362C38D9BB2013B9BB2ED
:10244000C385002B4FD100B583B00268D36823F059
:102450002003D3600268D36823F48073D3600268DA
:10246000536923F001035361202380F83E30036B4E
:10247000012B33D100230363026802F10C0353E8FC
:10248000003F23F010030C3242E800310029F3D161
:1024900003681A6812F0100F06D0002201921A6821
:1024A00001925B680193019B818DFFF7ACFF0020D7
:1024B00003B05DF804FB0269002AAED1826A0368AA
:1024C0005B68C3F308031380836A02338362B3E754
:1024D00003685B6803F07F031370AAE7FFF789FFC7
:1024E000E5E70220704700207047000010B582B079
:1024F000044602681368D068516913F00F0F09D1C0
:1025000013F0200F0CD010F0200F09D02046FFF759
:102510007BFF16E011F0010115D110F4907F12D16C
:10252000216B012979D013F0800F03D010F0800FB8
:1025300040F0108113F0400F03D010F0400F40F036
:102540000D8102B010BD13F0010F06D010F4807F92
:1025500003D0226C42F00102226413F0040F04D075
:1025600019B1226C42F00202226413F0020F04D06F
:1025700019B1226C42F00402226413F0080F07D054
:1025800010F0200F00D119B1226C42F00802226431
:10259000226C002AD5D013F0200F02D010F0200FAB
:1025A00029D123685B6903F04003226C12F0080F05
:1025B00000D163B32046FFF74BFD23685B6913F03E
:1025C000400F20D0226802F1140353E8003F23F0AB
:1025D0004003143242E800310029F3D1A36B73B1F8
:1025E000604A1A65A06BFFF771FC0028A9D0A06BA8
:1025F000036D9847A5E72046FFF706FFD1E7204681
:10260000FFF7F8FE9DE72046FFF7F4FE99E7204626
:10261000FFF7F0FE0023236493E713F0100F82D03E
:1026200010F0100F3FF47FAF002301931368019364
:1026300053680193019B536913F0400F50D0A26B74
:1026400013685B689BB2002B3FF47BAFA18D99426E
:102650007FF677AFE385D369B3F5807F37D0226803
:1026600002F10C0353E8003F23F480730C3242E87C
:1026700000310029F3D1226802F1140353E8003F2E
:1026800023F00103143242E800310029F3D122681B
:1026900002F1140353E8003F23F04003143242E8F0
:1026A00000310029F3D1202384F83E300023236336
:1026B000226802F10C0353E8003F23F010030C32B0
:1026C00042E800310029F3D1A06BFFF7B5FBA18DE3
:1026D000E38D9BB2C91A89B22046FFF794FE30E71A
:1026E000A18DE38D9BB2C91A89B2E38D9BB2002BF9
:1026F0003FF427AF00293FF424AF226802F10C0316
:1027000053E8003F23F490730C3242E80030002875
:10271000F3D1226802F1140353E8003F23F00103D0
:10272000143242E800300028F3D1202384F83E30F0
:1027300000232363226802F10C0353E8003F23F0D7
:1027400010030C3242E800300028F3D12046FFF796
:102750005AFEF6E62046FFF7A9FCF2E62046FFF710
:102760003BFEEEE6F723000800F1080343604FF05C
:10277000FF328260C360036100230360704700235F
:102780000361704743684B609A688A605160996042
:102790000861036801330360704730B40D68B5F118
:1027A000FF3F11D000F108031C465B681A68AA427B
:1027B000FAD963684B6099608C6061600861036856
:1027C0000133036030BC70470469F2E70369416874
:1027D00082688A60416851605A68824206D000224D
:1027E00002611A68013A1A601868704782685A6074
:1027F000F5E710B5044601F0B5FCA26BE36B9A4215
:1028000004D0002401F0D0FC204610BD0124F9E7DB
:1028100010B5044601F0A6FCA36B23B9012401F016
:10282000C3FC204610BD0024F9E770B504461546E8
:10283000866B026C5AB903681BB100200136A6638F
:1028400070BD806800F0D0FF0023A360F6E76DB98B
:10285000406802F0D6F86368226C13446360A26893
:10286000934219D3236863602846E7E7C06802F003
:10287000C8F8E368226C51429B1AE36022689342D5
:1028800002D2A3680B44E360022D01D00020D5E7FB
:1028900026B1013E0020D1E72846CFE70020CDE752
:1028A0000346026C6AB110B50846D9681144D96074
:1028B0009C68A14201D31968D960D96802F0A1F8D7
:1028C00010BD704738B5054601F04CFC95F8454001
:1028D00064B201E0013C64B2002C0ADD6B6A43B1D2
:1028E00005F1240000F0D6FE0028F3D000F066FFCA
:1028F000F0E7FF2385F8453001F056FC01F032FC8B
:1029000095F8444064B201E0013C64B2002C0ADD59
:102910002B6943B105F1100000F0BCFE0028F3D094
:1029200000F04CFFF0E7FF2385F8443001F03CFC59
:1029300038BD38B5E0B10D46044601F013FC2368FC
:10294000E26B216C01FB0230A0600020A063636099
:10295000013A02FB0133E360FF2384F8443084F83A
:102960004530FDB9236963B901F01EFC012038BD73
:102970004FF0500383F31188BFF36F8FBFF34F8F76
:10298000FEE704F1100000F085FE0028ECD04FF0C7
:10299000E0234FF08052C3F8042DBFF34F8FBFF3F5
:1029A0006F8FE1E704F11000FFF7DEFE04F1240071
:1029B000FFF7DAFED8E738B51D46049C0B4649B947
:1029C0002460E063236401212046FFF7B2FF84F80E
:1029D0004C5038BD2260F4E740B94FF0500383F308
:1029E0001188BFF36F8FBFF34F8FFEE710B584B030
:1029F0001C46844653B192B189B94FF0500383F31A
:102A00001188BFF36F8FBFF34F8FFEE74FF0500376
:102A100083F31188BFF36F8FBFF34F8FFEE76AB167
:102A200050230393039B502B13D04FF0500383F399
:102A30001188BFF36F8FBFF34F8FFEE70029EFD0F0
:102A40004FF0500383F31188BFF36F8FBFF34F8FA5
:102A5000FEE7039B012384F8463000949DF818306C
:102A60006046FFF7A8FF204604B010BDF0B585B062
:102A7000019288B10F461D460446B1B1022D20D106
:102A8000E36B012B1DD04FF0500383F31188BFF38C
:102A90006F8FBFF34F8FFEE74FF0500383F3118822
:102AA000BFF36F8FBFF34F8FFEE7036C002BE5D0B2
:102AB0004FF0500383F31188BFF36F8FBFF34F8F35
:102AC000FEE700F081FE064658B9019B002B48D076
:102AD0004FF0500383F31188BFF36F8FBFF34F8F15
:102AE000FEE700263DE02A4639462046FFF79DFED8
:102AF000636A7BB948B14FF0E0234FF08052C3F8CE
:102B0000042DBFF34F8FBFF36F8F01F04DFB0120FA
:102B100005B0F0BD04F1240000F0BCFD0028F4D0A5
:102B20004FF0E0234FF08052C3F8042DBFF34F8FD6
:102B3000BFF36F8FE9E701F037FB0020E8E702A859
:102B400000F0EEFD012619E0002384F8443021E076
:102B5000002384F8453023E02046FFF7B3FE00F061
:102B600077FC01F0FFFAA26BE36B9A42BBD3022D14
:102B7000B9D0019B002BDED0002EE0D001F014FB79
:102B800000F0CCFB01F0EEFA94F8442052B2B2F11E
:102B9000FF3FD9D094F8452052B2B2F1FF3FD7D0D1
:102BA00001F002FB01A902A800F0C6FDD8B9204639
:102BB000FFF71FFE0028CFD0019904F1100000F0AC
:102BC00035FD2046FFF77EFE00F042FC0028C8D10C
:102BD0004FF0E0234FF08052C3F8042DBFF34F8F26
:102BE000BFF36F8FBDE72046FFF76CFE00F030FCAF
:102BF00000208DE72DE9F84390B10F4616461C469C
:102C00000546B1B1022C20D1EB6B012B1DD04FF04A
:102C1000500383F31188BFF36F8FBFF34F8FFEE72D
:102C20004FF0500383F31188BFF36F8FBFF34F8FC3
:102C3000FEE7036C002BE5D04FF0500383F31188BF
:102C4000BFF36F8FBFF34F8FFEE701F0B1FBEFF3E0
:102C500011884FF0500383F31188BFF36F8FBFF3D8
:102C60004F8FAA6BEB6B9A4206D3022C04D0002044
:102C700088F31188BDE8F88395F845904FFA89F9F3
:102C8000AB6B224639462846FFF7CFFDB9F1FF3F2F
:102C900006D009F101035BB285F845300120E7E772
:102CA0006B6A0BB90120E3E705F1240000F0F2FCA8
:102CB00018B126B101203060DAE70120D8E7012001
:102CC000D6E7F0B585B0019290B10F460446C1B188
:102CD00000F07AFD064600BB019B002B5ED04FF052
:102CE000500383F31188BFF36F8FBFF34F8FFEE75D
:102CF0004FF0500383F31188BFF36F8FBFF34F8FF3
:102D0000FEE7036C002BE3D04FF0500383F31188F0
:102D1000BFF36F8FBFF34F8FFEE700263EE03946CB
:102D20002046FFF7BDFD013DA563236923B901F0EE
:102D30003BFA012005B0F0BD04F1100000F0AAFC40
:102D40000028F4D04FF0E0234FF08052C3F8042D58
:102D5000BFF34F8FBFF36F8FE9E701F025FA002033
:102D6000E8E702A800F0DCFC012621E0002384F85B
:102D7000443029E0002384F845302BE02046FFF75B
:102D8000A1FD00F065FB09E02046FFF79BFD00F088
:102D90005FFB2046FFF73CFD00283FD101F0E2F940
:102DA000A56B002DBBD1019B002BD6D0002ED8D017
:102DB00001F0FAF900F0B2FA01F0D4F994F84430D5
:102DC0005BB2B3F1FF3FD1D094F845305BB2B3F1C1
:102DD000FF3FCFD001F0E8F901A902A800F0ACFC58
:102DE0000028D1D12046FFF713FD0028C6D0019955
:102DF00004F1240000F01AFC2046FFF763FD00F008
:102E000027FB0028CAD14FF0E0234FF08052C3F8CF
:102E1000042DBFF34F8FBFF36F8FBFE7002089E70B
:102E20000023072B0CD8074A52F833200AB101338C
:102E3000F7E7044A42F8331002EBC30250607047D0
:102E4000704700BFCC01002070B504460D46164601
:102E500001F088F994F844305BB2B3F1FF3F0DD034
:102E600094F845305BB2B3F1FF3F0BD001F09CF911
:102E7000A36B5BB12046FFF725FD70BD002384F8EE
:102E80004430EDE7002384F84530EFE73246294629
:102E900004F1240000F0E2FBECE70000084B1B68A3
:102EA0001B6823B9074B4FF0FF321A607047044B81
:102EB0001B68DB68DB685A68024B1A60704700BF0A
:102EC0007C020020140200202DE9F04780460D46C8
:102ED00017469946089EDDF824A00A9C9200A52179
:102EE000206B01F019FD236B07F18042013A03EBDF
:102EF000820727F00707A5B34FF0000CBCF10F0FB6
:102F000009D815F80C3004EB0C0282F8343013B1F8
:102F10000CF1010CF2E7002384F84330372E00D97E
:102F20003726E662E66400252565201DFFF727FCAD
:102F300004F11800FFF723FC2461C6F13806A661EE
:102F40006462656584F858504A464146384601F047
:102F5000DDF82060BAF1000F01D0CAF80040BDE8EA
:102F6000F087002384F83430D8E7000038B5002417
:102F700007E004EB840293000E481844FFF7F4FBCB
:102F80000134372CF5D90C4D2846FFF7EDFB0B4CDF
:102F90002046FFF7E9FB0A48FFF7E6FB0948FFF781
:102FA000E3FB0948FFF7E0FB084B1D60084B1C6082
:102FB00038BD00BFA802002094020020800200203B
:102FC0006402002050020020380200207C02002011
:102FD0007802002010B5044601F0C4F8224A1368B4
:102FE00001331360214B1B685BB1214B1B686BB92C
:102FF0001E4B1B68DA6AE36A9A4207D81B4B1C60B7
:1030000004E01A4B1C601368012B29D0194A13687D
:10301000013313606364E06A174B1B68984201D95F
:10302000154B186000EB8000211D144B03EB800052
:10303000FFF7A8FB01F0B8F80D4B1B687BB10B4BF9
:103040001B68DA6AE36A9A4209D24FF0E0234FF034
:103050008052C3F8042DBFF34F8FBFF36F8F10BDA5
:10306000FFF784FFD2E700BF3402002008070020EA
:1030700028020020180200202C020020A8020020B4
:1030800010B5044690F8593063B1012B11D0022BD2
:103090000ED04FF0500383F31188BFF36F8FBFF34F
:1030A0004F8FFEE7006B00F0B5FF204600F0B2FF47
:1030B00010BD00F0AFFFFBE70F4B1B68D3B110B59D
:1030C00001F050F80D4BDB68DC68201DFFF77EFB3C
:1030D0000B4A1368013B1360074A1368013B1360F6
:1030E00001F062F82046FFF7CBFF034B1B68002B73
:1030F000E6D110BD704700BF4C02002050020020F6
:103100003402002008B5FFF7D7FF074B1B68012BDF
:10311000F9D94FF0E0234FF08052C3F8042DBFF3EC
:103120004F8FBFF36F8FEEE7A802002070B5044603
:103130000D46174B1E68174B18680430FFF746FB07
:10314000B4F1FF3F0DD03444124B1B685C60A642C3
:1031500010D9114B18680F4B19680431FFF71DFB8C
:1031600070BD002DEFD00B4B196804310B48FFF7F1
:1031700009FBF5E70A4B1868064B19680431FFF79D
:103180000CFB084B1B68A342EAD9064B1C60E7E71F
:1031900030020020080700207802002038020020BA
:1031A0007C0200201402002030B587B00B9C7CB15B
:1031B0000C9DB5B15C250495049D5C2D1AD04FF093
:1031C000500383F31188BFF36F8FBFF34F8FFEE778
:1031D0004FF0500383F31188BFF36F8FBFF34F8F0E
:1031E000FEE74FF0500383F31188BFF36F8FBFF3F7
:1031F0004F8FFEE7049D0C9D2C63022485F85940F7
:1032000000240394029505AC01940A9C0094FFF7F6
:103210005BFE0C98FFF7DEFE059807B030BD2DE988
:10322000F04385B00746884614461E46900000F0DD
:103230006FFE08B381465C2000F06AFE0546A8B127
:10324000C0F83090002380F85930039302900D9B12
:1032500001930C9B00933346224641463846FFF7C4
:1032600033FE2846FFF7B6FE012007E0484600F08F
:10327000D1FE4FF0FF3001E04FF0FF3005B0BDE868
:10328000F083000010B588B000240594069407AAC6
:1032900006A905A800F0C0FD059B0293069B0193BB
:1032A00000942346079A17491748FFF77DFF174BED
:1032B0001860C0B100F04CFB012815D14FF050034D
:1032C00083F31188BFF36F8FBFF34F8F104B4FF015
:1032D000FF321A600F4B01221A600F4B00221A6056
:1032E00000F0DAFF03E00020B0F1FF3F01D008B0AA
:1032F00010BD4FF0500383F31188BFF36F8FBFF3FE
:103300004F8FFEE7FC550008053100081002002031
:10331000140200202802002030020020024A136814
:1033200001331360704700BF0C020020014B186886
:10333000704700BF30020020F8B53A4B1B68002BE5
:1033400069D1394B1D6801351D60C5B9374B1B6804
:103350001B6843B14FF0500383F31188BFF36F8FA5
:10336000BFF34F8FFEE7314A1168314B1868106088
:103370001960304A136801331360FFF78FFD2E4B3D
:103380001B68AB423DD900272C4B1B68DB6A03EB63
:1033900083039A002A4B9B58012B00D90127294B04
:1033A0001B68002B3CD001273AE001271F4B1B680C
:1033B0001B6843B31D4B1B68DB68DC6863689D4278
:1033C00026D3261D3046FFF701FAA36A1BB104F18C
:1033D0001800FFF7FBF9E36A1B4A1268934201D910
:1033E000194A136003EB83039A00314614481044D2
:1033F000FFF7C8F9E26A114B1B68DB6A9A42D4D224
:10340000D4E70027D2E70C4B4FF0FF321A60BBE73E
:10341000094A1360B8E70D4A1368013313600027A7
:103420003846F8BD0C020020300200207C0200204B
:10343000780200201C02002014020020080700204F
:10344000A8020020200200202C02002024020020DC
:1034500038B5354B1B6843B94FF0500383F31188DF
:10346000BFF36F8FBFF34F8FFEE700F07BFE2E4B55
:103470001A68013A1A601B68002B4FD12B4B1B684E
:103480000BB900244BE00024294B1B681BB3284BCD
:10349000DB68DC6804F11800FFF798F9251D284661
:1034A000FFF794F9E06A234B1B68984201D9214B3E
:1034B000186000EB800029461F4B03EB8000FFF7EC
:1034C00061F9E26A1D4B1B68DB6A9A42DCD31C4B34
:1034D00001221A60D8E70CB1FFF7E0FC194B1C6819
:1034E00084B9174B1C68D4B14FF0E0234FF08052E1
:1034F000C3F8042DBFF34F8FBFF36F8F01240EE08D
:10350000013C07D0FFF718FF0028F9D00C4B01222F
:103510001A60F5E70B4B00221A60E2E7002400F086
:1035200043FE204638BD00BF0C02002034020020BC
:10353000640200202C020020A802002008070020BE
:10354000200200202402002010B5A8B10446104B30
:103550001B6843B14FF0500383F31188BFF36F8FA3
:10356000BFF34F8FFEE7FFF7D9FE00212046FFF79C
:10357000DDFDFFF76DFF48B94FF0E0234FF08052BB
:10358000C3F8042DBFF34F8FBFF36F8F10BD00BF83
:103590000C020020204B1B681BB1204B01221A603B
:1035A00070471E4B00221A601D4B1B6803EB830102
:1035B0008A001C498A585AB90BB1013BF6E74FF013
:1035C000500383F31188BFF36F8FBFF34F8FFEE774
:1035D000084603EB83018A00024451684968516040
:1035E00003EB830C4FEA8C020832024491420BD069
:1035F00003EB830291000B4A0A445268D1680A4ADD
:103600001160074A13607047486862469100054A96
:103610000A445060ECE700BF0C02002020020020AA
:103620002C020020A80200200807002058B110B585
:103630000C46094A11681831FFF7AFF801212046FE
:10364000FFF774FD10BD4FF0500383F31188BFF3F3
:103650006F8FBFF34F8FFEE70807002038B570B1BA
:103660000D4614460A4A11681831FFF78BF80CB161
:103670004FF0FF3521462846FFF758FD38BD4FF083
:10368000500383F31188BFF36F8FBFF34F8FFEE7B3
:103690000807002038B5C368DC6824B304F11805B6
:1036A0002846FFF793F8184B1B682BBB251D2846AF
:1036B000FFF78CF8E06A154B1B68984201D9134B51
:1036C000186000EB80002946114B03EB8000FFF7E8
:1036D00059F8E26A0F4B1B68DB6A9A4211D9012044
:1036E0000D4B186038BD4FF0500383F31188BFF3C2
:1036F0006F8FBFF34F8FFEE729460848FFF742F868
:10370000E7E70020EEE700BF0C0200202C020020BB
:10371000A8020020080700202002002064020020E8
:10372000034B1B680360034B1B684360704700BF7B
:103730001C02002030020020F8B5C8B10C46054636
:10374000F9B100F00FFD1B4B19686B68C81A2268AD
:10375000B2F1FF3F26D0184E36682F68B74201D02D
:103760008B4224D9824215D80023236001241AE019
:103770004FF0500383F31188BFF36F8FBFF34F8F68
:10378000FEE74FF0500383F31188BFF36F8FBFF351
:103790004F8FFEE75B1A134423602846FFF7C0FFF4
:1037A000002400E0002400F0FFFC2046F8BD0124C6
:1037B000F9E700BF300200201C020020014B01226B
:1037C0001A60704720020020054B1B6833B1054B7F
:1037D0001B680BB100207047022070470120704722
:1037E000280200200C02002000283BD038B50446F7
:1037F0001E4B1B68834208D04FF0500383F311889F
:10380000BFF36F8FBFF34F8FFEE7036D43B94FF0E8
:10381000500383F31188BFF36F8FBFF34F8FFEE721
:10382000013B0365C16AC26C91421DD00BB10020FF
:1038300038BD051D2846FEF7C9FFE06CE062C0F107
:103840003803A3610A4B1B68984201D9084B1860E2
:1038500000EB80002946074B03EB8000FEF792FF48
:103860000120E5E7002070470020E1E7080700207D
:103870002C020020A8020020064B1A6813682BB9FE
:103880000123036023B9D368186870470023F8E761
:10389000002070470C08002008B54160006191428B
:1038A0000CD8D21A83699A4201D3012008BD011DA8
:1038B000094B1868FEF771FF0020F7E79A4201D222
:1038C000994206D2011D054B1868FEF766FF0020DD
:1038D000ECE70120EAE700BF080800200C08002000
:1038E00030B583B000F03EFC114B1B681BB100F0FB
:1038F0005BFC03B030BD0F4D2846FEF735FF0E4C84
:103900002046FEF731FF0D4B1D600D4B1C60002360
:1039100000930C4B0C4A10210A20FFF75DF8044B72
:1039200018600028E3D00949FFF77AFADFE700BF03
:103930000408002024080020100800200C080020A3
:10394000080800200C0700205C070020045600082F
:1039500010B588B0FFF7C4FF124B1B68CBB1002431
:103960000594069407AA06A905A800F061FA059B2C
:103970000293069B0193022300932346079A0A4968
:103980000A48FFF711FC0A4B186010B1012008B07B
:1039900010BD4FF0500383F31188BFF36F8FBFF357
:1039A0004F8FFEE7040800200C560008B53C0008C5
:1039B00000080020B8B19C4603461848006858B378
:1039C00000B585B000910192029305291CDCFFF738
:1039D000FBFE022810D000231A4669460F480068F3
:1039E000FFF744F815E04FF0500383F31188BFF35D
:1039F0006F8FBFF34F8FFEE70023069A6946074893
:103A00000068FFF733F804E0002362466946FFF7D9
:103A1000F1F805B05DF804FB0020704704080020B1
:103A200070B582B01B4B1B681A6862B3DB681E68F6
:103A3000DC68251D2846FEF7C9FE236A2046984704
:103A400094F8283013F0040FECD0A36933449E425D
:103A500007D26360246129460E4B1868FEF79DFE6D
:103A6000E0E7002100910B4632462046FFF7A2FF17
:103A70000028D7D14FF0500383F31188BFF36F8F25
:103A8000BFF34F8FFEE7044A1068024908601360D5
:103A900002B070BD0C0800200808002038B50546AB
:103AA000FFF744FC0446074B1B68834205D80023FC
:103AB0002B60044B1C60204638BDFFF7B1FF01238B
:103AC0002B60F6E7FC07002070B582B006460D4675
:103AD00017490968C968CC68201DFEF777FE94F87D
:103AE00028C01CF0040F08D12CF0010C84F828C069
:103AF000236A2046984702B070BDA16933462A4622
:103B000031442046FFF7C8FE0028F1D00021009183
:103B10000B4632462046FFF74DFF0028E8D14FF014
:103B2000500383F31188BFF36F8FBFF34F8FFEE70E
:103B30000C08002070B582B006460C46FFF7EEFB7D
:103B400001A8FFF7ABFF019B33BB0546E4B9B042C8
:103B500013D22246711B124B1868FFF775F9FFF755
:103B600077FCD8B94FF0E0234FF08052C3F8042D12
:103B7000BFF34F8FBFF36F8F10E0FFF769FC29464B
:103B80003046FFF7A1FF09E0064A126812680AB939
:103B90000124DEE71C46DCE7FFF75AFC02B070BDEB
:103BA000040800200808002010B588B002E0049B3B
:103BB000002B0FDA002204A93D4B1868FFF781F8AB
:103BC000002873D0049B002BF1DA07990698059B17
:103BD0009847ECE7069C636913B1201DFEF7F6FDDC
:103BE00003A8FFF75BFF049B092BE3D8DFE803F092
:103BF0000505053037500505303794F8283043F077
:103C0000010384F82830059BA16902461944204627
:103C1000FFF742FE0028CDD0236A2046984794F84B
:103C2000283013F0040FC5D0A269002100910B4683
:103C3000059802442046FFF7BDFE0028BAD14FF098
:103C4000500383F31188BFF36F8FBFF34F8FFEE7ED
:103C500094F8283023F0010384F82830AAE794F878
:103C6000283043F0010384F828300599A16131B16F
:103C70000346024601442046FFF70EFE9AE74FF046
:103C8000500383F31188BFF36F8FBFF34F8FFEE7AD
:103C900094F8283013F0020F04D023F0010384F8C5
:103CA000283087E7204600F0B5F983E708B010BD5B
:103CB0000408002000B583B001A8FFF7DDFD0199DD
:103CC000FFF738FFFFF770FFF6E708B54FF0E02386
:103CD0001B69FFF779FD012800D108BD00F0B2FA99
:103CE000FBE70000EFF305832BB9064B186828B9F2
:103CF00001221A6070476FF0050070474FF0FF30E7
:103D0000704700BFF00E0020EFF3058373B90A4B34
:103D10001B68012B0DD110B50024084BDC77064B36
:103D200002221A60FFF7AEFA204610BD6FF00500C0
:103D300070474FF0FF307047F00E002000ED00E0BC
:103D4000F0B587B000240594EFF3058474BB68B325
:103D500022B31568936903B918235C1E372C49D820
:103D6000546814F0010F47D156696EB14FEA960CB2
:103D700094682CB1D7685B2F02D9176907B1C6B90F
:103D80002CB14FF0FF340EE04FF0800CF0E7D46818
:103D90008CB9146994B14FF0FF3404E01546002447
:103DA00018234FF0800C012C0AD0ACB1059807B055
:103DB000F0BD0124F7E74FF0FF34F4E70024F2E709
:103DC000146992680292019400930B466246294658
:103DD000FFF7EAF90590E9E705AA019200930B467F
:103DE0001FFA8CF22946FFF71AFA0128DED00023C9
:103DF0000593DBE70020DAE70020D8E708B5EFF30A
:103E0000058333B908B9002008BDFFF79DFB0020EA
:103E1000FAE76FF00500F7E7034B0360034B0B6015
:103E200080231360704700BF940E0020940C002084
:103E3000034B0360034B0B604FF4807313607047B8
:103E4000380C002038080020124A12F0070F1ED04C
:103E5000D11D21F00701C1F5705313440A460E48E5
:103E60000260002141601344083B23F007030B4824
:103E7000036059601960991A51601360084B19600A
:103E8000084B1960084B4FF000421A6070474FF41E
:103E90007053E4E7140F00200C0F0020080F0020DF
:103EA000000F0020040F0020F40E0020164B1A46CD
:103EB0001B688342FBD3516802EB010C844509D097
:103EC000416800EB010C634509D00360904219D0B2
:103ED000106070474068014451601046F0E710B42C
:103EE0000A4C2468A3420BD05B68194441601368F4
:103EF0001B680360904200D010605DF8044B70476F
:103F00000460F7E7704700BF0C0F0020080F002087
:103F100038B50446FFF702FA384B1B68B3B1384B8B
:103F20001B681C4250D1002C50D004F1080214F040
:103F3000070F02D022F007020832002A55D0314B79
:103F40001B68934253D330490C6804E0FFF77CFFB1
:103F5000E5E721461C466368934202D22368002BA2
:103F6000F7D1264B1B68A34243D00D680835236860
:103F70000B6063689B1A102B10D9A01810F0070F64
:103F800008D04FF0500383F31188BFF36F8FBFF356
:103F90004F8FFEE743606260FFF788FF6268194950
:103FA0000B689B1A0B60194909688B4201D21749AB
:103FB0000B60134B1B681343636000232360144A98
:103FC00013680133136002E0002500E00025FFF7CD
:103FD0003FFA15F0070F0ED04FF0500383F311880E
:103FE000BFF36F8FBFF34F8FFEE70025EFE700258C
:103FF000EDE70025EBE7284638BD00BF080F00209D
:10400000F40E0020040F00200C0F0020000F0020F1
:10401000FC0E0020002834D038B50446A0F1080575
:1040200050F8043C174A1268134208D14FF050036D
:1040300083F31188BFF36F8FBFF34F8FFEE750F804
:10404000081C41B14FF0500383F31188BFF36F8F09
:10405000BFF34F8FFEE723EA020340F8043CFFF76B
:104060005DF954F8041C084A13680B441360284691
:10407000FFF71CFF054A136801331360FFF7E8F9E7
:1040800038BD7047F40E0020040F0020F80E002009
:1040900082B0002301930D4B1B68B3F1FF3F08D0A2
:1040A0004FF0500383F31188BFF36F8FBFF34F8F2F
:1040B000FEE74FF0500383F31188BFF36F8FBFF318
:1040C0004F8F019B002BFCD002B070470C000020EA
:1040D00008480068006880F308884FF0000080F30B
:1040E000148862B661B6BFF34F8FBFF36F8F00DFE6
:1040F00000BF000008ED00E0DFF80C00016841F4AB
:10410000700101607047000088ED00E04FF080739F
:1041100040F8043C21F0010140F8081C054B40F830
:104120000C3C40F8202C6FF0020340F8243C44384B
:10413000704700BF91400008000000000000000030
:10414000074B19680868B0E8F04F80F30988BFF39F
:104150006F8F4FF0000080F311887047AFF300803D
:10416000080700204FF0500383F31188BFF36F8FCF
:10417000BFF34F8F0B4A136801331360012B00D03C
:1041800070474FF0E023D3F8043D13F0FF0FF7D052
:104190004FF0500383F31188BFF36F8FBFF34F8F3E
:1041A000FEE700BF0C000020094B1B6843B94FF02D
:1041B000500383F31188BFF36F8FBFF34F8FFEE778
:1041C000013B034A13600BB983F31188704700BFAA
:1041D0000C000020000000000000000000000000B3
:1041E000EFF30980BFF36F8F154B1A681EF0100FA5
:1041F00008BF20ED108A20E9F04F10602DE909007A
:104200004FF0500080F31188BFF34F8FBFF36F8FD3
:10421000FFF7C0F94FF0000080F3118809BC19685E
:104220000868B0E8F04F1EF0100F08BFB0EC108A1D
:1042300080F30988BFF36F8F704700BFAFF3008032
:104240000807002008B54FF0500383F31188BFF32F
:104250006F8FBFF34F8FFFF76FF828B14FF0E02358
:104260004FF08052C3F8042D002383F3118808BD5A
:104270004FF0E022002313619361054B1B68054951
:10428000A1FB03139B09013B536107231361704793
:1042900008000020D34D62104FF0E023D3F8002D2A
:1042A0003D4B9A421CD04FF0E023D3F8002D3B4BFE
:1042B0009A421ED030B583B0394B1A78D2B20192EF
:1042C000FF221A701B78DBB28DF803309DF80330A3
:1042D00003F05003334A1370334B07221A601BE07C
:1042E0004FF0500383F31188BFF36F8FBFF34F8FED
:1042F000FEE74FF0500383F31188BFF36F8FBFF3D6
:104300004F8FFEE7284A1368013B13609DF8033086
:104310005B00DBB28DF803309DF8033013F0800FA3
:10432000F0D1214B1B68032B08D04FF0500383F3CF
:104330001188BFF36F8FBFF34F8FFEE71B021A4A3E
:10434000136003F4E0631360019BDBB2144A137043
:104350004FF0E024D4F8203D43F47003C4F8203D2E
:10436000D4F8203D43F07043C4F8203DFFF780FFB0
:1043700000250E4B1D60FFF7BFFED4F8343F43F01D
:104380004043C4F8343FFFF7A3FEFFF703F9FFF7FC
:104390007FFE284603B030BD71C20F4170C20F418D
:1043A00000E400E0184B0020144B00200C0000201B
:1043B000EFF305830F2B0FD9114A9B5CDBB2114A37
:1043C00012789A4208D94FF0500383F31188BFF353
:1043D0006F8FBFF34F8FFEE74FF0E023D3F80C3D14
:1043E00003F4E063084A1268934208D94FF050037F
:1043F00083F31188BFF36F8FBFF34F8FFEE77047D2
:10440000F0E300E0184B0020144B002030B589B0D9
:10441000044600230193224B1A6C42F001021A64F5
:104420001B6C03F001030193019B02A903A8FDF794
:10443000D9FB069BD3B9FDF7B5FB0346194AA2FB8E
:1044400003239B0C013B18484FF08042026040F26E
:10445000E732C26043600023036183608361FCF73D
:1044600033FF054630B1284609B030BDFDF79AFB51
:104470004300E3E70C48FCF7BDFD05460028F2D1F8
:104480001C20FDF78DFD0F2C01D90125EBE7002243
:1044900021461C20FDF774FD044B1C60E3E700BFC0
:1044A0000038024083DE1B431C4B00200400002028
:1044B000DFF834D00D480E490E4A002302E0D458EC
:1044C000C4500433C4188C42F9D30B4A0B4C00235C
:1044D00001E013600432A242FBD3FDF7AFFD00F010
:1044E00069FAFCF7ADFB70470000022000000020D5
:1044F0006C000020345700086C000020B44C0020F1
:10450000FEE70000002310B50446C0E90033C0E90F
:104510000433836081814366C28183611946082226
:104520005C3000F0F9F90D4B63620D4BA3620D4B4B
:10453000E3620D4B23630D4B24629C4206D003F1D2
:104540006802944202D0D0339C4205D104F1580055
:10455000BDE8104000F052BA10BD00BF6947000826
:104560008B470008C3470008E7470008644B00205A
:10457000024A0349034800F069B800BF1000002058
:10458000A55200082000002041680C4B994210B54C
:10459000044601D000F086FEA168094B994202D082
:1045A000204600F07FFEE168064B994204D0204689
:1045B000BDE8104000F076BE10BD00BF644B002087
:1045C000CC4B0020344C002010B50B4B0B4C0C4A4C
:1045D0001A60204600220421FFF794FF04F16800CE
:1045E00001220921FFF78EFF04F1D0000222BDE86D
:1045F00010401221FFF786BF9C4C0020644B002026
:1046000071450008014800F0FAB900BFA54C002030
:10461000014800F0F5B900BFA54C002010B50446D4
:10462000FFF7F0FF236A1BB1BDE81040FFF7F0BFB2
:10463000044B2362044B1B68002BF5D1FFF7C4FF2A
:10464000F2E700BF894500089C4C00202DE9F843A3
:104650000746884614460026D4E90195B9F10109B8
:1046600005D52468002CF7D13046BDE8F883AB8926
:10467000012B07D9B5F90E30013303D0294638464E
:10468000C04706436835E9E70FB407B5064904ABF0
:10469000086853F8042B8168019300F0DBFA03B03B
:1046A0005DF804EB04B070471C000020036A70B58D
:1046B000846805460E460BB9FFF7B0FF636EDB0753
:1046C00005D4A389980502D4A06D00F098F9A389B8
:1046D000190702D52369002B35D12146284600F061
:1046E000C5F880B34FF0FF35636EDA0705D4A389B0
:1046F0009B0502D4A06D00F083F9284670BD002B05
:1047000004DAA2699A4217DC0A2915D023685A1CD8
:1047100022601970A36816F8011F013BA3600029ED
:10472000EDD1002B11DA22460A21284600F05FF86D
:104730000130D7D00A25D7E72246284600F057F89F
:104740000130E7D1CEE7013EE4E723685A1C22603E
:104750000A221A70EEE70000024B01461868FFF7C4
:10476000A5BF00BF1C00002010B50C46B1F90E100B
:1047700000F0FCF80028ABBF636DA3891B1823F47D
:104780008053ACBF6365A38110BD2DE9F0411F4686
:104790008B89DB0505460C46164605D5B1F90E108A
:1047A0000223002200F0D0F8A389B4F90E1023F4FC
:1047B0008053A38132463B462846BDE8F04100F0D5
:1047C000E7B810B50C46B1F90E1000F0BDF8431C67
:1047D000A38915BF606523F4805343F48053A381FC
:1047E00018BFA38110BDB1F90E1000F09DB8F8B547
:1047F0000E461446054618B1036A0BB9FFF70EFFC3
:10480000A369A360A3891A0701D5236943B9214687
:10481000284600F02BF818B14FF0FF373846F8BDA6
:1048200023682269981A6369F6B28342374605DC29
:104830002146284600F036FD0028EDD1A368013B53
:10484000A36023685A1C22601E706269431C9A424E
:1048500004D0A389DB07E1D50A2EDFD12146284603
:1048600000F020FD0028D9D0D6E7000038B5294B4C
:10487000054618680C4618B1036A0BB9FFF7CEFE5F
:10488000B4F90C30190722D4DA0607D409222A60B9
:1048900043F04003A3814FF0FF3033E0580712D5B7
:1048A000616B41B104F14403994202D0284600F003
:1048B000B7F800236363A38923F02403A3810023B3
:1048C000636023692360A38943F00803A3812369FC
:1048D0004BB9A38903F42073B3F5007F03D02146BD
:1048E000284600F02DFDB4F90C3013F001020AD077
:1048F0000022A26062695242A261226942B913F0A9
:104900008000C5D138BD990758BF6269A260F4E73D
:104910000020F7E71C00002002440346934200D128
:10492000704703F8011BF9E738B5064D002304462C
:1049300008462B6000F072FD431C02D12B6803B1C6
:10494000236038BDA04C002038B5074D044608460A
:10495000114600222A601A4600F078FD431C02D15D
:104960002B6803B1236038BDA04C002038B5074D3B
:1049700004460846114600222A601A4600F06EFDE1
:10498000431C02D12B6803B1236038BDA04C00202A
:1049900038B5074D04460846114600222A601A46DB
:1049A000FCF71EF8431C02D12B6803B1236038BD0D
:1049B000A04C002070B50D4D0D4C641BA4100026BA
:1049C000A64209D10B4D0C4C00F05EFD641BA410F7
:1049D0000026A64205D170BD55F8043B9847013624
:1049E000EEE755F8043B98470136F2E72C570008EC
:1049F0002C5700082C5700083057000870477047A4
:104A000070470A44914200F1FF3300D1704710B55E
:104A100011F8014B03F8014F9142F9D110BD00008C
:104A200038B50546002941D051F8043C0C1F002B35
:104A3000B8BFE41800F0D8F81D4A136833B96360B2
:104A400014602846BDE8384000F0D4B8A34208D925
:104A5000206821188B4201BF19685B680918216022
:104A6000EDE71A465B680BB1A342FAD911685018FA
:104A7000A0420BD120680144501883421160E0D15C
:104A800018685B68536008441060DAE702D90C23A9
:104A90002B60D6E7206821188B4204BF19685B6839
:104AA000636004BF091821605460CAE738BD00BFC5
:104AB000AC4C002070B50F4E0C463168054611B95C
:104AC00000F09CFC30602146284600F097FC431C17
:104AD00003D14FF0FF34204670BDC41C24F0030402
:104AE000A042F8D0211A284600F088FC0130F2D10B
:104AF000EFE700BFA84C00202DE9F041CD1C25F0C8
:104B0000030508350C2D38BF0C25002D064601DBAA
:104B1000A94204D90C2333600020BDE8F081314F55
:104B200000F062F83B681C4644BB29463046FFF75C
:104B3000C1FF431C044650D13C682146002941D1A5
:104B4000002C44D02368304604EB030800F056FCE8
:104B500080453CD121686D1A29463046FFF7AAFFEF
:104B6000013034D023682B4423603B68002B36D0BF
:104B70005A68A24229D100225A600EE02268521BD4
:104B80001DD40B2A16D96119A342256018BF59609C
:104B9000636808BF396062514B60304600F02AF804
:104BA00004F10B00231D20F00700C21AB5D01B1A18
:104BB000A350B2E7A3426268DED13A60EDE7234634
:104BC0006468B1E70C464968B8E71346CEE70C23A2
:104BD0003360304600F00EF89EE70560DDE75B606D
:104BE000FFDE00BFAC4C00200148FFF708BF00BF4C
:104BF000A44C00200148FFF703BF00BFA44C0020D5
:104C00009368013B002B10B4936008DA9469A342C7
:104C100001DB0A2903D15DF8044BFFF7E8BD1368F7
:104C2000581C1060197008465DF8044B7047F8B5C1
:104C300006460F461446D518AC4201D1002007E0C5
:104C400014F8011B3A463046FFF7DAFF431CF3D154
:104C5000F8BD00002DE9F04F0D469DB01446984672
:104C6000064618B1036A0BB9FFF7D8FC6B6ED9077B
:104C700005D4AB899A0502D4A86DFFF7C0FEAB89B5
:104C80001B0701D52B699BB929463046FFF7EEFD7E
:104C900070B16B6EDC0704D54FF0FF301DB0BDE87E
:104CA000F08FAB899805F7D4A86DFFF7A9FEF3E75D
:104CB0000023099320238DF82930CDF80C80302370
:104CC000DFF8AC818DF82A304FF0010923469A466F
:104CD00013F8012B0AB1252AF9D1BAEB040B0BD03A
:104CE0005B46224629463046FFF7A1FF013000F01F
:104CF000A780099A5A4409929AF80030002B00F0D4
:104D00009F8000234FF0FF32CDE905230AF1010A0D
:104D1000049307938DF853301A935446052214F8E0
:104D2000011B5348FBF77CFA049AD8B9D10644BF5B
:104D300020238DF85330130744BF2B238DF85330B5
:104D40009AF800302A2B15D0079A544600204FF0CD
:104D50000A0C214611F8013B303B092B4BD9B0B16D
:104D6000079214E0A0EB080309FA03F3134304933A
:104D7000A246D2E7039B191D1B680391002BBBBF02
:104D80005B4242F0020207930793B8BF0492237874
:104D90002E2B0AD163782A2B32D1039B1A1D1B6854
:104DA000039243EAE37302340593DFF8D4A0217839
:104DB00003225046FBF734FA38B1049BA0EB0A00FB
:104DC0004022824013430134049314F8011B294804
:104DD0008DF828100622FBF723FA00283FD0264B37
:104DE0001BBB039B073323F0070308330393099B83
:104DF0003B4409936AE70CFB02320C460120A8E70A
:104E000000230134059319464FF00A0C204610F890
:104E1000012B303A092A03D9002BC6D00591C4E7EB
:104E20000CFB012104460123F0E703AB00932A4663
:104E3000124B04A93046AFF300800746781CD6D148
:104E40006B6ED90705D4AB899A0502D4A86DFFF71C
:104E5000D7FDAB895B063FF51FAF09981EE703AB93
:104E600000932A46054B04A9304600F079F8E4E7A0
:104E7000F0560008FA560008000000002F4C000809
:104E8000F65600082DE9F047164698468A680B69E1
:104E9000DDF820909342B8BF1346336091F8432069
:104EA00007460C460AB1013333602368990642BFB6
:104EB000336802333360256815F0060506D104F126
:104EC000190AE36832689B1AAB4226DC94F8433037
:104ED0002268003B18BF012392062BD404F1430241
:104EE00041463846C84701301ED02368226903F086
:104EF0000603042B02BFE5683368ED1AA3680CBFF4
:104F000025EAE57500259342C4BF9B1AED180026DB
:104F10001A34B5421AD1002008E001235246414616
:104F20003846C847013003D14FF0FF30BDE8F08765
:104F30000135C6E7E1185A1C302081F843002244AD
:104F400094F8451082F843100233C7E70123224644
:104F500041463846C8470130E6D00136D9E700005F
:104F60002DE9FF470F7E0C9E782F914680460C4618
:104F70009A4601F1430207D8622F0AD8002F00F0A9
:104F8000D180582F00F0B88004F1420684F84270B6
:104F90003AE0A7F16303152BF6D801A151F823F0ED
:104FA000F94F00080D500008894F0008894F00088C
:104FB000894F0008894F00080D500008894F0008EC
:104FC000894F0008894F0008894F00080B510008DD
:104FD00037500008C5500008894F0008894F000865
:104FE0002D510008894F000837500008894F0008EC
:104FF000894F0008CD50000833681A1D1B683260C5
:1050000004F1420684F8423001239CE033682068B2
:10501000191D3160060601D51D6803E04506FBD564
:10502000B3F90050002D03DA2D236D4284F843308C
:1050300058480A2311E021683368080653F8045BD6
:1050400002D4490648BFADB26F2F5248336014BF37
:105050000A230823002184F843106668A660002E06
:1050600005DB21682E4321F0040121604BD0164658
:10507000B5FBF3F103FB1157C75D06F8017D2F4621
:10508000BB420D46F4D9082B0BD12368DF0708D5A6
:10509000236961689942DEBF302306F8013C06F1BE
:1050A000FF36921B2261CDF800A04B4603AA214691
:1050B0004046FFF7E7FE01304AD14FF0FF3004B021
:1050C000BDE8F087236843F0200323603248782747
:1050D00084F84570236831681F0651F8045B02D4D8
:1050E0005F0648BFADB23160D90744BF43F020032B
:1050F00023601DB11023ADE72648E9E7236823F0BC
:1051000020032360F6E71646BDE73368256861692A
:10511000181D30602E061B6801D5196002E0680674
:10512000FBD51980002323611646BCE733681A1D9E
:1051300032601E68626800213046FBF771F808B1E2
:10514000801B606063682361002384F84330AAE712
:105150002369324649464046D0470130ADD02368E6
:105160009B0713D4E068039B9842B8BF1846A6E794
:105170000123324649464046D04701309DD0013593
:10518000E36803995B1AAB42F2DCEBE7002504F11C
:105190001906F5E70157000812570008B1F90C206D
:1051A0002DE9F041160705460C4654D44B68002BF8
:1051B00002DC0B6C002B48DDE66A002E45D0002394
:1051C00012F480522F68216A2B6030D0626DA3895F
:1051D000590705D56368D21A636B0BB1236CD21AD9
:1051E0000023E66A216A2846B047431CA38906D1FA
:1051F00029681D292BD82A4ACA40D60727D500225C
:105200006260D9042269226004D5421C01D12B6856
:1052100003B96065616B2F60B9B104F14403994231
:1052200002D02846FFF7FCFB002363630DE0012357
:105230002846B0470246501CC9D12B68002BC6D067
:105240001D2B01D0162B1ED12F60002022E043F031
:1052500040031BB21BE00F69002FF6D093070E68C6
:1052600008BF4B690F6018BF0023A6EB07088B60CF
:10527000B8F1000FE9DD216AA66A43463A4628469E
:10528000B047002808DCB4F90C3043F04003A38198
:105290004FF0FF30BDE8F0810744A8EB0008E7E7D6
:1052A0000100402038B50B6905460C4613B90025AE
:1052B000284638BD18B1036A0BB9FFF7AFF9B4F946
:1052C0000C30002BF3D0626ED00704D4990502D4C1
:1052D000A06DFFF794FB28462146FFF75FFF636E42
:1052E000DA070546E4D4A3899B05E1D4A06DFFF756
:1052F00087FBDDE770B50C46B1F90E10002996B0BA
:1053000015461E460DDAA38913F0800F4FF00001F9
:1053100014BF40234FF48063002031602B6016B02F
:1053200070BD6A4600F048F80028ECDB019901F4F2
:105330007041A1F50053594259414FF48063EBE7A6
:105340008B89F7B59D0706460C4607D504F1470340
:10535000236023610123636103B0F0BD01AB6A46A2
:10536000FFF7C8FF009F054639463046FFF7C4FBEC
:1053700048B9B4F90C309A05EED423F0030343F096
:105380000203A381E2E7A389206043F08003A381A5
:10539000019BC4E904075BB1B4F90E10304600F07C
:1053A0001DF828B1A38923F0030343F00103A3816F
:1053B000A3891D43A581CFE738B5074D00230446D7
:1053C000084611462B6000F031F8431C02D12B68CF
:1053D00003B1236038BD00BFA04C002038B5064D96
:1053E0000023044608462B6000F028F8431C02D135
:1053F0002B6803B1236038BDA04C002038B5064DA2
:105400000023044608462B6000F030F8431C02D10C
:105410002B6803B1236038BDA04C0020024B5822FA
:105420001A604FF0FF307047A04C0020024B58220A
:105430001A604FF0FF307047A04C0020024B5822FA
:105440001A600020704700BFA04C0020024B582279
:105450001A604FF0FF307047A04C0020024B5822DA
:105460001A604FF0FF307047A04C0020044A0549F5
:105470001368002B08BF0B4618441060184670478D
:10548000B04C0020B84C0020F8B500BFF8BC08BCF8
:105490009E467047F8B500BFF8BC08BC9E467047F2
:1054A0005AA50582500100004D656E752069736E26
:1054B0002774206368616E6765642E003E3E20534A
:1054C000686F77200000000053657420706172617E
:1054D0006D6574657273206F66204D6561737572BA
:1054E000656D656E7473000048616E646C65206D57
:1054F0006F6465206D6561737572656D656E74733B
:10550000000000004175746F6D61746963206D6FF8
:105510006465206D6561737572656D656E74730089
:1055200056696577204C6F677300000044696167B6
:1055300072616D20766965770000000053657474B0
:10554000696E677300000000416476616E63656494
:105550002073657474696E67730000004D616E7529
:1055600066616374757265722073657474696E67C1
:10557000730000006572726F723A204E4F542064BF
:105580006566696E65640000206D656E752E0000AD
:105590004E6F206B65792074726170004B65795095
:1055A0006164000048656C6C6F2C202573210A0033
:1055B0005553415254330000466F72206D6573732A
:1055C00061676573207765207573696E672C202588
:1055D000730A00005AA50483510301006D794274D7
:1055E0006E5363616E0000006D794C616D70000058
:1055F00064656661756C745461736B0049444C4515
:1056000000000000546D725100000000546D7220C3
:1056100053766300DC550008000000000000000025
:105620000000000000000000000200001800000060
:105630000000000000000000E85500080000000025
:105640000000000000000000000000000002000058
:10565000180000000000000000000000F0550008E5
:10566000000000000000000000000000000000003A
:105670000002000018000000000000000000000010
:1056800023393633303835322A3734315271554464
:10569000514C656463626164000101010001000016
:1056A00001000101000000000101000100000000F4
:1056B00001010100010100000100000100000000E3
:1056C00001000001000001010000000000010000D5
:1056D00000000000000100000000000001020304BF
:1056E0000000000000000000010203040607080992
:1056F000232D302B2000686C4C00656667454647BB
:10570000003031323334353637383941424344453D
:1057100046003031323334353637383961626364AC
:0457200065660000BA
:08572400FCAAFF7F0100000058
:04572C00F901000877
:04573000D10100089B
:10573400012E0100100000000024F400AAAAAAAA65
:105744000000000003000000644B00202000002043
:1057540000000000644B0020CC4B0020344C00209F
:105764000000000000000000000000000000000035
:105774000000000000000000000000000000000025
:105784000000000000000000000000000000000015
:0C57940000000000000000000000000009
:04000005080044B1FA
:00000001FF
