:020000040800F2
:1000000000000220DD16000811080008130800088F
:10001000150800081708000819080008000000006B
:100020000000000000000000000000001B080008A5
:100030001D080008000000001F0800082108000833
:100040002D1700082D1700082D1700082D17000880
:100050002D1700082D1700082D1700082D17000870
:100060002D1700082D1700082D1700082D17000860
:100070002D1700082D1700082D1700082D17000850
:100080002D1700082D1700082D1700082D17000840
:100090002D1700082D1700082D1700082D17000830
:1000A0002D1700082D1700082D1700082D17000820
:1000B0002D1700082D1700082D1700082D17000810
:1000C0002D1700082D1700082D1700082D17000800
:1000D0002D1700082D1700082D1700082D170008F0
:1000E0002D1700082D1700082D1700082D170008E0
:1000F0002D1700082D1700082D1700082D170008D0
:100100002D1700082D1700082D1700082D170008BF
:100110002D1700082D1700082D1700082D170008AF
:100120002D1700082D1700082D1700082D1700089F
:100130002D17000800000000000000002D17000827
:100140002D1700082D1700082D1700082D1700087F
:100150002D1700082D1700082D1700082D1700086F
:100160002D1700082D1700082D1700082D1700085F
:100170002D1700082D1700080000000000000000E7
:080180002D1700082D170008DF
:100190000348044B834202D0034B03B11847704716
:1001A0006800002068000020000000000548064BA1
:1001B0001B1AD90F01EBA301491002D0034B03B165
:1001C0001847704768000020680000200000000009
:1001D00010B5064C237843B9FFF7DAFF044B13B18F
:1001E0000448AFF300800123237010BD6800002095
:1001F00000000000DC25000808B5044B1BB10449D1
:100200000448AFF30080BDE80840CFE700000000DD
:100210006C000020DC250008000000000000000049
:1002200001F0FF01102A2BDB10F0070F08D010F8A7
:10023000013B013A8B422DD010F0070F42B3F6D1AB
:10024000F0B441EA012141EA014122F007047FF0C4
:1002500000070023F0E80256083C85EA010586EA1B
:10026000010685FA47F5A3FA87F586FA47F6A5FA57
:1002700087F68EB9EED1F0BC01F0FF0102F0070263
:1002800032B110F8013B013A83EA010313B1F8D10E
:100290000020704701387047002D06BF35460338EF
:1002A000073815F0010F07D1013015F4807F02BF28
:1002B000013015F4C03F0130F0BC0138704700BF79
:1002C00053B94AB9002908BF00281CBF4FF0FF31BD
:1002D0004FF0FF3000F06AB9ADF1080C6DE904CEC3
:1002E00000F006F8DDF804E0DDE9022304B0704711
:1002F0002DE9F047089D0E4604460F46002B4AD1D3
:1003000094468C45B2FA82F260D942B1C2F1200320
:10031000974020FA03F30CFA02FC1F4394404FEA83
:100320001C4E1FFA8CF6B7FBFEF1230C0EFB117767
:1003300043EA074301FB06F098420AD91CEB03038A
:1003400001F1FF3780F01581984240F212810239A5
:1003500063441B1AA4B2B3FBFEF00EFB103344EA55
:10036000034400FB06F6A6420AD91CEB040400F184
:10037000FF3380F00081A64240F2FD8064440238E1
:1003800040EA0140A41B00211DB1D4400023C5E96F
:100390000043BDE8F0878B4205D90DB1C5E90001E6
:1003A00000210846F5E7B3FA83F1002946D1B342AC
:1003B00002D3824200F2F580841A66EB0302012028
:1003C0001746002DE5D0C5E90047E2E7002A40F0D6
:1003D0009380A1EB0C034FEA1C471FFA8CFE01210E
:1003E000B3FBF7F607FB1630230C43EA00430EFB82
:1003F00006F0984208D91CEB030306F1FF3802D23D
:10040000984200F2D08046461B1AA4B2B3FBF7F024
:1004100007FB103344EA03440EFB00FEA64508D94F
:100420001CEB040400F1FF3302D2A64500F2B680B3
:100430001846A4EB0E0440EA0640A5E7C1F12007E8
:100440008B4022FA07FC4CEA030C06FA01FE20FA64
:1004500007F426FA07F344EA0E0400FA01F84FEA1B
:100460001C404FEA1449B3FBF0FE1FFA8CF600FB68
:100470001E3349EA03430EFB06F9994502FA01F2DD
:100480000BD91CEB03030EF1FF3A80F085809945F0
:1004900040F28280AEF1020E6344A3EB0909A4B2DC
:1004A000B9FBF0F300FB139944EA094403FB06F699
:1004B000A64208D91CEB040403F1FF3068D2A6421F
:1004C00066D9023B644443EA0E40A41BA0FB02E64B
:1004D000B4427346B14652D34FD05DB1B8EB03027C
:1004E00064EB090404FA07F722FA01F31F43CC4036
:1004F000C5E9007400214CE7C2F1200120FA01F3A4
:100500000CFA02FC26FA01F1964033434FEA1C47ED
:100510001FFA8CFEB1FBF7F007FB1016190C41EA2D
:10052000064100FB0EF68E4204FA02F408D91CEBD9
:10053000010100F1FF382DD28E422BD902386144DF
:10054000891B9BB2B1FBF7F607FB161143EA014387
:1005500006FB0EF1994208D91CEB030306F1FF38A4
:1005600014D2994212D9023E63445B1A46EA004112
:1005700036E73946EDE6184602E7F045ADD2BEEB68
:10058000020366EB0C060138B146A6E74646ECE7E7
:10059000034698E74046D3E7D6467EE764440238F0
:1005A00047E708460DE7023E63442DE7704700BF6A
:1005B00000B58BB00022059206920792089209922C
:1005C00000921F4B196B41F080011963196B01F008
:1005D0008001009100990192196B41F002011963A9
:1005E000196B01F00201019101990292196B41F01E
:1005F00001011963196B01F0010102910299039243
:10060000196B41F004011963196B01F004010391A6
:10061000039904921A6B42F008021A631B6B03F0F1
:1006200008030493049B4FF48073059302230693FD
:1006300005A9044800F01CFD0BB05DF804FB00BFE9
:10064000003802400000024010B51446012804D0D2
:1006500002280AD04FF0FF3006E04FF0FF3392B28D
:10066000064800F0CEFF204610BD4FF0FF3392B297
:10067000024800F0C6FF2046F6E700BF84000020D5
:1006800072B6FEE708B50A480A4B03604FF41653EA
:10069000436000238360C36003610C224261836175
:1006A000C36100F07FFF00B908BDFFF7E9FF00BF9D
:1006B000840000200048004008B50A480A4B036047
:1006C0004FF41653436000238360C36003610C2220
:1006D00042618361C36100F065FF00B908BDFFF7A7
:1006E000CFFF00BFC80000200050004000B595B00B
:1006F0003022002108A801F032F90023039304936B
:100700000593069307930193234A116C41F080519E
:100710001164126C02F080520192019A02931F4BF5
:100720001A6842F480421A601B6803F48043029303
:10073000029B012308934FF48033099302220E9207
:100740004FF480030F9304231093A8211191129268
:10075000139308A800F0FEF8D0B90F2303930223E7
:100760000493002305934FF4A05306934FF4805352
:100770000793052103A800F0A5FB58B94FF0C0620C
:100780004FF48001002000F0E1FA15B05DF804FBA1
:10079000FFF776FFFFF774FF00380240007000405B
:1007A00008B500F0EBFDFFF7A1FFFFF701FFFFF732
:1007B00069FFFFF781FF104D1049284601F07AF8D4
:1007C0000F4C4FF47A730D220E49204600F019FFAA
:1007D0004FF47A7000F0FEFD0B49284601F06AF8EC
:1007E0004FF47A730D220949204600F00AFF4FF4B6
:1007F0007A7000F0EFFDDEE700260008F42500081F
:10080000C80000200C2600081C260008242600082A
:10081000FEE7FEE7FEE7FEE7FEE77047704770473A
:1008200008B500F0C5FD08BD82B0002100910B4B5A
:100830005A6C42F480425A645A6C02F4804200922C
:10084000009A01911A6C42F080521A641B6C03F0FA
:1008500080530193019B02B0704700BF00380240F3
:10086000F0B58BB000230593069307930893099383
:100870000368324A934204D0314A934239D00BB0D4
:10088000F0BD002400942F4B1A6C42F480121A64BD
:100890001A6C02F480120092009A01941A6B42F0D2
:1008A00004021A631A6B02F004020192019A029484
:1008B0001A6B42F008021A631B6B03F008030293E1
:1008C000029B4FF480530593022706970326089650
:1008D0000825099505A91C4800F0CAFB04230593C7
:1008E000069707940896099505A9184800F0C0FBDB
:1008F000C5E700210391134B1A6C42F480221A645D
:100900001A6C02F480220392039A04911A6B42F04B
:1009100002021A631B6B03F002030493049B4FF45F
:100920004063059302230693032308930723099347
:1009300005A9074800F09CFBA1E700BF005000405C
:10094000004800400038024000080240000C02400D
:1009500000040240002800F0E08170B582B0044637
:10096000036813F0010F3BD09F4B9B6803F00C030F
:10097000042B2CD09C4B9B6803F00C03082B21D03C
:100980006368B3F5803F4FD0B3F5A02F52D0964B9C
:100990001A6822F480321A601A6822F480221A60DF
:1009A0006368002B50D000F00FFD05468E4B1B688E
:1009B00013F4003F14D100F007FD401B6428F5D963
:1009C0000320B1E1884B5B6813F4800FD8D0864BCD
:1009D0001B6813F4003F03D06368002B00F09F8175
:1009E000236813F0020F54D07F4B9B6813F00C0F59
:1009F0003ED07D4B9B6803F00C03082B33D0E3689B
:100A0000002B68D0794B01221A6000F0DDFC05460E
:100A1000754B1B6813F0020F54D100F0D5FC401B3E
:100A20000228F5D903207FE16F4A136843F480332D
:100A30001360B5E76C4B1A6842F480221A601A689A
:100A400042F480321A60ABE700F0BEFC0546664B0C
:100A50001B6813F4003FC3D000F0B6FC401B6428B1
:100A6000F5D9032060E1604B5B6813F4800FC6D1B9
:100A70005D4B1B6813F0020F03D0E368012B40F0BD
:100A80005081594A136823F0F803216943EAC103EE
:100A90001360236813F0080F42D063696BB3534BA4
:100AA0000122C3F8802E00F08FFC05464E4B5B6F91
:100AB00013F0020F34D100F087FC401B0228F5D957
:100AC000032031E1484A136823F0F803216943EA1F
:100AD000C1031360DDE7454B00221A6000F074FC8F
:100AE0000546414B1B6813F0020FD2D000F06CFC9E
:100AF000401B0228F5D9032016E13C4B0022C3F825
:100B0000802E00F061FC0546374B5B6F13F0020F3F
:100B100006D000F059FC401B0228F5D9032003E160
:100B2000236813F0040F77D02F4B1B6C13F0805FFA
:100B300033D1002301932C4B1A6C42F080521A647B
:100B40001B6C03F080530193019B0125284B1B680C
:100B500013F4807F23D0A368012B34D0052B38D029
:100B6000214B1A6F22F001021A671A6F22F0040259
:100B70001A67A368002B3DD000F026FC06461A4BEE
:100B80001B6F13F0020F46D100F01EFC801B41F2D8
:100B900088339842F3D90320C6E00025D6E7144AEB
:100BA000136843F48073136000F00EFC0646104B8C
:100BB0001B6813F4807FCED100F006FC801B022856
:100BC000F5D90320B0E0084A136F43F0010313671F
:100BD000CFE7054B1A6F42F004021A671A6F42F012
:100BE00001021A67C5E700BF003802400000474213
:100BF0000070004000F0E8FB0646524B1B6F13F0FC
:100C0000020F08D000F0E0FB801B41F288339842CD
:100C1000F3D9032088E0EDB9A369002B00F08380AD
:100C2000484A926802F00C02082A51D0022B17D0D1
:100C3000454B00221A6600F0C7FB0446414B1B6877
:100C400013F0007F42D000F0BFFB001B0228F5D953
:100C5000032069E03B4A136C23F080531364DBE705
:100C6000394B00221A6600F0AFFB0546354B1B6876
:100C700013F0007F06D000F0A7FB401B0228F5D937
:100C8000032051E0E369226A1343626A43EA821354
:100C9000A26A5208013A43EA0243E26A43EA026363
:100CA000284A5360284B01221A6600F08DFB044647
:100CB000244B1B6813F0007F06D100F085FB001B5E
:100CC0000228F5D903202FE000202DE000202BE0A2
:100CD000012B2BD01B4B5B6803F48001E26991422E
:100CE00026D103F03F02216A8A4223D1616A47F686
:100CF000C0721A40B2EB811F1ED103F44031A26AC8
:100D00005208013AB1EB024F18D103F07063E26A66
:100D1000B3EB026F14D1002006E0012070470120E0
:100D200002E0012000E0002002B070BD0120FBE7DE
:100D30000120F9E70120F7E70120F5E70120F3E7BB
:100D40000120F1E7003802400000474270B588B04A
:100D50000C46154600BB00230193204E326B42F037
:100D600001023263326B02F001020192019A4FF4E8
:100D70008072039202220492032206920593079343
:100D800003A9174800F074F9B36823F0EC63254316
:100D90001D43B56008B070BD002302930F4E326B47
:100DA00042F004023263326B02F004020292029AB1
:100DB0004FF40072039202220492032206920593DA
:100DC000079303A9074800F053F9B36823F0784369
:100DD00044EAC5041C43B460DCE700BF00380240AD
:100DE000000002400008024008B5334B9B6803F046
:100DF0000C03042B5BD0082B5BD12F4B5A6802F0FD
:100E00003F025B6813F4800F2CD02B4B5868C0F363
:100E100088104FEA401CBCEB000C6EEB0E0E4FEA44
:100E20008E1343EA9C634FEA8C11B1EB0C0163EB28
:100E30000E03DB0043EA5173C90011EB000C43F1D0
:100E40000003590200234FEA4C2041EADC51FFF72E
:100E500037FA194B5B68C3F3014301335B00B0FB06
:100E6000F3F008BD144B5868C0F388104FEA401CDB
:100E7000BCEB000C6EEB0E0E4FEA8E1343EA9C6344
:100E80004FEA8C11B1EB0C0163EB0E03DB0043EA7C
:100E90005173C90011EB000C43F1000399020023C8
:100EA0004FEA8C2041EA9C51FFF70AFAD1E7034848
:100EB000D7E70348D5E700BF0038024000127A00A8
:100EC0000024F400002800F09B8070B50D46044615
:100ED0004F4B1B6803F007038B4208D2CBB24C4A3E
:100EE0001370136803F007038B4240F08B80236874
:100EF00013F0020F17D013F0040F04D0454A936883
:100F000043F4E0539360236813F0080F04D0414A80
:100F1000936843F4604393603E4A936823F0F00380
:100F2000A1680B439360236813F0010F32D063680C
:100F3000012B21D09A1E012A25D9364A126812F0B7
:100F4000020F61D033498A6822F0030213438B6099
:100F500000F03AFA06462F4B9B6803F00C036268D8
:100F6000B3EB820F16D000F02FFA801B41F28833CA
:100F70009842F0D9032042E0264A126812F4003F5A
:100F8000E0D101203BE0234A126812F0007FD9D162
:100F9000012034E01E4B1B6803F00703AB4207D966
:100FA000EAB21B4B1A701B6803F00703AB422DD14A
:100FB000236813F0040F06D0164A936823F4E05315
:100FC000E1680B439360236813F0080F07D0114AC0
:100FD000936823F46043216943EAC1039360FFF7F8
:100FE00003FF0C4B9B68C3F303130B4AD35CD8403D
:100FF0000A4B18600A4B186800F09AF9002070BD7F
:10100000012070470120FAE70120F8E70120F6E708
:10101000003C0240003802403C2600080800002046
:1010200004000020014B1868704700BF0800002032
:1010300008B5FFF7F7FF044B9B68C3F38223034A0D
:10104000D35CD84008BD00BF0038024034260008F9
:1010500008B5FFF7E7FF044B9B68C3F34233034A2D
:10106000D35CD84008BD00BF0038024034260008D9
:1010700000230F2B00F2E98070B582B065E085682F
:101080004FEA430E032404FA0EF425EA0405CC6863
:1010900004FA0EF42C438460446824EA02044A688B
:1010A000C2F300129A40224342605CE0DC0808343C
:1010B00050F8242003F00705AD004FF00F0E0EFA94
:1010C00005FE22EA0E0E0A69AA4042EA0E0240F824
:1010D00024205CE0072200E0002202FA0EF22A43FC
:1010E00002345A4D45F82420594A94686FEA0C029C
:1010F00024EA0C054E6816F4801F01D04CEA040562
:10110000534CA560E46802EA04054E6816F4001F1B
:1011100001D04CEA04054E4CE560646802EA04051F
:101120004E6816F4003F01D04CEA0405484C656057
:10113000246822404D6815F4803F01D04CEA040237
:10114000434C226001330F2B7DD801229A400C685A
:1011500004EA020C32EA0404F4D14C6804F00304FB
:10116000013C012C8BD94A6802F00302032A09D002
:10117000C4685D000322AA4024EA02048A68AA40E7
:101180002243C2604A6802F00302022A8ED0046839
:101190004FEA430E032202FA0EF224EA02044A68DE
:1011A00002F0030202FA0EF2224302604A6812F4CD
:1011B000403FC7D000220192264A546C44F4804438
:1011C0005464526C02F480420192019A9C08A51C5E
:1011D0001E4A52F8255003F0030E4FEA8E0E0F22DE
:1011E00002FA0EF225EA02051B4A90423FF474AF60
:1011F00002F5806290421AD002F58062904218D0C7
:1012000002F58062904216D002F58062904214D0BE
:1012100002F58062904212D002F58062904210D0B6
:1012200002F5806290423FF455AF082255E7012253
:1012300053E7022251E703224FE704224DE705223C
:101240004BE7062249E702B070BD70470038014005
:10125000003C01400038024000000240002808DB4A
:101260000901C9B200F1604000F5614080F8001347
:10127000704700F00F000901C9B2014B19547047C3
:1012800014ED00E000B500F00700C0F1070CBCF160
:10129000040F28BF4FF0040C031D062B0FD9C31EEB
:1012A0004FF0FF3E0EFA0CF021EA000199400EFAD1
:1012B00003FE22EA0E0241EA02005DF804FB00236D
:1012C000EEE70000074AD36823F4E0631B041B0C1D
:1012D000000200F4E060034343F0BF6343F40033D3
:1012E000D360704700ED00E010B50446054BD868A8
:1012F000C0F30220FFF7C6FF01462046FFF7AEFF0E
:1013000010BD00BF00ED00E00138B0F1807F0BD2CE
:101310004FF0E0235861054AF02182F823100020A5
:10132000986107221A6170470120704700ED00E0C4
:1013300010B504460E4B1A784FF47A73B3FBF2F3F0
:101340000C4A1068B0FBF3F0FFF7DEFF68B90F2C12
:1013500001D901200AE0002221464FF0FF30FFF7BB
:10136000C3FF054B1C60002000E0012010BD00BF42
:1013700000000020080000200400002008B50B4BEE
:101380001A6842F400721A601A6842F480621A60A5
:101390001A6842F480721A600320FFF793FF0F204F
:1013A000FFF7C6FFFFF740FA002008BD003C0240EF
:1013B000034A1168034B1B780B441360704700BF4E
:1013C0000C01002000000020014B1868704700BF8E
:1013D0000C01002038B50446FFF7F6FF0546B4F1CE
:1013E000FF3F02D0044B1B781C44FFF7EDFF401B6E
:1013F000A042FAD338BD00BF00000020034AD2F853
:10140000883043F47003C2F88830704700ED00E084
:1014100010B504460268136923F44053C1680B43B6
:101420001361836802691A4343691A43C3691A4303
:101430000168CB6823F4164323F00C031343CB60FD
:101440000268536923F4407381690B435361036855
:10145000314A934206D002F58062934202D0FFF7F0
:10146000E7FD01E0FFF7F4FDE369B3F5004F29D094
:101470000021031849411B1841F10001C90041EA4C
:101480005371DB00181863684FEA83024FEA9373C5
:1014900041F10001FEF714FF204AA2FB0031490987
:1014A000642303FB11031B013233A2FB03235B09FB
:1014B00003F0F00202EB011203F00F032168134462
:1014C0008B6010BD0023021843EB0301121841F199
:1014D0000001C90041EA5271D200101841F1000127
:1014E000626892185B41FEF7EBFE0C4AA2FB0031EA
:1014F0004909642303FB1103DB003233A2FB0323FE
:101500005B095A0002F4F87202EB011203F00703C0
:10151000216813448B60D4E7001001401F85EB5114
:101520002DE9F84305460F4616469946DDF820801A
:101530002B681C6837EA04040CBF01240024B44261
:101540002DD1B8F1FF3FF3D0B8F1000F05D0FFF770
:101550003BFFA0EB09004045EAD92A6802F10C03E1
:1015600053E8003F23F4D0730C3242E800310029E5
:10157000F3D12A6802F1140353E8003F23F001037A
:10158000143242E800310029F3D1202385F83D30A0
:1015900085F83E30002385F83C30032000E0002031
:1015A000BDE8F88358B310B5044690F83D300BB34E
:1015B000242384F83D302268D36823F40053D36099
:1015C0002046FFF725FF2268136923F49043136137
:1015D0002268536923F02A0353612268D36843F4D5
:1015E0000053D36000202064202384F83D3084F829
:1015F0003E3010BD80F83C30FFF732F9D8E70120CB
:1016000070472DE9F04182B01E4690F83D30DBB2C4
:10161000202B54D104460D469046002953D0002A71
:1016200053D090F83C30012B51D0012380F83C304E
:1016300000230364212380F83D30FFF7C5FE0746F1
:10164000A4F82480A4F82680A368B3F5805F05D0B1
:101650004FF00008002384F83C3012E0236913B1F6
:101660004FF00008F6E7A8460025F3E738F8023BFC
:101670002268C3F308035360E28C92B2013A92B23B
:10168000E284E38C9BB273B100963B46002280213A
:101690002046FFF745FFE0B9002DE7D015F8012BF4
:1016A00023685A60E8E700963B4600224021204626
:1016B000FFF736FF78B9202384F83D3000E00220A0
:1016C00002B0BDE8F0810120FAE70120F8E702202E
:1016D000F6E70320F4E70320F2E70000DFF834D058
:1016E0000D480E490E4A002302E0D458C45004337A
:1016F000C4188C42F9D30B4A0B4C002301E0136051
:101700000432A242FBD3FFF779FE00F077F9FFF72E
:1017100047F8704700000220000000206800002009
:10172000902600086800002060020020FEE700000C
:10173000002310B50446C0E90033C0E904338360D8
:1017400081814366C2818361194608225C3000F0C2
:1017500006F90D4B63620D4BA3620D4BE3620D4B1B
:1017600023630D4B24629C4206D003F1680294422D
:1017700002D0D0339C4205D104F15800BDE810409E
:1017800000F060B910BD00BFD9180008FB180008B0
:10179000331900085719000810010020024A0349B4
:1017A000034800F069B800BF0C000020D1220008F7
:1017B0001C00002041680C4B994210B5044601D032
:1017C00000F086FDA168094B994202D0204600F046
:1017D0007FFDE168064B994204D02046BDE81040E9
:1017E00000F076BD10BD00BF100100207801002080
:1017F000E001002010B50B4B0B4C0C4A1A60204640
:1018000000220421FFF794FF04F16800012209215E
:10181000FFF78EFF04F1D0000222BDE81040122134
:10182000FFF786BF48020020100100209D17000826
:10183000014800F008B900BF51020020014800F043
:1018400003B900BF5102002010B50446FFF7F0FFB6
:10185000236A1BB1BDE81040FFF7F0BF044B2362C1
:10186000044B1B68002BF5D1FFF7C4FFF2E700BF64
:10187000B5170008480200202DE9F84307468846BE
:1018800014460026D4E90195B9F1010905D524686B
:10189000002CF7D13046BDE8F883AB89012B07D97E
:1018A000B5F90E30013303D029463846C047064308
:1018B0006835E9E70FB407B5064904AB086853F883
:1018C000042B8168019300F0DBF903B05DF804EBB1
:1018D00004B070471800002010B50C46B1F90E1086
:1018E00000F068F80028ABBF636DA3891B1823F4D0
:1018F0008053ACBF6365A38110BD2DE9F0411F4645
:101900008B89DB0505460C46164605D5B1F90E1048
:101910000223002200F03CF8A389B4F90E1023F44E
:101920008053A38132463B462846BDE8F04100F093
:1019300053B810B50C46B1F90E1000F029F8431C4D
:10194000A38915BF606523F4805343F48053A381BA
:1019500018BFA38110BDB1F90E1000F009B8024400
:101960000346934200D1704703F8011BF9E70000DA
:1019700038B5064D0023044608462B6000F0F8FDFC
:10198000431C02D12B6803B1236038BD4C020020F8
:1019900038B5074D04460846114600222A601A460B
:1019A00000F0FEFD431C02D12B6803B1236038BD5B
:1019B0004C02002038B5074D044608461146002267
:1019C0002A601A4600F0F4FD431C02D12B6803B1D3
:1019D000236038BD4C02002038B5074D0446084648
:1019E000114600222A601A46FEF72EFE431C02D141
:1019F0002B6803B1236038BD4C02002070B50D4D3B
:101A00000D4C641BA4100026A64209D10B4D0C4CB2
:101A100000F0E4FD641BA4100026A64205D170BDB1
:101A200055F8043B98470136EEE755F8043B9847D4
:101A30000136F2E788260008882600088826000874
:101A40008C260008704770477047000038B505467F
:101A5000002941D051F8043C0C1F002BB8BFE418FA
:101A600000F0D8F81D4A136833B963601460284643
:101A7000BDE8384000F0D4B8A34208D92068211846
:101A80008B4201BF19685B6809182160EDE71A46AF
:101A90005B680BB1A342FAD911685018A0420BD170
:101AA00020680144501883421160E0D118685B68D7
:101AB000536008441060DAE702D90C232B60D6E7A4
:101AC000206821188B4204BF19685B68636004BFFB
:101AD000091821605460CAE738BD00BF58020020D1
:101AE00070B50F4E0C463168054611B900F0ACFCDC
:101AF00030602146284600F0A7FC431C03D14FF07C
:101B0000FF34204670BDC41C24F00304A042F8D06A
:101B1000211A284600F098FC0130F2D1EFE700BF0F
:101B2000540200202DE9F041CD1C25F003050835B5
:101B30000C2D38BF0C25002D064601DBA94204D927
:101B40000C2333600020BDE8F081314F00F062F8D3
:101B50003B681C4644BB29463046FFF7C1FF431C87
:101B6000044650D13C682146002941D1002C44D084
:101B70002368304604EB030800F066FC80453CD146
:101B800021686D1A29463046FFF7AAFF013034D08C
:101B900023682B4423603B68002B36D05A68A2424E
:101BA00029D100225A600EE02268521B1DD40B2A54
:101BB00016D96119A342256018BF5960636808BF30
:101BC000396062514B60304600F02AF804F10B0096
:101BD000231D20F00700C21AB5D01B1AA350B2E78C
:101BE000A3426268DED13A60EDE723466468B1E75C
:101BF0000C464968B8E71346CEE70C2333603046FD
:101C000000F00EF89EE70560DDE75B60FFDE00BFD9
:101C1000580200200148FFF716BF00BF5002002005
:101C20000148FFF711BF00BF500200209368013B3D
:101C3000002B10B4936008DA9469A34201DB0A29EF
:101C400003D15DF8044B00F06BBB1368581C1060A7
:101C5000197008465DF8044B7047F8B506460F4604
:101C60001446D518AC4201D1002007E014F8011B3E
:101C70003A463046FFF7DAFF431CF3D1F8BD0000C7
:101C80002DE9F04F0D469DB014469846064618B112
:101C9000036A0BB9FFF7D8FD6B6ED90705D4AB8982
:101CA0009A0502D4A86DFFF7CEFEAB891B0701D5BC
:101CB0002B699BB92946304600F070FB70B16B6E02
:101CC000DC0704D54FF0FF301DB0BDE8F08FAB89C5
:101CD0009805F7D4A86DFFF7B7FEF3E70023099343
:101CE00020238DF82930CDF80C803023DFF8AC812B
:101CF0008DF82A304FF0010923469A4613F8012B3C
:101D00000AB1252AF9D1BAEB040B0BD05B46224667
:101D100029463046FFF7A1FF013000F0A780099A5D
:101D20005A4409929AF80030002B00F09F8000235B
:101D30004FF0FF32CDE905230AF1010A049307931E
:101D40008DF853301A935446052214F8011B53485A
:101D5000FEF766FA049AD8B9D10644BF20238DF85D
:101D60005330130744BF2B238DF853309AF80030BB
:101D70002A2B15D0079A544600204FF00A0C214612
:101D800011F8013B303B092B4BD9B0B1079214E05D
:101D9000A0EB080309FA03F313430493A246D2E726
:101DA000039B191D1B680391002BBBBF5B4242F0D4
:101DB000020207930793B8BF049223782E2B0AD10F
:101DC00063782A2B32D1039B1A1D1B68039243EAC6
:101DD000E37302340593DFF8D4A021780322504640
:101DE000FEF71EFA38B1049BA0EB0A0040228240A5
:101DF00013430134049314F8011B29488DF828106B
:101E00000622FEF70DFA00283FD0264B1BBB039B92
:101E1000073323F0070308330393099B3B440993DB
:101E20006AE70CFB02320C460120A8E700230134CC
:101E3000059319464FF00A0C204610F8012B303A52
:101E4000092A03D9002BC6D00591C4E70CFB012158
:101E500004460123F0E703AB00932A46124B04A982
:101E60003046AFF300800746781CD6D16B6ED90799
:101E700005D4AB899A0502D4A86DFFF7E5FDAB89BF
:101E80005B063FF51FAF09981EE703AB00932A4698
:101E9000054B04A9304600F079F8E4E74C26000829
:101EA00056260008000000005B1C000852260008AF
:101EB0002DE9F047164698468A680B69DDF82090B0
:101EC0009342B8BF1346336091F8432007460C464F
:101ED0000AB1013333602368990642BF3368023385
:101EE0003360256815F0060506D104F1190AE36888
:101EF00032689B1AAB4226DC94F843302268003BE0
:101F000018BF012392062BD404F143024146384600
:101F1000C84701301ED02368226903F00603042B52
:101F200002BFE5683368ED1AA3680CBF25EAE575C2
:101F300000259342C4BF9B1AED1800261A34B542FF
:101F40001AD1002008E00123524641463846C847CE
:101F5000013003D14FF0FF30BDE8F0870135C6E70F
:101F6000E1185A1C302081F84300224494F84510AF
:101F700082F843100233C7E7012322464146384620
:101F8000C8470130E6D00136D9E700002DE9FF4708
:101F90000F7E0C9E782F914680460C469A4601F1A2
:101FA000430207D8622F0AD8002F00F0D180582FA3
:101FB00000F0B88004F1420684F842703AE0A7F1DC
:101FC0006303152BF6D801A151F823F02520000852
:101FD00039200008B51F0008B51F0008B51F00080C
:101FE000B51F000839200008B51F0008B51F0008FC
:101FF000B51F0008B51F000837210008632000083E
:10200000F1200008B51F0008B51F0008592100087D
:10201000B51F000863200008B51F0008B51F0008A1
:10202000F920000833681A1D1B68326004F142066B
:1020300084F8423001239CE033682068191D316028
:10204000060601D51D6803E04506FBD5B3F900502F
:10205000002D03DA2D236D4284F8433058480A23BB
:1020600011E021683368080653F8045B02D449067E
:1020700048BFADB26F2F5248336014BF0A23082304
:10208000002184F843106668A660002E05DB2168F5
:102090002E4321F0040121604BD01646B5FBF3F12D
:1020A00003FB1157C75D06F8017D2F46BB420D4665
:1020B000F4D9082B0BD12368DF0708D523696168A1
:1020C0009942DEBF302306F8013C06F1FF36921B31
:1020D0002261CDF800A04B4603AA21464046FFF7F7
:1020E000E7FE01304AD14FF0FF3004B0BDE8F08781
:1020F000236843F0200323603248782784F8457032
:10210000236831681F0651F8045B02D45F0648BF9C
:10211000ADB23160D90744BF43F0200323601DB145
:102120001023ADE72648E9E7236823F02003236066
:10213000F6E71646BDE7336825686169181D30600B
:102140002E061B6801D5196002E06806FBD51980D0
:10215000002323611646BCE733681A1D32601E68EF
:10216000626800213046FEF75BF808B1801B6060B2
:1021700063682361002384F84330AAE72369324669
:1021800049464046D0470130ADD023689B0713D461
:10219000E068039B9842B8BF1846A6E70123324681
:1021A00049464046D04701309DD00135E368039948
:1021B0005B1AAB42F2DCEBE7002504F11906F5E708
:1021C0005D2600086E260008B1F90C202DE9F041CB
:1021D000160705460C4654D44B68002B02DC0B6CEA
:1021E000002B48DDE66A002E45D0002312F4805211
:1021F0002F68216A2B6030D0626DA389590705D5FD
:102200006368D21A636B0BB1236CD21A0023E66A9F
:10221000216A2846B047431CA38906D129681D2995
:102220002BD82A4ACA40D60727D500226260D90493
:102230002269226004D5421C01D12B6803B9606574
:10224000616B2F60B9B104F14403994202D0284672
:10225000FFF7FCFB002363630DE001232846B04732
:102260000246501CC9D12B68002BC6D01D2B01D0B3
:10227000162B1ED12F60002022E043F040031BB23A
:102280001BE00F69002FF6D093070E6808BF4B695B
:102290000F6018BF0023A6EB07088B60B8F1000F92
:1022A000E9DD216AA66A43463A462846B047002837
:1022B00008DCB4F90C3043F04003A3814FF0FF3049
:1022C000BDE8F0810744A8EB0008E7E701004020E3
:1022D00038B50B6905460C4613B90025284638BDAC
:1022E00018B1036A0BB9FFF7AFFAB4F90C30002B41
:1022F000F3D0626ED00704D4990502D4A06DFFF725
:10230000A2FB28462146FFF75FFF636EDA0705460A
:10231000E4D4A3899B05E1D4A06DFFF795FBDDE72D
:10232000F8B50E461446054618B1036A0BB9FFF717
:102330008BFAA369A360A3891A0701D5236943B95E
:102340002146284600F02AF818B14FF0FF373846EA
:10235000F8BD23682269981A6369F6B2834237464A
:1023600005DC21462846FFF7B3FF0028EDD1A3681E
:10237000013BA36023685A1C22601E706269431CE3
:102380009A4204D0A389DB07E1D50A2EDFD121468A
:102390002846FFF79DFF0028D9D0D6E738B5294B4E
:1023A000054618680C4618B1036A0BB9FFF74CFADA
:1023B000B4F90C30190722D4DA0607D409222A60AE
:1023C00043F04003A3814FF0FF3033E0580712D5AC
:1023D000616B41B104F14403994202D02846FFF7F2
:1023E00035FB00236363A38923F02403A381002327
:1023F000636023692360A38943F00803A3812369F1
:102400004BB9A38903F42073B3F5007F03D02146B1
:10241000284600F04FF8B4F90C3013F001020AD04E
:102420000022A26062695242A261226942B913F09D
:102430008000C5D138BD990758BF6269A260F4E732
:102440000020F7E71800002038B5064D00230446A9
:1024500008462B6000F0B4F8431C02D12B6803B18E
:10246000236038BD4C02002070B50C46B1F90E1047
:10247000002996B015461E460DDAA38913F0800F89
:102480004FF0000114BF40234FF4806300203160FF
:102490002B6016B070BD6A4600F048F80028ECDBEF
:1024A000019901F47041A1F50053594259414FF48B
:1024B0008063EBE78B89F7B59D0706460C4607D589
:1024C00004F14703236023610123636103B0F0BD7E
:1024D00001AB6A46FFF7C8FF009F05463946304604
:1024E000FFF720FB48B9B4F90C309A05EED423F07D
:1024F000030343F00203A381E2E7A389206043F0D2
:102500008003A381019BC4E904075BB1B4F90E10F9
:10251000304600F01DF828B1A38923F0030343F0EF
:102520000103A381A3891D43A581CFE738B5074DDA
:1025300000230446084611462B6000F021F8431C96
:1025400002D12B6803B1236038BD00BF4C020020CC
:1025500038B5064D0023044608462B6000F018F8F5
:10256000431C02D12B6803B1236038BD4C0200200C
:10257000024B58221A604FF0FF3070474C02002087
:10258000024B58221A604FF0FF3070474C02002077
:10259000024B58221A600020704700BF4C020020F6
:1025A000024B58221A604FF0FF3070474C02002057
:1025B000024B58221A604FF0FF3070474C02002047
:1025C000044A05491368002B08BF0B4618441060E5
:1025D000184670475C02002060020020F8B500BF7A
:1025E000F8BC08BC9E467047F8B500BFF8BC08BCF4
:0425F0009E4670474C
:1025F4004B657950616400000000000048656C6C14
:102604006F2C202573210A0057686F277320776881
:102614006572653F0A00000055534152543300006F
:1026240057656C6C6F205541525435210A000000E7
:10263400000000000102030400000000000000008C
:102644000102030406070809232D302B2000686CBF
:102654004C006566674546470030313233343536C1
:1026640037383941424344454600303132333435FA
:0C26740036373839616263646566000027
:08268000A0DBFF7F0100000058
:04268800F90100084C
:04268C00D101000870
:1026900001000000100000000024F4000000000011
:1026A00003000000100100201C00002000000000BA
:1026B0001001002078010020E0010020000000004F
:1026C000000000000000000000000000000000000A
:1026D00000000000000000000000000000000000FA
:1026E00000000000000000000000000000000000EA
:0826F0000000000000000000E2
:04000005080016DDFC
:00000001FF
